{
  "contractName": "AddUsers",
  "abi": [
    {
      "inputs": [
        {
          "internalType": "address",
          "name": "_walletAddress",
          "type": "address"
        },
        {
          "internalType": "string",
          "name": "_role",
          "type": "string"
        },
        {
          "internalType": "bool",
          "name": "_accountStatus",
          "type": "bool"
        },
        {
          "internalType": "string",
          "name": "_password",
          "type": "string"
        }
      ],
      "stateMutability": "nonpayable",
      "type": "constructor"
    },
    {
      "inputs": [
        {
          "internalType": "uint256",
          "name": "",
          "type": "uint256"
        }
      ],
      "name": "addressList",
      "outputs": [
        {
          "internalType": "address",
          "name": "",
          "type": "address"
        }
      ],
      "stateMutability": "view",
      "type": "function"
    },
    {
      "inputs": [],
      "name": "admin",
      "outputs": [
        {
          "internalType": "address",
          "name": "",
          "type": "address"
        }
      ],
      "stateMutability": "view",
      "type": "function"
    },
    {
      "inputs": [
        {
          "internalType": "address",
          "name": "",
          "type": "address"
        }
      ],
      "name": "users",
      "outputs": [
        {
          "internalType": "string",
          "name": "name",
          "type": "string"
        },
        {
          "internalType": "string",
          "name": "fatherName",
          "type": "string"
        },
        {
          "internalType": "string",
          "name": "emailAddress",
          "type": "string"
        },
        {
          "internalType": "string",
          "name": "phonenumber",
          "type": "string"
        },
        {
          "internalType": "string",
          "name": "role",
          "type": "string"
        },
        {
          "internalType": "string",
          "name": "homeaddress",
          "type": "string"
        },
        {
          "internalType": "string",
          "name": "city",
          "type": "string"
        },
        {
          "internalType": "string",
          "name": "postalcode",
          "type": "string"
        },
        {
          "internalType": "bool",
          "name": "accountStatus",
          "type": "bool"
        },
        {
          "internalType": "address",
          "name": "walletAddress",
          "type": "address"
        },
        {
          "internalType": "string",
          "name": "password",
          "type": "string"
        }
      ],
      "stateMutability": "view",
      "type": "function"
    },
    {
      "inputs": [
        {
          "internalType": "string",
          "name": "_name",
          "type": "string"
        },
        {
          "internalType": "string",
          "name": "_fatherName",
          "type": "string"
        },
        {
          "internalType": "string",
          "name": "_emailAddress",
          "type": "string"
        },
        {
          "internalType": "string",
          "name": "_phonenumber",
          "type": "string"
        },
        {
          "internalType": "string",
          "name": "_password",
          "type": "string"
        },
        {
          "internalType": "string",
          "name": "_role",
          "type": "string"
        },
        {
          "internalType": "string",
          "name": "_homeaddress",
          "type": "string"
        },
        {
          "internalType": "string",
          "name": "_city",
          "type": "string"
        },
        {
          "internalType": "string",
          "name": "_postalcode",
          "type": "string"
        },
        {
          "internalType": "bool",
          "name": "_accountStatus",
          "type": "bool"
        },
        {
          "internalType": "address",
          "name": "_walletAddress",
          "type": "address"
        }
      ],
      "name": "addUser",
      "outputs": [],
      "stateMutability": "nonpayable",
      "type": "function"
    },
    {
      "inputs": [
        {
          "internalType": "string",
          "name": "_name",
          "type": "string"
        },
        {
          "internalType": "string",
          "name": "_fatherName",
          "type": "string"
        },
        {
          "internalType": "string",
          "name": "_emailAddress",
          "type": "string"
        },
        {
          "internalType": "string",
          "name": "_phonenumber",
          "type": "string"
        },
        {
          "internalType": "string",
          "name": "_password",
          "type": "string"
        },
        {
          "internalType": "string",
          "name": "_homeaddress",
          "type": "string"
        },
        {
          "internalType": "string",
          "name": "_city",
          "type": "string"
        },
        {
          "internalType": "string",
          "name": "_postalcode",
          "type": "string"
        },
        {
          "internalType": "bool",
          "name": "_accountStatus",
          "type": "bool"
        },
        {
          "internalType": "string",
          "name": "_role",
          "type": "string"
        },
        {
          "internalType": "address",
          "name": "_walletAddress",
          "type": "address"
        }
      ],
      "name": "updateUserDetails",
      "outputs": [],
      "stateMutability": "nonpayable",
      "type": "function"
    },
    {
      "inputs": [],
      "name": "getAllUsers",
      "outputs": [
        {
          "components": [
            {
              "internalType": "string",
              "name": "name",
              "type": "string"
            },
            {
              "internalType": "string",
              "name": "fatherName",
              "type": "string"
            },
            {
              "internalType": "string",
              "name": "emailAddress",
              "type": "string"
            },
            {
              "internalType": "string",
              "name": "phonenumber",
              "type": "string"
            },
            {
              "internalType": "string",
              "name": "role",
              "type": "string"
            },
            {
              "internalType": "string",
              "name": "homeaddress",
              "type": "string"
            },
            {
              "internalType": "string",
              "name": "city",
              "type": "string"
            },
            {
              "internalType": "string",
              "name": "postalcode",
              "type": "string"
            },
            {
              "internalType": "bool",
              "name": "accountStatus",
              "type": "bool"
            },
            {
              "internalType": "address",
              "name": "walletAddress",
              "type": "address"
            },
            {
              "internalType": "string",
              "name": "password",
              "type": "string"
            }
          ],
          "internalType": "struct AddUsers.User[]",
          "name": "",
          "type": "tuple[]"
        }
      ],
      "stateMutability": "view",
      "type": "function"
    },
    {
      "inputs": [],
      "name": "getSuppliers",
      "outputs": [
        {
          "components": [
            {
              "internalType": "string",
              "name": "name",
              "type": "string"
            },
            {
              "internalType": "string",
              "name": "fatherName",
              "type": "string"
            },
            {
              "internalType": "string",
              "name": "emailAddress",
              "type": "string"
            },
            {
              "internalType": "string",
              "name": "phonenumber",
              "type": "string"
            },
            {
              "internalType": "string",
              "name": "role",
              "type": "string"
            },
            {
              "internalType": "string",
              "name": "homeaddress",
              "type": "string"
            },
            {
              "internalType": "string",
              "name": "city",
              "type": "string"
            },
            {
              "internalType": "string",
              "name": "postalcode",
              "type": "string"
            },
            {
              "internalType": "bool",
              "name": "accountStatus",
              "type": "bool"
            },
            {
              "internalType": "address",
              "name": "walletAddress",
              "type": "address"
            },
            {
              "internalType": "string",
              "name": "password",
              "type": "string"
            }
          ],
          "internalType": "struct AddUsers.User[]",
          "name": "",
          "type": "tuple[]"
        }
      ],
      "stateMutability": "view",
      "type": "function"
    }
  ],
  "bytecode": "0x60806040523480156200001157600080fd5b506040516200390438038062003904833981810160405281019062000037919062000594565b33600160006101000a81548173ffffffffffffffffffffffffffffffffffffffff021916908373ffffffffffffffffffffffffffffffffffffffff160217905550620000fc6040518060200160405280600081525060405180602001604052806000815250604051806020016040528060008152506040518060200160405280600081525085886040518060200160405280600081525060405180602001604052806000815250604051806020016040528060008152508b8e6200010660201b60201c565b5050505062000a1f565b600160009054906101000a900473ffffffffffffffffffffffffffffffffffffffff1673ffffffffffffffffffffffffffffffffffffffff163373ffffffffffffffffffffffffffffffffffffffff161462000199576040517f08c379a00000000000000000000000000000000000000000000000000000000081526004016200019090620006cb565b60405180910390fd5b60008060008373ffffffffffffffffffffffffffffffffffffffff1673ffffffffffffffffffffffffffffffffffffffff16815260200190815260200160002090508b816000019081620001ee919062000938565b508a81600101908162000202919062000938565b508981600201908162000216919062000938565b50888160030190816200022a919062000938565b50878160090190816200023e919062000938565b508681600401908162000252919062000938565b508581600501908162000266919062000938565b50848160060190816200027a919062000938565b50838160070190816200028e919062000938565b50828160080160006101000a81548160ff021916908315150217905550818160080160016101000a81548173ffffffffffffffffffffffffffffffffffffffff021916908373ffffffffffffffffffffffffffffffffffffffff1602179055506002829080600181540180825580915050600190039060005260206000200160009091909190916101000a81548173ffffffffffffffffffffffffffffffffffffffff021916908373ffffffffffffffffffffffffffffffffffffffff160217905550505050505050505050505050565b6000604051905090565b600080fd5b600080fd5b600073ffffffffffffffffffffffffffffffffffffffff82169050919050565b6000620003a08262000373565b9050919050565b620003b28162000393565b8114620003be57600080fd5b50565b600081519050620003d281620003a7565b92915050565b600080fd5b600080fd5b6000601f19601f8301169050919050565b7f4e487b7100000000000000000000000000000000000000000000000000000000600052604160045260246000fd5b6200042d82620003e2565b810181811067ffffffffffffffff821117156200044f576200044e620003f3565b5b80604052505050565b6000620004646200035f565b905062000472828262000422565b919050565b600067ffffffffffffffff821115620004955762000494620003f3565b5b620004a082620003e2565b9050602081019050919050565b60005b83811015620004cd578082015181840152602081019050620004b0565b60008484015250505050565b6000620004f0620004ea8462000477565b62000458565b9050828152602081018484840111156200050f576200050e620003dd565b5b6200051c848285620004ad565b509392505050565b600082601f8301126200053c576200053b620003d8565b5b81516200054e848260208601620004d9565b91505092915050565b60008115159050919050565b6200056e8162000557565b81146200057a57600080fd5b50565b6000815190506200058e8162000563565b92915050565b60008060008060808587031215620005b157620005b062000369565b5b6000620005c187828801620003c1565b945050602085015167ffffffffffffffff811115620005e557620005e46200036e565b5b620005f38782880162000524565b935050604062000606878288016200057d565b925050606085015167ffffffffffffffff8111156200062a57620006296200036e565b5b620006388782880162000524565b91505092959194509250565b600082825260208201905092915050565b7f4f6e6c792061646d696e2063616e2063616c6c20746869732066756e6374696f60008201527f6e00000000000000000000000000000000000000000000000000000000000000602082015250565b6000620006b360218362000644565b9150620006c08262000655565b604082019050919050565b60006020820190508181036000830152620006e681620006a4565b9050919050565b600081519050919050565b7f4e487b7100000000000000000000000000000000000000000000000000000000600052602260045260246000fd5b600060028204905060018216806200074057607f821691505b602082108103620007565762000755620006f8565b5b50919050565b60008190508160005260206000209050919050565b60006020601f8301049050919050565b600082821b905092915050565b600060088302620007c07fffffffffffffffffffffffffffffffffffffffffffffffffffffffffffffffff8262000781565b620007cc868362000781565b95508019841693508086168417925050509392505050565b6000819050919050565b6000819050919050565b600062000819620008136200080d84620007e4565b620007ee565b620007e4565b9050919050565b6000819050919050565b6200083583620007f8565b6200084d620008448262000820565b8484546200078e565b825550505050565b600090565b6200086462000855565b620008718184846200082a565b505050565b5b8181101562000899576200088d6000826200085a565b60018101905062000877565b5050565b601f821115620008e857620008b2816200075c565b620008bd8462000771565b81016020851015620008cd578190505b620008e5620008dc8562000771565b83018262000876565b50505b505050565b600082821c905092915050565b60006200090d60001984600802620008ed565b1980831691505092915050565b6000620009288383620008fa565b9150826002028217905092915050565b6200094382620006ed565b67ffffffffffffffff8111156200095f576200095e620003f3565b5b6200096b825462000727565b620009788282856200089d565b600060209050601f831160018114620009b057600084156200099b578287015190505b620009a785826200091a565b86555062000a17565b601f198416620009c0866200075c565b60005b82811015620009ea57848901518255600182019150602085019450602081019050620009c3565b8683101562000a0a578489015162000a06601f891682620008fa565b8355505b6001600288020188555050505b505050505050565b612ed58062000a2f6000396000f3fe608060405234801561001057600080fd5b506004361061007d5760003560e01c8063a87430ba1161005b578063a87430ba146100d8578063b810fb4314610112578063e2842d7914610142578063f851a440146101605761007d565b80631ad4af0e146100825780632e56553a1461009e57806343516832146100ba575b600080fd5b61009c600480360381019061009791906120b8565b61017e565b005b6100b860048036038101906100b391906122a8565b6103c2565b005b6100c2610596565b6040516100cf919061271e565b60405180910390f35b6100f260048036038101906100ed9190612740565b610ff8565b6040516101099b9a999897969594939291906127d5565b60405180910390f35b61012c600480360381019061012791906128f5565b611547565b6040516101399190612922565b60405180910390f35b61014a611586565b604051610157919061271e565b60405180910390f35b610168611e30565b6040516101759190612922565b60405180910390f35b600160009054906101000a900473ffffffffffffffffffffffffffffffffffffffff1673ffffffffffffffffffffffffffffffffffffffff163373ffffffffffffffffffffffffffffffffffffffff161461020e576040517f08c379a0000000000000000000000000000000000000000000000000000000008152600401610205906129af565b60405180910390fd5b60008060008373ffffffffffffffffffffffffffffffffffffffff1673ffffffffffffffffffffffffffffffffffffffff16815260200190815260200160002090508b8160000190816102619190612bdb565b508a8160010190816102739190612bdb565b50898160020190816102859190612bdb565b50888160030190816102979190612bdb565b50878160090190816102a99190612bdb565b50868160040190816102bb9190612bdb565b50858160050190816102cd9190612bdb565b50848160060190816102df9190612bdb565b50838160070190816102f19190612bdb565b50828160080160006101000a81548160ff021916908315150217905550818160080160016101000a81548173ffffffffffffffffffffffffffffffffffffffff021916908373ffffffffffffffffffffffffffffffffffffffff1602179055506002829080600181540180825580915050600190039060005260206000200160009091909190916101000a81548173ffffffffffffffffffffffffffffffffffffffff021916908373ffffffffffffffffffffffffffffffffffffffff160217905550505050505050505050505050565b8073ffffffffffffffffffffffffffffffffffffffff163373ffffffffffffffffffffffffffffffffffffffff1614806104495750600160009054906101000a900473ffffffffffffffffffffffffffffffffffffffff1673ffffffffffffffffffffffffffffffffffffffff163373ffffffffffffffffffffffffffffffffffffffff16145b610488576040517f08c379a000000000000000000000000000000000000000000000000000000000815260040161047f90612d1f565b60405180910390fd5b60008060008373ffffffffffffffffffffffffffffffffffffffff1673ffffffffffffffffffffffffffffffffffffffff16815260200190815260200160002090508b8160000190816104db9190612bdb565b508a8160010190816104ed9190612bdb565b50898160020190816104ff9190612bdb565b50888160030190816105119190612bdb565b50878160090190816105239190612bdb565b50868160050190816105359190612bdb565b50858160060190816105479190612bdb565b50848160070190816105599190612bdb565b50838160080160006101000a81548160ff021916908315150217905550828160040190816105879190612bdb565b50505050505050505050505050565b60606000805b60028054905081101561077a57600073ffffffffffffffffffffffffffffffffffffffff16600080600284815481106105d8576105d7612d3f565b5b9060005260206000200160009054906101000a900473ffffffffffffffffffffffffffffffffffffffff1673ffffffffffffffffffffffffffffffffffffffff1673ffffffffffffffffffffffffffffffffffffffff16815260200190815260200160002060080160019054906101000a900473ffffffffffffffffffffffffffffffffffffffff1673ffffffffffffffffffffffffffffffffffffffff161415801561075357506040518060400160405280600881526020017f737570706c69657200000000000000000000000000000000000000000000000081525080519060200120600080600284815481106106d4576106d3612d3f565b5b9060005260206000200160009054906101000a900473ffffffffffffffffffffffffffffffffffffffff1673ffffffffffffffffffffffffffffffffffffffff1673ffffffffffffffffffffffffffffffffffffffff1681526020019081526020016000206004016040516107499190612e11565b6040518091039020145b1561076757818061076390612e57565b9250505b808061077290612e57565b91505061059c565b5060008167ffffffffffffffff81111561079757610796611ef7565b5b6040519080825280602002602001820160405280156107d057816020015b6107bd611e56565b8152602001906001900390816107b55790505b5090506000805b600280549050811015610fee57600073ffffffffffffffffffffffffffffffffffffffff166000806002848154811061081357610812612d3f565b5b9060005260206000200160009054906101000a900473ffffffffffffffffffffffffffffffffffffffff1673ffffffffffffffffffffffffffffffffffffffff1673ffffffffffffffffffffffffffffffffffffffff16815260200190815260200160002060080160019054906101000a900473ffffffffffffffffffffffffffffffffffffffff1673ffffffffffffffffffffffffffffffffffffffff161415801561098e57506040518060400160405280600881526020017f737570706c696572000000000000000000000000000000000000000000000000815250805190602001206000806002848154811061090f5761090e612d3f565b5b9060005260206000200160009054906101000a900473ffffffffffffffffffffffffffffffffffffffff1673ffffffffffffffffffffffffffffffffffffffff1673ffffffffffffffffffffffffffffffffffffffff1681526020019081526020016000206004016040516109849190612e11565b6040518091039020145b15610fdb57600080600283815481106109aa576109a9612d3f565b5b9060005260206000200160009054906101000a900473ffffffffffffffffffffffffffffffffffffffff1673ffffffffffffffffffffffffffffffffffffffff1673ffffffffffffffffffffffffffffffffffffffff16815260200190815260200160002060405180610160016040529081600082018054610a2b906129fe565b80601f0160208091040260200160405190810160405280929190818152602001828054610a57906129fe565b8015610aa45780601f10610a7957610100808354040283529160200191610aa4565b820191906000526020600020905b815481529060010190602001808311610a8757829003601f168201915b50505050508152602001600182018054610abd906129fe565b80601f0160208091040260200160405190810160405280929190818152602001828054610ae9906129fe565b8015610b365780601f10610b0b57610100808354040283529160200191610b36565b820191906000526020600020905b815481529060010190602001808311610b1957829003601f168201915b50505050508152602001600282018054610b4f906129fe565b80601f0160208091040260200160405190810160405280929190818152602001828054610b7b906129fe565b8015610bc85780601f10610b9d57610100808354040283529160200191610bc8565b820191906000526020600020905b815481529060010190602001808311610bab57829003601f168201915b50505050508152602001600382018054610be1906129fe565b80601f0160208091040260200160405190810160405280929190818152602001828054610c0d906129fe565b8015610c5a5780601f10610c2f57610100808354040283529160200191610c5a565b820191906000526020600020905b815481529060010190602001808311610c3d57829003601f168201915b50505050508152602001600482018054610c73906129fe565b80601f0160208091040260200160405190810160405280929190818152602001828054610c9f906129fe565b8015610cec5780601f10610cc157610100808354040283529160200191610cec565b820191906000526020600020905b815481529060010190602001808311610ccf57829003601f168201915b50505050508152602001600582018054610d05906129fe565b80601f0160208091040260200160405190810160405280929190818152602001828054610d31906129fe565b8015610d7e5780601f10610d5357610100808354040283529160200191610d7e565b820191906000526020600020905b815481529060010190602001808311610d6157829003601f168201915b50505050508152602001600682018054610d97906129fe565b80601f0160208091040260200160405190810160405280929190818152602001828054610dc3906129fe565b8015610e105780601f10610de557610100808354040283529160200191610e10565b820191906000526020600020905b815481529060010190602001808311610df357829003601f168201915b50505050508152602001600782018054610e29906129fe565b80601f0160208091040260200160405190810160405280929190818152602001828054610e55906129fe565b8015610ea25780601f10610e7757610100808354040283529160200191610ea2565b820191906000526020600020905b815481529060010190602001808311610e8557829003601f168201915b505050505081526020016008820160009054906101000a900460ff161515151581526020016008820160019054906101000a900473ffffffffffffffffffffffffffffffffffffffff1673ffffffffffffffffffffffffffffffffffffffff1673ffffffffffffffffffffffffffffffffffffffff168152602001600982018054610f2c906129fe565b80601f0160208091040260200160405190810160405280929190818152602001828054610f58906129fe565b8015610fa55780601f10610f7a57610100808354040283529160200191610fa5565b820191906000526020600020905b815481529060010190602001808311610f8857829003601f168201915b505050505081525050838381518110610fc157610fc0612d3f565b5b60200260200101819052508180610fd790612e57565b9250505b8080610fe690612e57565b9150506107d7565b5081935050505090565b600060205280600052604060002060009150905080600001805461101b906129fe565b80601f0160208091040260200160405190810160405280929190818152602001828054611047906129fe565b80156110945780601f1061106957610100808354040283529160200191611094565b820191906000526020600020905b81548152906001019060200180831161107757829003601f168201915b5050505050908060010180546110a9906129fe565b80601f01602080910402602001604051908101604052809291908181526020018280546110d5906129fe565b80156111225780601f106110f757610100808354040283529160200191611122565b820191906000526020600020905b81548152906001019060200180831161110557829003601f168201915b505050505090806002018054611137906129fe565b80601f0160208091040260200160405190810160405280929190818152602001828054611163906129fe565b80156111b05780601f10611185576101008083540402835291602001916111b0565b820191906000526020600020905b81548152906001019060200180831161119357829003601f168201915b5050505050908060030180546111c5906129fe565b80601f01602080910402602001604051908101604052809291908181526020018280546111f1906129fe565b801561123e5780601f106112135761010080835404028352916020019161123e565b820191906000526020600020905b81548152906001019060200180831161122157829003601f168201915b505050505090806004018054611253906129fe565b80601f016020809104026020016040519081016040528092919081815260200182805461127f906129fe565b80156112cc5780601f106112a1576101008083540402835291602001916112cc565b820191906000526020600020905b8154815290600101906020018083116112af57829003601f168201915b5050505050908060050180546112e1906129fe565b80601f016020809104026020016040519081016040528092919081815260200182805461130d906129fe565b801561135a5780601f1061132f5761010080835404028352916020019161135a565b820191906000526020600020905b81548152906001019060200180831161133d57829003601f168201915b50505050509080600601805461136f906129fe565b80601f016020809104026020016040519081016040528092919081815260200182805461139b906129fe565b80156113e85780601f106113bd576101008083540402835291602001916113e8565b820191906000526020600020905b8154815290600101906020018083116113cb57829003601f168201915b5050505050908060070180546113fd906129fe565b80601f0160208091040260200160405190810160405280929190818152602001828054611429906129fe565b80156114765780601f1061144b57610100808354040283529160200191611476565b820191906000526020600020905b81548152906001019060200180831161145957829003601f168201915b5050505050908060080160009054906101000a900460ff16908060080160019054906101000a900473ffffffffffffffffffffffffffffffffffffffff16908060090180546114c4906129fe565b80601f01602080910402602001604051908101604052809291908181526020018280546114f0906129fe565b801561153d5780601f106115125761010080835404028352916020019161153d565b820191906000526020600020905b81548152906001019060200180831161152057829003601f168201915b505050505090508b565b6002818154811061155757600080fd5b906000526020600020016000915054906101000a900473ffffffffffffffffffffffffffffffffffffffff1681565b60606000805b60028054905081101561168e57600073ffffffffffffffffffffffffffffffffffffffff16600080600284815481106115c8576115c7612d3f565b5b9060005260206000200160009054906101000a900473ffffffffffffffffffffffffffffffffffffffff1673ffffffffffffffffffffffffffffffffffffffff1673ffffffffffffffffffffffffffffffffffffffff16815260200190815260200160002060080160019054906101000a900473ffffffffffffffffffffffffffffffffffffffff1673ffffffffffffffffffffffffffffffffffffffff161461167b57818061167790612e57565b9250505b808061168690612e57565b91505061158c565b5060008167ffffffffffffffff8111156116ab576116aa611ef7565b5b6040519080825280602002602001820160405280156116e457816020015b6116d1611e56565b8152602001906001900390816116c95790505b5090506000805b600280549050811015611e2657600073ffffffffffffffffffffffffffffffffffffffff166000806002848154811061172757611726612d3f565b5b9060005260206000200160009054906101000a900473ffffffffffffffffffffffffffffffffffffffff1673ffffffffffffffffffffffffffffffffffffffff1673ffffffffffffffffffffffffffffffffffffffff16815260200190815260200160002060080160019054906101000a900473ffffffffffffffffffffffffffffffffffffffff1673ffffffffffffffffffffffffffffffffffffffff1614611e1357600080600283815481106117e2576117e1612d3f565b5b9060005260206000200160009054906101000a900473ffffffffffffffffffffffffffffffffffffffff1673ffffffffffffffffffffffffffffffffffffffff1673ffffffffffffffffffffffffffffffffffffffff16815260200190815260200160002060405180610160016040529081600082018054611863906129fe565b80601f016020809104026020016040519081016040528092919081815260200182805461188f906129fe565b80156118dc5780601f106118b1576101008083540402835291602001916118dc565b820191906000526020600020905b8154815290600101906020018083116118bf57829003601f168201915b505050505081526020016001820180546118f5906129fe565b80601f0160208091040260200160405190810160405280929190818152602001828054611921906129fe565b801561196e5780601f106119435761010080835404028352916020019161196e565b820191906000526020600020905b81548152906001019060200180831161195157829003601f168201915b50505050508152602001600282018054611987906129fe565b80601f01602080910402602001604051908101604052809291908181526020018280546119b3906129fe565b8015611a005780601f106119d557610100808354040283529160200191611a00565b820191906000526020600020905b8154815290600101906020018083116119e357829003601f168201915b50505050508152602001600382018054611a19906129fe565b80601f0160208091040260200160405190810160405280929190818152602001828054611a45906129fe565b8015611a925780601f10611a6757610100808354040283529160200191611a92565b820191906000526020600020905b815481529060010190602001808311611a7557829003601f168201915b50505050508152602001600482018054611aab906129fe565b80601f0160208091040260200160405190810160405280929190818152602001828054611ad7906129fe565b8015611b245780601f10611af957610100808354040283529160200191611b24565b820191906000526020600020905b815481529060010190602001808311611b0757829003601f168201915b50505050508152602001600582018054611b3d906129fe565b80601f0160208091040260200160405190810160405280929190818152602001828054611b69906129fe565b8015611bb65780601f10611b8b57610100808354040283529160200191611bb6565b820191906000526020600020905b815481529060010190602001808311611b9957829003601f168201915b50505050508152602001600682018054611bcf906129fe565b80601f0160208091040260200160405190810160405280929190818152602001828054611bfb906129fe565b8015611c485780601f10611c1d57610100808354040283529160200191611c48565b820191906000526020600020905b815481529060010190602001808311611c2b57829003601f168201915b50505050508152602001600782018054611c61906129fe565b80601f0160208091040260200160405190810160405280929190818152602001828054611c8d906129fe565b8015611cda5780601f10611caf57610100808354040283529160200191611cda565b820191906000526020600020905b815481529060010190602001808311611cbd57829003601f168201915b505050505081526020016008820160009054906101000a900460ff161515151581526020016008820160019054906101000a900473ffffffffffffffffffffffffffffffffffffffff1673ffffffffffffffffffffffffffffffffffffffff1673ffffffffffffffffffffffffffffffffffffffff168152602001600982018054611d64906129fe565b80601f0160208091040260200160405190810160405280929190818152602001828054611d90906129fe565b8015611ddd5780601f10611db257610100808354040283529160200191611ddd565b820191906000526020600020905b815481529060010190602001808311611dc057829003601f168201915b505050505081525050838381518110611df957611df8612d3f565b5b60200260200101819052508180611e0f90612e57565b9250505b8080611e1e90612e57565b9150506116eb565b5081935050505090565b600160009054906101000a900473ffffffffffffffffffffffffffffffffffffffff1681565b6040518061016001604052806060815260200160608152602001606081526020016060815260200160608152602001606081526020016060815260200160608152602001600015158152602001600073ffffffffffffffffffffffffffffffffffffffff168152602001606081525090565b6000604051905090565b600080fd5b600080fd5b600080fd5b600080fd5b6000601f19601f8301169050919050565b7f4e487b7100000000000000000000000000000000000000000000000000000000600052604160045260246000fd5b611f2f82611ee6565b810181811067ffffffffffffffff82111715611f4e57611f4d611ef7565b5b80604052505050565b6000611f61611ec8565b9050611f6d8282611f26565b919050565b600067ffffffffffffffff821115611f8d57611f8c611ef7565b5b611f9682611ee6565b9050602081019050919050565b82818337600083830152505050565b6000611fc5611fc084611f72565b611f57565b905082815260208101848484011115611fe157611fe0611ee1565b5b611fec848285611fa3565b509392505050565b600082601f83011261200957612008611edc565b5b8135612019848260208601611fb2565b91505092915050565b60008115159050919050565b61203781612022565b811461204257600080fd5b50565b6000813590506120548161202e565b92915050565b600073ffffffffffffffffffffffffffffffffffffffff82169050919050565b60006120858261205a565b9050919050565b6120958161207a565b81146120a057600080fd5b50565b6000813590506120b28161208c565b92915050565b60008060008060008060008060008060006101608c8e0312156120de576120dd611ed2565b5b60008c013567ffffffffffffffff8111156120fc576120fb611ed7565b5b6121088e828f01611ff4565b9b505060208c013567ffffffffffffffff81111561212957612128611ed7565b5b6121358e828f01611ff4565b9a505060408c013567ffffffffffffffff81111561215657612155611ed7565b5b6121628e828f01611ff4565b99505060608c013567ffffffffffffffff81111561218357612182611ed7565b5b61218f8e828f01611ff4565b98505060808c013567ffffffffffffffff8111156121b0576121af611ed7565b5b6121bc8e828f01611ff4565b97505060a08c013567ffffffffffffffff8111156121dd576121dc611ed7565b5b6121e98e828f01611ff4565b96505060c08c013567ffffffffffffffff81111561220a57612209611ed7565b5b6122168e828f01611ff4565b95505060e08c013567ffffffffffffffff81111561223757612236611ed7565b5b6122438e828f01611ff4565b9450506101008c013567ffffffffffffffff81111561226557612264611ed7565b5b6122718e828f01611ff4565b9350506101206122838e828f01612045565b9250506101406122958e828f016120a3565b9150509295989b509295989b9093969950565b60008060008060008060008060008060006101608c8e0312156122ce576122cd611ed2565b5b60008c013567ffffffffffffffff8111156122ec576122eb611ed7565b5b6122f88e828f01611ff4565b9b505060208c013567ffffffffffffffff81111561231957612318611ed7565b5b6123258e828f01611ff4565b9a505060408c013567ffffffffffffffff81111561234657612345611ed7565b5b6123528e828f01611ff4565b99505060608c013567ffffffffffffffff81111561237357612372611ed7565b5b61237f8e828f01611ff4565b98505060808c013567ffffffffffffffff8111156123a05761239f611ed7565b5b6123ac8e828f01611ff4565b97505060a08c013567ffffffffffffffff8111156123cd576123cc611ed7565b5b6123d98e828f01611ff4565b96505060c08c013567ffffffffffffffff8111156123fa576123f9611ed7565b5b6124068e828f01611ff4565b95505060e08c013567ffffffffffffffff81111561242757612426611ed7565b5b6124338e828f01611ff4565b9450506101006124458e828f01612045565b9350506101208c013567ffffffffffffffff81111561246757612466611ed7565b5b6124738e828f01611ff4565b9250506101406124858e828f016120a3565b9150509295989b509295989b9093969950565b600081519050919050565b600082825260208201905092915050565b6000819050602082019050919050565b600081519050919050565b600082825260208201905092915050565b60005b838110156124fe5780820151818401526020810190506124e3565b60008484015250505050565b6000612515826124c4565b61251f81856124cf565b935061252f8185602086016124e0565b61253881611ee6565b840191505092915050565b61254c81612022565b82525050565b61255b8161207a565b82525050565b600061016083016000830151848203600086015261257f828261250a565b91505060208301518482036020860152612599828261250a565b915050604083015184820360408601526125b3828261250a565b915050606083015184820360608601526125cd828261250a565b915050608083015184820360808601526125e7828261250a565b91505060a083015184820360a0860152612601828261250a565b91505060c083015184820360c086015261261b828261250a565b91505060e083015184820360e0860152612635828261250a565b91505061010083015161264c610100860182612543565b50610120830151612661610120860182612552565b5061014083015184820361014086015261267b828261250a565b9150508091505092915050565b60006126948383612561565b905092915050565b6000602082019050919050565b60006126b482612498565b6126be81856124a3565b9350836020820285016126d0856124b4565b8060005b8581101561270c57848403895281516126ed8582612688565b94506126f88361269c565b925060208a019950506001810190506126d4565b50829750879550505050505092915050565b6000602082019050818103600083015261273881846126a9565b905092915050565b60006020828403121561275657612755611ed2565b5b6000612764848285016120a3565b91505092915050565b600082825260208201905092915050565b6000612789826124c4565b612793818561276d565b93506127a38185602086016124e0565b6127ac81611ee6565b840191505092915050565b6127c081612022565b82525050565b6127cf8161207a565b82525050565b60006101608201905081810360008301526127f0818e61277e565b90508181036020830152612804818d61277e565b90508181036040830152612818818c61277e565b9050818103606083015261282c818b61277e565b90508181036080830152612840818a61277e565b905081810360a0830152612854818961277e565b905081810360c0830152612868818861277e565b905081810360e083015261287c818761277e565b905061288c6101008301866127b7565b61289a6101208301856127c6565b8181036101408301526128ad818461277e565b90509c9b505050505050505050505050565b6000819050919050565b6128d2816128bf565b81146128dd57600080fd5b50565b6000813590506128ef816128c9565b92915050565b60006020828403121561290b5761290a611ed2565b5b6000612919848285016128e0565b91505092915050565b600060208201905061293760008301846127c6565b92915050565b7f4f6e6c792061646d696e2063616e2063616c6c20746869732066756e6374696f60008201527f6e00000000000000000000000000000000000000000000000000000000000000602082015250565b600061299960218361276d565b91506129a48261293d565b604082019050919050565b600060208201905081810360008301526129c88161298c565b9050919050565b7f4e487b7100000000000000000000000000000000000000000000000000000000600052602260045260246000fd5b60006002820490506001821680612a1657607f821691505b602082108103612a2957612a286129cf565b5b50919050565b60008190508160005260206000209050919050565b60006020601f8301049050919050565b600082821b905092915050565b600060088302612a917fffffffffffffffffffffffffffffffffffffffffffffffffffffffffffffffff82612a54565b612a9b8683612a54565b95508019841693508086168417925050509392505050565b6000819050919050565b6000612ad8612ad3612ace846128bf565b612ab3565b6128bf565b9050919050565b6000819050919050565b612af283612abd565b612b06612afe82612adf565b848454612a61565b825550505050565b600090565b612b1b612b0e565b612b26818484612ae9565b505050565b5b81811015612b4a57612b3f600082612b13565b600181019050612b2c565b5050565b601f821115612b8f57612b6081612a2f565b612b6984612a44565b81016020851015612b78578190505b612b8c612b8485612a44565b830182612b2b565b50505b505050565b600082821c905092915050565b6000612bb260001984600802612b94565b1980831691505092915050565b6000612bcb8383612ba1565b9150826002028217905092915050565b612be4826124c4565b67ffffffffffffffff811115612bfd57612bfc611ef7565b5b612c0782546129fe565b612c12828285612b4e565b600060209050601f831160018114612c455760008415612c33578287015190505b612c3d8582612bbf565b865550612ca5565b601f198416612c5386612a2f565b60005b82811015612c7b57848901518255600182019150602085019450602081019050612c56565b86831015612c985784890151612c94601f891682612ba1565b8355505b6001600288020188555050505b505050505050565b7f596f7520617265206e6f7420617574686f72697a656420746f2075706461746560008201527f2074686973207573657227732064657461696c73000000000000000000000000602082015250565b6000612d0960348361276d565b9150612d1482612cad565b604082019050919050565b60006020820190508181036000830152612d3881612cfc565b9050919050565b7f4e487b7100000000000000000000000000000000000000000000000000000000600052603260045260246000fd5b600081905092915050565b60008190508160005260206000209050919050565b60008154612d9b816129fe565b612da58186612d6e565b94506001821660008114612dc05760018114612dd557612e08565b60ff1983168652811515820286019350612e08565b612dde85612d79565b60005b83811015612e0057815481890152600182019150602081019050612de1565b838801955050505b50505092915050565b6000612e1d8284612d8e565b915081905092915050565b7f4e487b7100000000000000000000000000000000000000000000000000000000600052601160045260246000fd5b6000612e62826128bf565b91507fffffffffffffffffffffffffffffffffffffffffffffffffffffffffffffffff8203612e9457612e93612e28565b5b60018201905091905056fea264697066735822122030156fdff856cb8eb1909bb3a1fe87f64eae7a04f90d1539ef9b39ff47a45cc264736f6c63430008120033",
  "immutableReferences": {},
  "source": "// SPDX-License-Identifier: GPL-3.0\r\npragma solidity >=0.8.0 <0.9.0;\r\n\r\ncontract AddUsers {\r\n    struct User {\r\n        string name;\r\n        string fatherName;\r\n        string emailAddress;\r\n        string phonenumber;\r\n        string role;\r\n        string homeaddress;\r\n        string city;\r\n        string postalcode;\r\n        bool accountStatus;\r\n        address walletAddress;\r\n        string password;\r\n    }\r\n\r\n    mapping (address => User) public users;\r\n    address public admin;\r\n    address[] public addressList;\r\n\r\n    constructor(address _walletAddress, string memory _role, bool _accountStatus, string memory _password) {\r\n        admin = msg.sender;\r\n        addUser(\"\", \"\", \"\", \"\", _password, _role, \"\", \"\", \"\", _accountStatus, _walletAddress);\r\n    }\r\n\r\n    modifier onlyAdmin() {\r\n        require(msg.sender == admin, \"Only admin can call this function\");\r\n        _;\r\n    }\r\n\r\n    function addUser(string memory _name, string memory _fatherName, string memory _emailAddress, string memory _phonenumber, string memory _password, string memory _role, string memory _homeaddress, string memory _city, string memory _postalcode, bool _accountStatus, address _walletAddress) public onlyAdmin {\r\n        User storage user = users[_walletAddress];\r\n        user.name = _name;\r\n        user.fatherName = _fatherName;\r\n        user.emailAddress = _emailAddress;\r\n        user.phonenumber = _phonenumber;\r\n        user.password = _password;\r\n        user.role = _role;\r\n        user.homeaddress = _homeaddress;\r\n        user.city = _city;\r\n        user.postalcode = _postalcode;\r\n        user.accountStatus = _accountStatus;\r\n        user.walletAddress = _walletAddress;\r\n        addressList.push(_walletAddress);\r\n    }\r\n\r\n   \r\n\r\n    function updateUserDetails(\r\n        string memory _name,\r\n        string memory _fatherName,\r\n        string memory _emailAddress,\r\n        string memory _phonenumber,\r\n        string memory _password,\r\n        string memory _homeaddress,\r\n        string memory _city,\r\n        string memory _postalcode,\r\n        bool _accountStatus,\r\n        string memory _role,\r\n        address _walletAddress\r\n    ) public {\r\n        require(msg.sender == _walletAddress || msg.sender == admin, \"You are not authorized to update this user's details\");\r\n        User storage user = users[_walletAddress];\r\n        user.name = _name;\r\n        user.fatherName = _fatherName;\r\n        user.emailAddress = _emailAddress;\r\n        user.phonenumber = _phonenumber;\r\n        user.password = _password;\r\n        user.homeaddress = _homeaddress;\r\n        user.city = _city;\r\n        user.postalcode = _postalcode;\r\n        user.accountStatus = _accountStatus;\r\n        user.role = _role;\r\n    }\r\n     function getAllUsers() public view returns (User[] memory) {\r\n        uint userCount = 0;\r\n        for (uint i = 0; i < addressList.length; i++) {\r\n            if (users[addressList[i]].walletAddress != address(0)) {\r\n                userCount++;\r\n            }\r\n        }\r\n        User[] memory userList = new User[](userCount);\r\n        uint j = 0;\r\n        for (uint i = 0; i < addressList.length; i++) {\r\n            if (users[addressList[i]].walletAddress != address(0)) {\r\n                userList[j] = users[addressList[i]];\r\n                j++;\r\n            }\r\n        }\r\n        return userList;\r\n    }\r\n\r\n\r\n    function getSuppliers() public view returns (User[] memory) {\r\n    uint supplierCount = 0;\r\n    for (uint i = 0; i < addressList.length; i++) {\r\n        if (users[addressList[i]].walletAddress != address(0) && keccak256(bytes(users[addressList[i]].role)) == keccak256(bytes(\"supplier\"))) {\r\n            supplierCount++;\r\n        }\r\n    }\r\n    User[] memory supplierList = new User[](supplierCount);\r\n    uint j = 0;\r\n    for (uint i = 0; i < addressList.length; i++) {\r\n        if (users[addressList[i]].walletAddress != address(0) && keccak256(bytes(users[addressList[i]].role)) == keccak256(bytes(\"supplier\"))) {\r\n            supplierList[j] = users[addressList[i]];\r\n            j++;\r\n        }\r\n    }\r\n    return supplierList;\r\n}\r\n\r\n}\r\n",
  "sourcePath": "E:\\Solidity\\mscm\\blockchain\\contracts\\AddUsers.sol",
  "compiler": {
    "name": "solc",
    "version": "0.8.18+commit.87f61d96.Emscripten.clang"
  },
  "schemaVersion": "3.4.13",
  "updatedAt": "2023-05-13T17:55:14.571Z",
  "devdoc": {
    "kind": "dev",
    "methods": {},
    "version": 1
  },
  "userdoc": {
    "kind": "user",
    "methods": {},
    "version": 1
  }
}