{
  "contractName": "CustomerContract",
  "abi": [
    {
      "inputs": [],
      "name": "customerCounter",
      "outputs": [
        {
          "internalType": "uint256",
          "name": "",
          "type": "uint256"
        }
      ],
      "stateMutability": "view",
      "type": "function"
    },
    {
      "inputs": [
        {
          "internalType": "uint256",
          "name": "",
          "type": "uint256"
        }
      ],
      "name": "customers",
      "outputs": [
        {
          "internalType": "address",
          "name": "walletAddress",
          "type": "address"
        },
        {
          "internalType": "string",
          "name": "name",
          "type": "string"
        },
        {
          "internalType": "string",
          "name": "fatherName",
          "type": "string"
        },
        {
          "internalType": "string",
          "name": "emailAddress",
          "type": "string"
        },
        {
          "internalType": "uint256",
          "name": "phoneNumber",
          "type": "uint256"
        },
        {
          "internalType": "string",
          "name": "homeAddress",
          "type": "string"
        },
        {
          "internalType": "string",
          "name": "role",
          "type": "string"
        },
        {
          "internalType": "string",
          "name": "password",
          "type": "string"
        },
        {
          "internalType": "string",
          "name": "accountStatus",
          "type": "string"
        }
      ],
      "stateMutability": "view",
      "type": "function"
    },
    {
      "inputs": [
        {
          "internalType": "address",
          "name": "_walletAddress",
          "type": "address"
        },
        {
          "internalType": "string",
          "name": "_name",
          "type": "string"
        },
        {
          "internalType": "string",
          "name": "_fatherName",
          "type": "string"
        },
        {
          "internalType": "string",
          "name": "_emailAddress",
          "type": "string"
        },
        {
          "internalType": "uint256",
          "name": "_phoneNumber",
          "type": "uint256"
        },
        {
          "internalType": "string",
          "name": "_homeAddress",
          "type": "string"
        },
        {
          "internalType": "string",
          "name": "_password",
          "type": "string"
        }
      ],
      "name": "addNewCustomer",
      "outputs": [],
      "stateMutability": "nonpayable",
      "type": "function"
    },
    {
      "inputs": [
        {
          "internalType": "address",
          "name": "_walletAddress",
          "type": "address"
        },
        {
          "internalType": "string",
          "name": "_name",
          "type": "string"
        },
        {
          "internalType": "string",
          "name": "_fatherName",
          "type": "string"
        },
        {
          "internalType": "string",
          "name": "_emailAddress",
          "type": "string"
        },
        {
          "internalType": "uint256",
          "name": "_phoneNumber",
          "type": "uint256"
        },
        {
          "internalType": "string",
          "name": "_homeAddress",
          "type": "string"
        },
        {
          "internalType": "string",
          "name": "_password",
          "type": "string"
        }
      ],
      "name": "updateCustomerData",
      "outputs": [],
      "stateMutability": "nonpayable",
      "type": "function"
    },
    {
      "inputs": [
        {
          "internalType": "address",
          "name": "_walletAddress",
          "type": "address"
        },
        {
          "internalType": "string",
          "name": "accountStatus",
          "type": "string"
        }
      ],
      "name": "UpdateAccountStatus",
      "outputs": [],
      "stateMutability": "nonpayable",
      "type": "function"
    },
    {
      "inputs": [
        {
          "internalType": "address",
          "name": "_walletAddress",
          "type": "address"
        },
        {
          "internalType": "string",
          "name": "password",
          "type": "string"
        }
      ],
      "name": "UpdateCustomerPassword",
      "outputs": [],
      "stateMutability": "nonpayable",
      "type": "function"
    },
    {
      "inputs": [
        {
          "internalType": "address",
          "name": "walletAddress",
          "type": "address"
        }
      ],
      "name": "getCustomerData",
      "outputs": [
        {
          "components": [
            {
              "internalType": "address",
              "name": "walletAddress",
              "type": "address"
            },
            {
              "internalType": "string",
              "name": "name",
              "type": "string"
            },
            {
              "internalType": "string",
              "name": "fatherName",
              "type": "string"
            },
            {
              "internalType": "string",
              "name": "emailAddress",
              "type": "string"
            },
            {
              "internalType": "uint256",
              "name": "phoneNumber",
              "type": "uint256"
            },
            {
              "internalType": "string",
              "name": "homeAddress",
              "type": "string"
            },
            {
              "internalType": "string",
              "name": "role",
              "type": "string"
            },
            {
              "internalType": "string",
              "name": "password",
              "type": "string"
            },
            {
              "internalType": "string",
              "name": "accountStatus",
              "type": "string"
            }
          ],
          "internalType": "struct CustomerContract.Customer",
          "name": "",
          "type": "tuple"
        }
      ],
      "stateMutability": "view",
      "type": "function"
    },
    {
      "inputs": [],
      "name": "getAllCustomer",
      "outputs": [
        {
          "components": [
            {
              "internalType": "address",
              "name": "walletAddress",
              "type": "address"
            },
            {
              "internalType": "string",
              "name": "name",
              "type": "string"
            },
            {
              "internalType": "string",
              "name": "fatherName",
              "type": "string"
            },
            {
              "internalType": "string",
              "name": "emailAddress",
              "type": "string"
            },
            {
              "internalType": "uint256",
              "name": "phoneNumber",
              "type": "uint256"
            },
            {
              "internalType": "string",
              "name": "homeAddress",
              "type": "string"
            },
            {
              "internalType": "string",
              "name": "role",
              "type": "string"
            },
            {
              "internalType": "string",
              "name": "password",
              "type": "string"
            },
            {
              "internalType": "string",
              "name": "accountStatus",
              "type": "string"
            }
          ],
          "internalType": "struct CustomerContract.Customer[]",
          "name": "",
          "type": "tuple[]"
        }
      ],
      "stateMutability": "view",
      "type": "function"
    },
    {
      "inputs": [],
      "name": "getCustomerCount",
      "outputs": [
        {
          "internalType": "uint256",
          "name": "",
          "type": "uint256"
        }
      ],
      "stateMutability": "view",
      "type": "function"
    }
  ],
  "bytecode": "0x60806040526001805534801561001457600080fd5b5061232b806100246000396000f3fe608060405234801561001057600080fd5b50600436106100935760003560e01c806365e502dc1161006657806365e502dc1461011e578063678d871c1461013c5780639869acac14610158578063b91c4e4614610176578063c0abda2a1461019257610093565b80630f10fb64146100985780632027d746146100c85780632d77562f146100e657806335bfdd7014610102575b600080fd5b6100b260048036038101906100ad9190611689565b6101ca565b6040516100bf919061185d565b60405180910390f35b6100d0610723565b6040516100dd919061188e565b60405180910390f35b61010060048036038101906100fb91906119de565b610738565b005b61011c60048036038101906101179190611a66565b6107f1565b005b6101266109db565b604051610133919061188e565b60405180910390f35b610156600480360381019061015191906119de565b6109e1565b005b610160610a9a565b60405161016d9190611d45565b60405180910390f35b610190600480360381019061018b9190611a66565b610fd3565b005b6101ac60048036038101906101a79190611d67565b61118f565b6040516101c199989796959493929190611ded565b60405180910390f35b6101d26115b5565b6000600190505b6001548110156106e2578273ffffffffffffffffffffffffffffffffffffffff1660008083815260200190815260200160002060000160009054906101000a900473ffffffffffffffffffffffffffffffffffffffff1673ffffffffffffffffffffffffffffffffffffffff16036106cf57600080828152602001908152602001600020604051806101200160405290816000820160009054906101000a900473ffffffffffffffffffffffffffffffffffffffff1673ffffffffffffffffffffffffffffffffffffffff1673ffffffffffffffffffffffffffffffffffffffff1681526020016001820180546102cf90611eda565b80601f01602080910402602001604051908101604052809291908181526020018280546102fb90611eda565b80156103485780601f1061031d57610100808354040283529160200191610348565b820191906000526020600020905b81548152906001019060200180831161032b57829003601f168201915b5050505050815260200160028201805461036190611eda565b80601f016020809104026020016040519081016040528092919081815260200182805461038d90611eda565b80156103da5780601f106103af576101008083540402835291602001916103da565b820191906000526020600020905b8154815290600101906020018083116103bd57829003601f168201915b505050505081526020016003820180546103f390611eda565b80601f016020809104026020016040519081016040528092919081815260200182805461041f90611eda565b801561046c5780601f106104415761010080835404028352916020019161046c565b820191906000526020600020905b81548152906001019060200180831161044f57829003601f168201915b505050505081526020016004820154815260200160058201805461048f90611eda565b80601f01602080910402602001604051908101604052809291908181526020018280546104bb90611eda565b80156105085780601f106104dd57610100808354040283529160200191610508565b820191906000526020600020905b8154815290600101906020018083116104eb57829003601f168201915b5050505050815260200160068201805461052190611eda565b80601f016020809104026020016040519081016040528092919081815260200182805461054d90611eda565b801561059a5780601f1061056f5761010080835404028352916020019161059a565b820191906000526020600020905b81548152906001019060200180831161057d57829003601f168201915b505050505081526020016007820180546105b390611eda565b80601f01602080910402602001604051908101604052809291908181526020018280546105df90611eda565b801561062c5780601f106106015761010080835404028352916020019161062c565b820191906000526020600020905b81548152906001019060200180831161060f57829003601f168201915b5050505050815260200160088201805461064590611eda565b80601f016020809104026020016040519081016040528092919081815260200182805461067190611eda565b80156106be5780601f10610693576101008083540402835291602001916106be565b820191906000526020600020905b8154815290600101906020018083116106a157829003601f168201915b50505050508152505091505061071e565b80806106da90611f3a565b9150506101d9565b506040517f08c379a000000000000000000000000000000000000000000000000000000000815260040161071590611ff4565b60405180910390fd5b919050565b6000600180546107339190612014565b905090565b6000600190505b6001548110156107ec578273ffffffffffffffffffffffffffffffffffffffff1660008083815260200190815260200160002060000160009054906101000a900473ffffffffffffffffffffffffffffffffffffffff1673ffffffffffffffffffffffffffffffffffffffff16036107d9578160008083815260200190815260200160002060080190816107d391906121f4565b506107ec565b80806107e490611f3a565b91505061073f565b505050565b60006040518061012001604052808973ffffffffffffffffffffffffffffffffffffffff1681526020018881526020018781526020018681526020018581526020018481526020016040518060400160405280600881526020017f637573746f6d657200000000000000000000000000000000000000000000000081525081526020018381526020016040518060400160405280600681526020017f4163746976650000000000000000000000000000000000000000000000000000815250815250905080600080600154815260200190815260200160002060008201518160000160006101000a81548173ffffffffffffffffffffffffffffffffffffffff021916908373ffffffffffffffffffffffffffffffffffffffff160217905550602082015181600101908161092691906121f4565b50604082015181600201908161093c91906121f4565b50606082015181600301908161095291906121f4565b506080820151816004015560a082015181600501908161097291906121f4565b5060c082015181600601908161098891906121f4565b5060e082015181600701908161099e91906121f4565b506101008201518160080190816109b591906121f4565b50905050600160008154809291906109cc90611f3a565b91905055505050505050505050565b60015481565b6000600190505b600154811015610a95578273ffffffffffffffffffffffffffffffffffffffff1660008083815260200190815260200160002060000160009054906101000a900473ffffffffffffffffffffffffffffffffffffffff1673ffffffffffffffffffffffffffffffffffffffff1603610a8257816000808381526020019081526020016000206007019081610a7c91906121f4565b50610a95565b8080610a8d90611f3a565b9150506109e8565b505050565b6060600060018054610aac9190612014565b67ffffffffffffffff811115610ac557610ac46118b3565b5b604051908082528060200260200182016040528015610afe57816020015b610aeb6115b5565b815260200190600190039081610ae35790505b5090506000600190505b600154811015610fcb57600080828152602001908152602001600020604051806101200160405290816000820160009054906101000a900473ffffffffffffffffffffffffffffffffffffffff1673ffffffffffffffffffffffffffffffffffffffff1673ffffffffffffffffffffffffffffffffffffffff168152602001600182018054610b9690611eda565b80601f0160208091040260200160405190810160405280929190818152602001828054610bc290611eda565b8015610c0f5780601f10610be457610100808354040283529160200191610c0f565b820191906000526020600020905b815481529060010190602001808311610bf257829003601f168201915b50505050508152602001600282018054610c2890611eda565b80601f0160208091040260200160405190810160405280929190818152602001828054610c5490611eda565b8015610ca15780601f10610c7657610100808354040283529160200191610ca1565b820191906000526020600020905b815481529060010190602001808311610c8457829003601f168201915b50505050508152602001600382018054610cba90611eda565b80601f0160208091040260200160405190810160405280929190818152602001828054610ce690611eda565b8015610d335780601f10610d0857610100808354040283529160200191610d33565b820191906000526020600020905b815481529060010190602001808311610d1657829003601f168201915b5050505050815260200160048201548152602001600582018054610d5690611eda565b80601f0160208091040260200160405190810160405280929190818152602001828054610d8290611eda565b8015610dcf5780601f10610da457610100808354040283529160200191610dcf565b820191906000526020600020905b815481529060010190602001808311610db257829003601f168201915b50505050508152602001600682018054610de890611eda565b80601f0160208091040260200160405190810160405280929190818152602001828054610e1490611eda565b8015610e615780601f10610e3657610100808354040283529160200191610e61565b820191906000526020600020905b815481529060010190602001808311610e4457829003601f168201915b50505050508152602001600782018054610e7a90611eda565b80601f0160208091040260200160405190810160405280929190818152602001828054610ea690611eda565b8015610ef35780601f10610ec857610100808354040283529160200191610ef3565b820191906000526020600020905b815481529060010190602001808311610ed657829003601f168201915b50505050508152602001600882018054610f0c90611eda565b80601f0160208091040260200160405190810160405280929190818152602001828054610f3890611eda565b8015610f855780601f10610f5a57610100808354040283529160200191610f85565b820191906000526020600020905b815481529060010190602001808311610f6857829003601f168201915b50505050508152505082600183610f9c9190612014565b81518110610fad57610fac6122c6565b5b60200260200101819052508080610fc390611f3a565b915050610b08565b508091505090565b6000600190505b600154811015611185578773ffffffffffffffffffffffffffffffffffffffff1660008083815260200190815260200160002060000160009054906101000a900473ffffffffffffffffffffffffffffffffffffffff1673ffffffffffffffffffffffffffffffffffffffff16036111725786600080838152602001908152602001600020600101908161106e91906121f4565b5085600080838152602001908152602001600020600201908161109191906121f4565b508460008083815260200190815260200160002060030190816110b491906121f4565b5083600080838152602001908152602001600020600401819055508260008083815260200190815260200160002060050190816110f191906121f4565b506040518060400160405280600881526020017f637573746f6d6572000000000000000000000000000000000000000000000000815250600080838152602001908152602001600020600601908161114991906121f4565b5081600080838152602001908152602001600020600701908161116c91906121f4565b50611185565b808061117d90611f3a565b915050610fda565b5050505050505050565b60006020528060005260406000206000915090508060000160009054906101000a900473ffffffffffffffffffffffffffffffffffffffff16908060010180546111d890611eda565b80601f016020809104026020016040519081016040528092919081815260200182805461120490611eda565b80156112515780601f1061122657610100808354040283529160200191611251565b820191906000526020600020905b81548152906001019060200180831161123457829003601f168201915b50505050509080600201805461126690611eda565b80601f016020809104026020016040519081016040528092919081815260200182805461129290611eda565b80156112df5780601f106112b4576101008083540402835291602001916112df565b820191906000526020600020905b8154815290600101906020018083116112c257829003601f168201915b5050505050908060030180546112f490611eda565b80601f016020809104026020016040519081016040528092919081815260200182805461132090611eda565b801561136d5780601f106113425761010080835404028352916020019161136d565b820191906000526020600020905b81548152906001019060200180831161135057829003601f168201915b50505050509080600401549080600501805461138890611eda565b80601f01602080910402602001604051908101604052809291908181526020018280546113b490611eda565b80156114015780601f106113d657610100808354040283529160200191611401565b820191906000526020600020905b8154815290600101906020018083116113e457829003601f168201915b50505050509080600601805461141690611eda565b80601f016020809104026020016040519081016040528092919081815260200182805461144290611eda565b801561148f5780601f106114645761010080835404028352916020019161148f565b820191906000526020600020905b81548152906001019060200180831161147257829003601f168201915b5050505050908060070180546114a490611eda565b80601f01602080910402602001604051908101604052809291908181526020018280546114d090611eda565b801561151d5780601f106114f25761010080835404028352916020019161151d565b820191906000526020600020905b81548152906001019060200180831161150057829003601f168201915b50505050509080600801805461153290611eda565b80601f016020809104026020016040519081016040528092919081815260200182805461155e90611eda565b80156115ab5780601f10611580576101008083540402835291602001916115ab565b820191906000526020600020905b81548152906001019060200180831161158e57829003601f168201915b5050505050905089565b604051806101200160405280600073ffffffffffffffffffffffffffffffffffffffff16815260200160608152602001606081526020016060815260200160008152602001606081526020016060815260200160608152602001606081525090565b6000604051905090565b600080fd5b600080fd5b600073ffffffffffffffffffffffffffffffffffffffff82169050919050565b60006116568261162b565b9050919050565b6116668161164b565b811461167157600080fd5b50565b6000813590506116838161165d565b92915050565b60006020828403121561169f5761169e611621565b5b60006116ad84828501611674565b91505092915050565b6116bf8161164b565b82525050565b600081519050919050565b600082825260208201905092915050565b60005b838110156116ff5780820151818401526020810190506116e4565b60008484015250505050565b6000601f19601f8301169050919050565b6000611727826116c5565b61173181856116d0565b93506117418185602086016116e1565b61174a8161170b565b840191505092915050565b6000819050919050565b61176881611755565b82525050565b60006101208301600083015161178760008601826116b6565b506020830151848203602086015261179f828261171c565b915050604083015184820360408601526117b9828261171c565b915050606083015184820360608601526117d3828261171c565b91505060808301516117e8608086018261175f565b5060a083015184820360a0860152611800828261171c565b91505060c083015184820360c086015261181a828261171c565b91505060e083015184820360e0860152611834828261171c565b915050610100830151848203610100860152611850828261171c565b9150508091505092915050565b60006020820190508181036000830152611877818461176e565b905092915050565b61188881611755565b82525050565b60006020820190506118a3600083018461187f565b92915050565b600080fd5b600080fd5b7f4e487b7100000000000000000000000000000000000000000000000000000000600052604160045260246000fd5b6118eb8261170b565b810181811067ffffffffffffffff8211171561190a576119096118b3565b5b80604052505050565b600061191d611617565b905061192982826118e2565b919050565b600067ffffffffffffffff821115611949576119486118b3565b5b6119528261170b565b9050602081019050919050565b82818337600083830152505050565b600061198161197c8461192e565b611913565b90508281526020810184848401111561199d5761199c6118ae565b5b6119a884828561195f565b509392505050565b600082601f8301126119c5576119c46118a9565b5b81356119d584826020860161196e565b91505092915050565b600080604083850312156119f5576119f4611621565b5b6000611a0385828601611674565b925050602083013567ffffffffffffffff811115611a2457611a23611626565b5b611a30858286016119b0565b9150509250929050565b611a4381611755565b8114611a4e57600080fd5b50565b600081359050611a6081611a3a565b92915050565b600080600080600080600060e0888a031215611a8557611a84611621565b5b6000611a938a828b01611674565b975050602088013567ffffffffffffffff811115611ab457611ab3611626565b5b611ac08a828b016119b0565b965050604088013567ffffffffffffffff811115611ae157611ae0611626565b5b611aed8a828b016119b0565b955050606088013567ffffffffffffffff811115611b0e57611b0d611626565b5b611b1a8a828b016119b0565b9450506080611b2b8a828b01611a51565b93505060a088013567ffffffffffffffff811115611b4c57611b4b611626565b5b611b588a828b016119b0565b92505060c088013567ffffffffffffffff811115611b7957611b78611626565b5b611b858a828b016119b0565b91505092959891949750929550565b600081519050919050565b600082825260208201905092915050565b6000819050602082019050919050565b600061012083016000830151611bd960008601826116b6565b5060208301518482036020860152611bf1828261171c565b91505060408301518482036040860152611c0b828261171c565b91505060608301518482036060860152611c25828261171c565b9150506080830151611c3a608086018261175f565b5060a083015184820360a0860152611c52828261171c565b91505060c083015184820360c0860152611c6c828261171c565b91505060e083015184820360e0860152611c86828261171c565b915050610100830151848203610100860152611ca2828261171c565b9150508091505092915050565b6000611cbb8383611bc0565b905092915050565b6000602082019050919050565b6000611cdb82611b94565b611ce58185611b9f565b935083602082028501611cf785611bb0565b8060005b85811015611d335784840389528151611d148582611caf565b9450611d1f83611cc3565b925060208a01995050600181019050611cfb565b50829750879550505050505092915050565b60006020820190508181036000830152611d5f8184611cd0565b905092915050565b600060208284031215611d7d57611d7c611621565b5b6000611d8b84828501611a51565b91505092915050565b611d9d8161164b565b82525050565b600082825260208201905092915050565b6000611dbf826116c5565b611dc98185611da3565b9350611dd98185602086016116e1565b611de28161170b565b840191505092915050565b600061012082019050611e03600083018c611d94565b8181036020830152611e15818b611db4565b90508181036040830152611e29818a611db4565b90508181036060830152611e3d8189611db4565b9050611e4c608083018861187f565b81810360a0830152611e5e8187611db4565b905081810360c0830152611e728186611db4565b905081810360e0830152611e868185611db4565b9050818103610100830152611e9b8184611db4565b90509a9950505050505050505050565b7f4e487b7100000000000000000000000000000000000000000000000000000000600052602260045260246000fd5b60006002820490506001821680611ef257607f821691505b602082108103611f0557611f04611eab565b5b50919050565b7f4e487b7100000000000000000000000000000000000000000000000000000000600052601160045260246000fd5b6000611f4582611755565b91507fffffffffffffffffffffffffffffffffffffffffffffffffffffffffffffffff8203611f7757611f76611f0b565b5b600182019050919050565b7f4e6f20637573746f6d657220666f756e64207769746820746869732077616c6c60008201527f6574206164647265737300000000000000000000000000000000000000000000602082015250565b6000611fde602a83611da3565b9150611fe982611f82565b604082019050919050565b6000602082019050818103600083015261200d81611fd1565b9050919050565b600061201f82611755565b915061202a83611755565b925082820390508181111561204257612041611f0b565b5b92915050565b60008190508160005260206000209050919050565b60006020601f8301049050919050565b600082821b905092915050565b6000600883026120aa7fffffffffffffffffffffffffffffffffffffffffffffffffffffffffffffffff8261206d565b6120b4868361206d565b95508019841693508086168417925050509392505050565b6000819050919050565b60006120f16120ec6120e784611755565b6120cc565b611755565b9050919050565b6000819050919050565b61210b836120d6565b61211f612117826120f8565b84845461207a565b825550505050565b600090565b612134612127565b61213f818484612102565b505050565b5b818110156121635761215860008261212c565b600181019050612145565b5050565b601f8211156121a85761217981612048565b6121828461205d565b81016020851015612191578190505b6121a561219d8561205d565b830182612144565b50505b505050565b600082821c905092915050565b60006121cb600019846008026121ad565b1980831691505092915050565b60006121e483836121ba565b9150826002028217905092915050565b6121fd826116c5565b67ffffffffffffffff811115612216576122156118b3565b5b6122208254611eda565b61222b828285612167565b600060209050601f83116001811461225e576000841561224c578287015190505b61225685826121d8565b8655506122be565b601f19841661226c86612048565b60005b828110156122945784890151825560018201915060208501945060208101905061226f565b868310156122b157848901516122ad601f8916826121ba565b8355505b6001600288020188555050505b505050505050565b7f4e487b7100000000000000000000000000000000000000000000000000000000600052603260045260246000fdfea2646970667358221220f31633de7663c63f4a3d3becf5a867dc40164516e3cad172266dabf9a0dee55464736f6c63430008120033",
  "immutableReferences": {},
  "source": "// SPDX-License-Identifier: MIT\r\npragma solidity ^0.8.0;\r\n\r\ncontract CustomerContract {\r\n    struct Customer {\r\n        address walletAddress;\r\n        string name;\r\n        string fatherName;\r\n        string emailAddress;\r\n        uint phoneNumber;\r\n        string homeAddress;\r\n        string role;\r\n        string password;\r\n        string accountStatus;\r\n    }\r\n\r\n    mapping(uint => Customer) public customers;\r\n    uint public customerCounter = 1;\r\n\r\n    function addNewCustomer(address _walletAddress, string memory _name, string memory _fatherName, string memory _emailAddress, uint _phoneNumber, string memory _homeAddress, string memory _password) public {\r\n        Customer memory newCustomer = Customer(_walletAddress, _name, _fatherName, _emailAddress, _phoneNumber, _homeAddress, \"customer\", _password,\"Active\");\r\n        customers[customerCounter] = newCustomer;\r\n        customerCounter ++;\r\n    }\r\n\r\n   function updateCustomerData(address _walletAddress, string memory _name, string memory _fatherName, string memory _emailAddress, uint _phoneNumber, string memory _homeAddress, string memory _password) public {\r\n    // Loop through the customer mapping to find the customer with the given wallet address\r\n    for (uint i = 1; i < customerCounter; i++) {\r\n        if (customers[i].walletAddress == _walletAddress) {\r\n            // Update the customer's data\r\n            customers[i].name = _name;\r\n            customers[i].fatherName = _fatherName;\r\n            customers[i].emailAddress = _emailAddress;\r\n            customers[i].phoneNumber = _phoneNumber;\r\n            customers[i].homeAddress = _homeAddress;\r\n            customers[i].role = \"customer\";\r\n            customers[i].password = _password;\r\n            break;\r\n        }\r\n    }\r\n}\r\n\r\n\r\nfunction UpdateAccountStatus(address _walletAddress, string memory accountStatus) public {\r\n    // Loop through the customer mapping to find the customer with the given wallet address\r\n    for (uint i = 1; i < customerCounter; i++) {\r\n        if (customers[i].walletAddress == _walletAddress) {\r\n            // Update the customer's account status\r\n            customers[i].accountStatus = accountStatus;\r\n            break;\r\n        }\r\n    }\r\n}\r\n\r\nfunction UpdateCustomerPassword(address _walletAddress, string memory password) public {\r\n    // Loop through the customer mapping to find the customer with the given wallet address\r\n    for (uint i = 1; i < customerCounter; i++) {\r\n        if (customers[i].walletAddress == _walletAddress) {\r\n            // Update the customer's password\r\n            customers[i].password = password;\r\n            break;\r\n        }\r\n    }\r\n}\r\n\r\nfunction getCustomerData(address walletAddress) public view returns (Customer memory) {\r\n    // Loop through the customer mapping to find the customer with the given wallet address\r\n    for (uint i = 1; i < customerCounter; i++) {\r\n        if (customers[i].walletAddress == walletAddress) {\r\n            // Return the customer's data as a tuple\r\n            return customers[i];\r\n        }\r\n    }\r\n    // If no customer is found with the given wallet address, revert the transaction\r\n    revert(\"No customer found with this wallet address\");\r\n}\r\n\r\n\r\nfunction getAllCustomer() public view returns (Customer[] memory) {\r\n    Customer[] memory allCustomers = new Customer[](customerCounter-1);\r\n    // Loop through the customer mapping to add all customers to the array\r\n    for (uint i = 1; i < customerCounter; i++) {\r\n        allCustomers[i-1] = customers[i];\r\n    }\r\n    return allCustomers;\r\n}\r\n\r\nfunction getCustomerCount() public view returns (uint) {\r\n    return customerCounter - 1;\r\n}\r\n\r\n}\r\n",
  "sourcePath": "E:\\Solidity\\mscm\\blockchain\\contracts\\CustomerContract.sol",
  "compiler": {
    "name": "solc",
    "version": "0.8.18+commit.87f61d96.Emscripten.clang"
  },
  "schemaVersion": "3.4.13",
  "updatedAt": "2023-05-13T17:55:14.924Z",
  "devdoc": {
    "kind": "dev",
    "methods": {},
    "version": 1
  },
  "userdoc": {
    "kind": "user",
    "methods": {},
    "version": 1
  }
}