{
  "contractName": "Distributor",
  "abi": [
    {
      "inputs": [],
      "name": "orderCounter",
      "outputs": [
        {
          "internalType": "uint256",
          "name": "",
          "type": "uint256"
        }
      ],
      "stateMutability": "view",
      "type": "function"
    },
    {
      "inputs": [
        {
          "internalType": "uint256",
          "name": "",
          "type": "uint256"
        }
      ],
      "name": "orderMedicines",
      "outputs": [
        {
          "internalType": "uint256",
          "name": "orderID",
          "type": "uint256"
        },
        {
          "internalType": "address",
          "name": "distributorAddress",
          "type": "address"
        },
        {
          "internalType": "string",
          "name": "distributorLocation",
          "type": "string"
        },
        {
          "internalType": "string",
          "name": "distributorName",
          "type": "string"
        },
        {
          "internalType": "address",
          "name": "manufacturerAddress",
          "type": "address"
        },
        {
          "internalType": "string",
          "name": "manufacturerName",
          "type": "string"
        },
        {
          "internalType": "string",
          "name": "orderDetails",
          "type": "string"
        },
        {
          "internalType": "string",
          "name": "orderDateTime",
          "type": "string"
        },
        {
          "internalType": "uint256",
          "name": "totalPrice",
          "type": "uint256"
        },
        {
          "internalType": "string",
          "name": "orderStatus",
          "type": "string"
        },
        {
          "internalType": "string",
          "name": "orderAcceptDateTime",
          "type": "string"
        }
      ],
      "stateMutability": "view",
      "type": "function"
    },
    {
      "inputs": [
        {
          "internalType": "address",
          "name": "_distributorAddress",
          "type": "address"
        },
        {
          "internalType": "string",
          "name": "_distributorLocation",
          "type": "string"
        },
        {
          "internalType": "string",
          "name": "_distributorName",
          "type": "string"
        },
        {
          "internalType": "address",
          "name": "_manufacturerAddress",
          "type": "address"
        },
        {
          "internalType": "string",
          "name": "_manufacturerName",
          "type": "string"
        },
        {
          "internalType": "string",
          "name": "_orderDetails",
          "type": "string"
        },
        {
          "internalType": "string",
          "name": "_orderDateTime",
          "type": "string"
        },
        {
          "internalType": "uint256",
          "name": "_totalPrice",
          "type": "uint256"
        }
      ],
      "name": "placeMedicineOrder",
      "outputs": [],
      "stateMutability": "nonpayable",
      "type": "function"
    },
    {
      "inputs": [
        {
          "internalType": "uint256",
          "name": "_orderID",
          "type": "uint256"
        },
        {
          "internalType": "string",
          "name": "_orderStatus",
          "type": "string"
        },
        {
          "internalType": "string",
          "name": "_orderAcceptDateTime",
          "type": "string"
        }
      ],
      "name": "acceptMedicineOrder",
      "outputs": [],
      "stateMutability": "nonpayable",
      "type": "function"
    },
    {
      "inputs": [
        {
          "internalType": "address",
          "name": "_manufacturerAddress",
          "type": "address"
        }
      ],
      "name": "getManufacturerAllOrder",
      "outputs": [
        {
          "components": [
            {
              "internalType": "uint256",
              "name": "orderID",
              "type": "uint256"
            },
            {
              "internalType": "address",
              "name": "distributorAddress",
              "type": "address"
            },
            {
              "internalType": "string",
              "name": "distributorLocation",
              "type": "string"
            },
            {
              "internalType": "string",
              "name": "distributorName",
              "type": "string"
            },
            {
              "internalType": "address",
              "name": "manufacturerAddress",
              "type": "address"
            },
            {
              "internalType": "string",
              "name": "manufacturerName",
              "type": "string"
            },
            {
              "internalType": "string",
              "name": "orderDetails",
              "type": "string"
            },
            {
              "internalType": "string",
              "name": "orderDateTime",
              "type": "string"
            },
            {
              "internalType": "uint256",
              "name": "totalPrice",
              "type": "uint256"
            },
            {
              "internalType": "string",
              "name": "orderStatus",
              "type": "string"
            },
            {
              "internalType": "string",
              "name": "orderAcceptDateTime",
              "type": "string"
            }
          ],
          "internalType": "struct Distributor.orderMedicine[]",
          "name": "",
          "type": "tuple[]"
        }
      ],
      "stateMutability": "view",
      "type": "function"
    },
    {
      "inputs": [
        {
          "internalType": "address",
          "name": "_distributorAddress",
          "type": "address"
        }
      ],
      "name": "getDistributorAllOrder",
      "outputs": [
        {
          "components": [
            {
              "internalType": "uint256",
              "name": "orderID",
              "type": "uint256"
            },
            {
              "internalType": "address",
              "name": "distributorAddress",
              "type": "address"
            },
            {
              "internalType": "string",
              "name": "distributorLocation",
              "type": "string"
            },
            {
              "internalType": "string",
              "name": "distributorName",
              "type": "string"
            },
            {
              "internalType": "address",
              "name": "manufacturerAddress",
              "type": "address"
            },
            {
              "internalType": "string",
              "name": "manufacturerName",
              "type": "string"
            },
            {
              "internalType": "string",
              "name": "orderDetails",
              "type": "string"
            },
            {
              "internalType": "string",
              "name": "orderDateTime",
              "type": "string"
            },
            {
              "internalType": "uint256",
              "name": "totalPrice",
              "type": "uint256"
            },
            {
              "internalType": "string",
              "name": "orderStatus",
              "type": "string"
            },
            {
              "internalType": "string",
              "name": "orderAcceptDateTime",
              "type": "string"
            }
          ],
          "internalType": "struct Distributor.orderMedicine[]",
          "name": "",
          "type": "tuple[]"
        }
      ],
      "stateMutability": "view",
      "type": "function"
    }
  ],
  "bytecode": "0x60806040526001805534801561001457600080fd5b50612274806100246000396000f3fe608060405234801561001057600080fd5b50600436106100625760003560e01c80632ca00dae1461006757806354f03e2d146100a15780638323cae8146100d1578063a4cd9a9b14610101578063b789bf521461011d578063f23b82931461013b575b600080fd5b610081600480360381019061007c919061163e565b610157565b6040516100989b9a9998979695949392919061174b565b60405180910390f35b6100bb60048036038101906100b69190611853565b6105a9565b6040516100c89190611ac3565b60405180910390f35b6100eb60048036038101906100e69190611853565b610c40565b6040516100f89190611ac3565b60405180910390f35b61011b60048036038101906101169190611c1a565b6112d9565b005b610125611496565b6040516101329190611d5c565b60405180910390f35b61015560048036038101906101509190611d77565b61149c565b005b60006020528060005260406000206000915090508060000154908060010160009054906101000a900473ffffffffffffffffffffffffffffffffffffffff16908060020180546101a690611e31565b80601f01602080910402602001604051908101604052809291908181526020018280546101d290611e31565b801561021f5780601f106101f45761010080835404028352916020019161021f565b820191906000526020600020905b81548152906001019060200180831161020257829003601f168201915b50505050509080600301805461023490611e31565b80601f016020809104026020016040519081016040528092919081815260200182805461026090611e31565b80156102ad5780601f10610282576101008083540402835291602001916102ad565b820191906000526020600020905b81548152906001019060200180831161029057829003601f168201915b5050505050908060040160009054906101000a900473ffffffffffffffffffffffffffffffffffffffff16908060050180546102e890611e31565b80601f016020809104026020016040519081016040528092919081815260200182805461031490611e31565b80156103615780601f1061033657610100808354040283529160200191610361565b820191906000526020600020905b81548152906001019060200180831161034457829003601f168201915b50505050509080600601805461037690611e31565b80601f01602080910402602001604051908101604052809291908181526020018280546103a290611e31565b80156103ef5780601f106103c4576101008083540402835291602001916103ef565b820191906000526020600020905b8154815290600101906020018083116103d257829003601f168201915b50505050509080600701805461040490611e31565b80601f016020809104026020016040519081016040528092919081815260200182805461043090611e31565b801561047d5780601f106104525761010080835404028352916020019161047d565b820191906000526020600020905b81548152906001019060200180831161046057829003601f168201915b50505050509080600801549080600901805461049890611e31565b80601f01602080910402602001604051908101604052809291908181526020018280546104c490611e31565b80156105115780601f106104e657610100808354040283529160200191610511565b820191906000526020600020905b8154815290600101906020018083116104f457829003601f168201915b50505050509080600a01805461052690611e31565b80601f016020809104026020016040519081016040528092919081815260200182805461055290611e31565b801561059f5780601f106105745761010080835404028352916020019161059f565b820191906000526020600020905b81548152906001019060200180831161058257829003601f168201915b505050505090508b565b6060600080600190505b6001548111610646578373ffffffffffffffffffffffffffffffffffffffff1660008083815260200190815260200160002060010160009054906101000a900473ffffffffffffffffffffffffffffffffffffffff1673ffffffffffffffffffffffffffffffffffffffff160361063357818061062f90611e91565b9250505b808061063e90611e91565b9150506105b3565b5060008167ffffffffffffffff81111561066357610662611aef565b5b60405190808252806020026020018201604052801561069c57816020015b61068961156e565b8152602001906001900390816106815790505b509050600080600190505b6001548111610c34578573ffffffffffffffffffffffffffffffffffffffff1660008083815260200190815260200160002060010160009054906101000a900473ffffffffffffffffffffffffffffffffffffffff1673ffffffffffffffffffffffffffffffffffffffff1603610c215760008082815260200190815260200160002060405180610160016040529081600082015481526020016001820160009054906101000a900473ffffffffffffffffffffffffffffffffffffffff1673ffffffffffffffffffffffffffffffffffffffff1673ffffffffffffffffffffffffffffffffffffffff1681526020016002820180546107a690611e31565b80601f01602080910402602001604051908101604052809291908181526020018280546107d290611e31565b801561081f5780601f106107f45761010080835404028352916020019161081f565b820191906000526020600020905b81548152906001019060200180831161080257829003601f168201915b5050505050815260200160038201805461083890611e31565b80601f016020809104026020016040519081016040528092919081815260200182805461086490611e31565b80156108b15780601f10610886576101008083540402835291602001916108b1565b820191906000526020600020905b81548152906001019060200180831161089457829003601f168201915b505050505081526020016004820160009054906101000a900473ffffffffffffffffffffffffffffffffffffffff1673ffffffffffffffffffffffffffffffffffffffff1673ffffffffffffffffffffffffffffffffffffffff16815260200160058201805461092090611e31565b80601f016020809104026020016040519081016040528092919081815260200182805461094c90611e31565b80156109995780601f1061096e57610100808354040283529160200191610999565b820191906000526020600020905b81548152906001019060200180831161097c57829003601f168201915b505050505081526020016006820180546109b290611e31565b80601f01602080910402602001604051908101604052809291908181526020018280546109de90611e31565b8015610a2b5780601f10610a0057610100808354040283529160200191610a2b565b820191906000526020600020905b815481529060010190602001808311610a0e57829003601f168201915b50505050508152602001600782018054610a4490611e31565b80601f0160208091040260200160405190810160405280929190818152602001828054610a7090611e31565b8015610abd5780601f10610a9257610100808354040283529160200191610abd565b820191906000526020600020905b815481529060010190602001808311610aa057829003601f168201915b5050505050815260200160088201548152602001600982018054610ae090611e31565b80601f0160208091040260200160405190810160405280929190818152602001828054610b0c90611e31565b8015610b595780601f10610b2e57610100808354040283529160200191610b59565b820191906000526020600020905b815481529060010190602001808311610b3c57829003601f168201915b50505050508152602001600a82018054610b7290611e31565b80601f0160208091040260200160405190810160405280929190818152602001828054610b9e90611e31565b8015610beb5780601f10610bc057610100808354040283529160200191610beb565b820191906000526020600020905b815481529060010190602001808311610bce57829003601f168201915b505050505081525050838381518110610c0757610c06611ed9565b5b60200260200101819052508180610c1d90611e91565b9250505b8080610c2c90611e91565b9150506106a7565b50819350505050919050565b6060600080600190505b600154811015610cde578373ffffffffffffffffffffffffffffffffffffffff1660008083815260200190815260200160002060040160009054906101000a900473ffffffffffffffffffffffffffffffffffffffff1673ffffffffffffffffffffffffffffffffffffffff1603610ccb578180610cc790611e91565b9250505b8080610cd690611e91565b915050610c4a565b5060008167ffffffffffffffff811115610cfb57610cfa611aef565b5b604051908082528060200260200182016040528015610d3457816020015b610d2161156e565b815260200190600190039081610d195790505b509050600080600190505b6001548110156112cd578573ffffffffffffffffffffffffffffffffffffffff1660008083815260200190815260200160002060040160009054906101000a900473ffffffffffffffffffffffffffffffffffffffff1673ffffffffffffffffffffffffffffffffffffffff16036112ba5760008082815260200190815260200160002060405180610160016040529081600082015481526020016001820160009054906101000a900473ffffffffffffffffffffffffffffffffffffffff1673ffffffffffffffffffffffffffffffffffffffff1673ffffffffffffffffffffffffffffffffffffffff168152602001600282018054610e3f90611e31565b80601f0160208091040260200160405190810160405280929190818152602001828054610e6b90611e31565b8015610eb85780601f10610e8d57610100808354040283529160200191610eb8565b820191906000526020600020905b815481529060010190602001808311610e9b57829003601f168201915b50505050508152602001600382018054610ed190611e31565b80601f0160208091040260200160405190810160405280929190818152602001828054610efd90611e31565b8015610f4a5780601f10610f1f57610100808354040283529160200191610f4a565b820191906000526020600020905b815481529060010190602001808311610f2d57829003601f168201915b505050505081526020016004820160009054906101000a900473ffffffffffffffffffffffffffffffffffffffff1673ffffffffffffffffffffffffffffffffffffffff1673ffffffffffffffffffffffffffffffffffffffff168152602001600582018054610fb990611e31565b80601f0160208091040260200160405190810160405280929190818152602001828054610fe590611e31565b80156110325780601f1061100757610100808354040283529160200191611032565b820191906000526020600020905b81548152906001019060200180831161101557829003601f168201915b5050505050815260200160068201805461104b90611e31565b80601f016020809104026020016040519081016040528092919081815260200182805461107790611e31565b80156110c45780601f10611099576101008083540402835291602001916110c4565b820191906000526020600020905b8154815290600101906020018083116110a757829003601f168201915b505050505081526020016007820180546110dd90611e31565b80601f016020809104026020016040519081016040528092919081815260200182805461110990611e31565b80156111565780601f1061112b57610100808354040283529160200191611156565b820191906000526020600020905b81548152906001019060200180831161113957829003601f168201915b505050505081526020016008820154815260200160098201805461117990611e31565b80601f01602080910402602001604051908101604052809291908181526020018280546111a590611e31565b80156111f25780601f106111c7576101008083540402835291602001916111f2565b820191906000526020600020905b8154815290600101906020018083116111d557829003601f168201915b50505050508152602001600a8201805461120b90611e31565b80601f016020809104026020016040519081016040528092919081815260200182805461123790611e31565b80156112845780601f1061125957610100808354040283529160200191611284565b820191906000526020600020905b81548152906001019060200180831161126757829003601f168201915b5050505050815250508383815181106112a05761129f611ed9565b5b602002602001018190525081806112b690611e91565b9250505b80806112c590611e91565b915050610d3f565b50819350505050919050565b6000806000600154815260200190815260200160002090506001548160000181905550888160010160006101000a81548173ffffffffffffffffffffffffffffffffffffffff021916908373ffffffffffffffffffffffffffffffffffffffff1602179055508781600201908161135091906120b4565b508681600301908161136291906120b4565b50858160040160006101000a81548173ffffffffffffffffffffffffffffffffffffffff021916908373ffffffffffffffffffffffffffffffffffffffff160217905550848160050190816113b791906120b4565b50838160060190816113c991906120b4565b50828160070190816113db91906120b4565b508181600801819055506040518060400160405280600781526020017f50656e64696e670000000000000000000000000000000000000000000000000081525081600901908161142b91906120b4565b506040518060400160405280600481526020017f6e756c6c0000000000000000000000000000000000000000000000000000000081525081600a01908161147291906120b4565b506001600081548092919061148690611e91565b9190505550505050505050505050565b60015481565b600080600085815260200190815260200160002090503373ffffffffffffffffffffffffffffffffffffffff168160040160009054906101000a900473ffffffffffffffffffffffffffffffffffffffff1673ffffffffffffffffffffffffffffffffffffffff1614611544576040517f08c379a000000000000000000000000000000000000000000000000000000000815260040161153b9061221e565b60405180910390fd5b8281600901908161155591906120b4565b508181600a01908161156791906120b4565b5050505050565b60405180610160016040528060008152602001600073ffffffffffffffffffffffffffffffffffffffff1681526020016060815260200160608152602001600073ffffffffffffffffffffffffffffffffffffffff1681526020016060815260200160608152602001606081526020016000815260200160608152602001606081525090565b6000604051905090565b600080fd5b600080fd5b6000819050919050565b61161b81611608565b811461162657600080fd5b50565b60008135905061163881611612565b92915050565b600060208284031215611654576116536115fe565b5b600061166284828501611629565b91505092915050565b61167481611608565b82525050565b600073ffffffffffffffffffffffffffffffffffffffff82169050919050565b60006116a58261167a565b9050919050565b6116b58161169a565b82525050565b600081519050919050565b600082825260208201905092915050565b60005b838110156116f55780820151818401526020810190506116da565b60008484015250505050565b6000601f19601f8301169050919050565b600061171d826116bb565b61172781856116c6565b93506117378185602086016116d7565b61174081611701565b840191505092915050565b600061016082019050611761600083018e61166b565b61176e602083018d6116ac565b8181036040830152611780818c611712565b90508181036060830152611794818b611712565b90506117a3608083018a6116ac565b81810360a08301526117b58189611712565b905081810360c08301526117c98188611712565b905081810360e08301526117dd8187611712565b90506117ed61010083018661166b565b8181036101208301526118008185611712565b90508181036101408301526118158184611712565b90509c9b505050505050505050505050565b6118308161169a565b811461183b57600080fd5b50565b60008135905061184d81611827565b92915050565b600060208284031215611869576118686115fe565b5b60006118778482850161183e565b91505092915050565b600081519050919050565b600082825260208201905092915050565b6000819050602082019050919050565b6118b581611608565b82525050565b6118c48161169a565b82525050565b600082825260208201905092915050565b60006118e6826116bb565b6118f081856118ca565b93506119008185602086016116d7565b61190981611701565b840191505092915050565b60006101608301600083015161192d60008601826118ac565b50602083015161194060208601826118bb565b506040830151848203604086015261195882826118db565b9150506060830151848203606086015261197282826118db565b915050608083015161198760808601826118bb565b5060a083015184820360a086015261199f82826118db565b91505060c083015184820360c08601526119b982826118db565b91505060e083015184820360e08601526119d382826118db565b9150506101008301516119ea6101008601826118ac565b50610120830151848203610120860152611a0482826118db565b915050610140830151848203610140860152611a2082826118db565b9150508091505092915050565b6000611a398383611914565b905092915050565b6000602082019050919050565b6000611a5982611880565b611a63818561188b565b935083602082028501611a758561189c565b8060005b85811015611ab15784840389528151611a928582611a2d565b9450611a9d83611a41565b925060208a01995050600181019050611a79565b50829750879550505050505092915050565b60006020820190508181036000830152611add8184611a4e565b905092915050565b600080fd5b600080fd5b7f4e487b7100000000000000000000000000000000000000000000000000000000600052604160045260246000fd5b611b2782611701565b810181811067ffffffffffffffff82111715611b4657611b45611aef565b5b80604052505050565b6000611b596115f4565b9050611b658282611b1e565b919050565b600067ffffffffffffffff821115611b8557611b84611aef565b5b611b8e82611701565b9050602081019050919050565b82818337600083830152505050565b6000611bbd611bb884611b6a565b611b4f565b905082815260208101848484011115611bd957611bd8611aea565b5b611be4848285611b9b565b509392505050565b600082601f830112611c0157611c00611ae5565b5b8135611c11848260208601611baa565b91505092915050565b600080600080600080600080610100898b031215611c3b57611c3a6115fe565b5b6000611c498b828c0161183e565b985050602089013567ffffffffffffffff811115611c6a57611c69611603565b5b611c768b828c01611bec565b975050604089013567ffffffffffffffff811115611c9757611c96611603565b5b611ca38b828c01611bec565b9650506060611cb48b828c0161183e565b955050608089013567ffffffffffffffff811115611cd557611cd4611603565b5b611ce18b828c01611bec565b94505060a089013567ffffffffffffffff811115611d0257611d01611603565b5b611d0e8b828c01611bec565b93505060c089013567ffffffffffffffff811115611d2f57611d2e611603565b5b611d3b8b828c01611bec565b92505060e0611d4c8b828c01611629565b9150509295985092959890939650565b6000602082019050611d71600083018461166b565b92915050565b600080600060608486031215611d9057611d8f6115fe565b5b6000611d9e86828701611629565b935050602084013567ffffffffffffffff811115611dbf57611dbe611603565b5b611dcb86828701611bec565b925050604084013567ffffffffffffffff811115611dec57611deb611603565b5b611df886828701611bec565b9150509250925092565b7f4e487b7100000000000000000000000000000000000000000000000000000000600052602260045260246000fd5b60006002820490506001821680611e4957607f821691505b602082108103611e5c57611e5b611e02565b5b50919050565b7f4e487b7100000000000000000000000000000000000000000000000000000000600052601160045260246000fd5b6000611e9c82611608565b91507fffffffffffffffffffffffffffffffffffffffffffffffffffffffffffffffff8203611ece57611ecd611e62565b5b600182019050919050565b7f4e487b7100000000000000000000000000000000000000000000000000000000600052603260045260246000fd5b60008190508160005260206000209050919050565b60006020601f8301049050919050565b600082821b905092915050565b600060088302611f6a7fffffffffffffffffffffffffffffffffffffffffffffffffffffffffffffffff82611f2d565b611f748683611f2d565b95508019841693508086168417925050509392505050565b6000819050919050565b6000611fb1611fac611fa784611608565b611f8c565b611608565b9050919050565b6000819050919050565b611fcb83611f96565b611fdf611fd782611fb8565b848454611f3a565b825550505050565b600090565b611ff4611fe7565b611fff818484611fc2565b505050565b5b8181101561202357612018600082611fec565b600181019050612005565b5050565b601f8211156120685761203981611f08565b61204284611f1d565b81016020851015612051578190505b61206561205d85611f1d565b830182612004565b50505b505050565b600082821c905092915050565b600061208b6000198460080261206d565b1980831691505092915050565b60006120a4838361207a565b9150826002028217905092915050565b6120bd826116bb565b67ffffffffffffffff8111156120d6576120d5611aef565b5b6120e08254611e31565b6120eb828285612027565b600060209050601f83116001811461211e576000841561210c578287015190505b6121168582612098565b86555061217e565b601f19841661212c86611f08565b60005b828110156121545784890151825560018201915060208501945060208101905061212f565b86831015612171578489015161216d601f89168261207a565b8355505b6001600288020188555050505b505050505050565b7f4f6e6c7920746865206d616e7566616374757265722063616e2075706461746560008201527f20746865206f726465722073746174757320616e64206163636570742064617460208201527f652074696d652e00000000000000000000000000000000000000000000000000604082015250565b60006122086047836116c6565b915061221382612186565b606082019050919050565b60006020820190508181036000830152612237816121fb565b905091905056fea2646970667358221220ea04096ff63056441b1af6a5dc67d5e011d9c82b634f32a8a01d61c0103a1f0564736f6c63430008120033",
  "immutableReferences": {},
  "source": "// SPDX-License-Identifier: MIT\r\npragma solidity ^0.8.0;\r\n\r\ncontract Distributor {\r\n    struct orderMedicine {\r\n        uint orderID;\r\n        address distributorAddress;\r\n        string distributorLocation;\r\n        string distributorName;\r\n        address manufacturerAddress;\r\n        string manufacturerName;\r\n        string orderDetails;\r\n        string orderDateTime;\r\n        uint totalPrice;\r\n        string orderStatus;\r\n        string orderAcceptDateTime;\r\n    }\r\n\r\n    mapping(uint => orderMedicine) public orderMedicines;\r\n    uint public orderCounter = 1;\r\n\r\n    function placeMedicineOrder(\r\n        address _distributorAddress,\r\n        string memory _distributorLocation,\r\n        string memory _distributorName,\r\n        address _manufacturerAddress,\r\n        string memory _manufacturerName,\r\n        string memory _orderDetails,\r\n        string memory _orderDateTime,\r\n        uint _totalPrice\r\n        ) public {\r\n        orderMedicine storage order = orderMedicines[orderCounter];\r\n        order.orderID = orderCounter;\r\n        order.distributorAddress = _distributorAddress;\r\n        order.distributorLocation = _distributorLocation;\r\n        order.distributorName = _distributorName;\r\n        order.manufacturerAddress = _manufacturerAddress;\r\n        order.manufacturerName = _manufacturerName;\r\n        order.orderDetails = _orderDetails;\r\n        order.orderDateTime = _orderDateTime;\r\n        order.totalPrice = _totalPrice;\r\n        order.orderStatus = \"Pending\";\r\n        order.orderAcceptDateTime = \"null\";\r\n        orderCounter++;\r\n    }\r\n\r\n    function acceptMedicineOrder(uint _orderID, string memory _orderStatus, string memory _orderAcceptDateTime) public {\r\n        orderMedicine storage order = orderMedicines[_orderID];\r\n        \r\n        // Check if the caller is the manufacturer\r\n        require(order.manufacturerAddress == msg.sender, \"Only the manufacturer can update the order status and accept date time.\");\r\n        \r\n        // Update the order status and accept date time\r\n        order.orderStatus = _orderStatus;\r\n        order.orderAcceptDateTime = _orderAcceptDateTime;\r\n    }\r\n\r\n    function getManufacturerAllOrder(address _manufacturerAddress) public view returns (orderMedicine[] memory) {\r\n        uint orderCount = 0;\r\n        \r\n        // Get the total number of orders placed by the manufacturer\r\n        for (uint i = 1; i < orderCounter; i++) {\r\n            if (orderMedicines[i].manufacturerAddress == _manufacturerAddress) {\r\n                orderCount++;\r\n            }\r\n        }\r\n        \r\n        // Create a new array to hold all the orders placed by the manufacturer\r\n        orderMedicine[] memory manufacturerOrders = new orderMedicine[](orderCount);\r\n        uint index = 0;\r\n        \r\n        // Loop through all the orders and add the ones placed by the manufacturer to the array\r\n        for (uint i = 1; i < orderCounter; i++) {\r\n            if (orderMedicines[i].manufacturerAddress == _manufacturerAddress) {\r\n                manufacturerOrders[index] = orderMedicines[i];\r\n                index++;\r\n            }\r\n        }\r\n        \r\n        return manufacturerOrders;\r\n    }\r\n\r\n    function getDistributorAllOrder(address _distributorAddress) public view returns (orderMedicine[] memory) {\r\n        uint orderCount = 0;\r\n        \r\n        // Get the total number of orders placed by the distributor\r\n        for (uint i = 1; i <= orderCounter; i++) {\r\n            if (orderMedicines[i].distributorAddress == _distributorAddress) {\r\n                orderCount++;\r\n            }\r\n        }\r\n        \r\n        // Create a new array to hold all the orders placed by the distributor\r\n        orderMedicine[] memory distributorOrders = new orderMedicine[](orderCount);\r\n        uint index = 0;\r\n        \r\n        // Loop through all the orders and add the ones placed by the distributor to the array\r\n        for (uint i = 1; i <= orderCounter; i++) {\r\n            if (orderMedicines[i].distributorAddress == _distributorAddress) {\r\n                distributorOrders[index] = orderMedicines[i];\r\n                index++;\r\n            }\r\n        }\r\n        \r\n        return distributorOrders;\r\n    }\r\n}",
  "sourcePath": "E:\\Solidity\\mscm\\blockchain\\contracts\\Distributor.sol",
  "compiler": {
    "name": "solc",
    "version": "0.8.18+commit.87f61d96.Emscripten.clang"
  },
  "schemaVersion": "3.4.13",
  "updatedAt": "2023-05-13T17:55:15.023Z",
  "devdoc": {
    "kind": "dev",
    "methods": {},
    "version": 1
  },
  "userdoc": {
    "kind": "user",
    "methods": {},
    "version": 1
  }
}