{
  "contractName": "MedicineContract",
  "abi": [
    {
      "anonymous": false,
      "inputs": [
        {
          "indexed": false,
          "internalType": "uint256",
          "name": "medicineID",
          "type": "uint256"
        }
      ],
      "name": "MedicineAdded",
      "type": "event"
    },
    {
      "inputs": [
        {
          "internalType": "uint256",
          "name": "",
          "type": "uint256"
        }
      ],
      "name": "manufacturerInventory",
      "outputs": [
        {
          "internalType": "uint256",
          "name": "medicineID",
          "type": "uint256"
        },
        {
          "internalType": "string",
          "name": "medicineName",
          "type": "string"
        },
        {
          "internalType": "string",
          "name": "medicineFormula",
          "type": "string"
        },
        {
          "internalType": "string",
          "name": "medicineDescription",
          "type": "string"
        },
        {
          "internalType": "uint256",
          "name": "quantity",
          "type": "uint256"
        },
        {
          "internalType": "uint256",
          "name": "price",
          "type": "uint256"
        },
        {
          "internalType": "string",
          "name": "manufacturerData",
          "type": "string"
        },
        {
          "internalType": "string",
          "name": "expiryDate",
          "type": "string"
        },
        {
          "internalType": "string",
          "name": "status",
          "type": "string"
        },
        {
          "internalType": "address",
          "name": "manufacturer",
          "type": "address"
        }
      ],
      "stateMutability": "view",
      "type": "function"
    },
    {
      "inputs": [],
      "name": "medicineCount",
      "outputs": [
        {
          "internalType": "uint256",
          "name": "",
          "type": "uint256"
        }
      ],
      "stateMutability": "view",
      "type": "function"
    },
    {
      "inputs": [],
      "name": "medicineCounter",
      "outputs": [
        {
          "internalType": "uint256",
          "name": "",
          "type": "uint256"
        }
      ],
      "stateMutability": "view",
      "type": "function"
    },
    {
      "inputs": [
        {
          "internalType": "uint256",
          "name": "",
          "type": "uint256"
        }
      ],
      "name": "medicineList",
      "outputs": [
        {
          "internalType": "string",
          "name": "",
          "type": "string"
        }
      ],
      "stateMutability": "view",
      "type": "function"
    },
    {
      "inputs": [
        {
          "internalType": "string",
          "name": "",
          "type": "string"
        }
      ],
      "name": "medicines",
      "outputs": [
        {
          "internalType": "uint256",
          "name": "medicineID",
          "type": "uint256"
        },
        {
          "internalType": "string",
          "name": "uniqueIdentifier",
          "type": "string"
        },
        {
          "internalType": "string",
          "name": "medicineName",
          "type": "string"
        },
        {
          "internalType": "string",
          "name": "medicineFormula",
          "type": "string"
        },
        {
          "internalType": "string",
          "name": "medicineDescription",
          "type": "string"
        },
        {
          "internalType": "uint256",
          "name": "price",
          "type": "uint256"
        },
        {
          "internalType": "string",
          "name": "manufacturerDate",
          "type": "string"
        },
        {
          "internalType": "string",
          "name": "expiryDate",
          "type": "string"
        },
        {
          "internalType": "string",
          "name": "orderDate",
          "type": "string"
        },
        {
          "internalType": "address",
          "name": "distributorAddress",
          "type": "address"
        },
        {
          "internalType": "string",
          "name": "status",
          "type": "string"
        },
        {
          "internalType": "address",
          "name": "manufacturerAddress",
          "type": "address"
        }
      ],
      "stateMutability": "view",
      "type": "function"
    },
    {
      "inputs": [
        {
          "internalType": "string",
          "name": "_medicineName",
          "type": "string"
        },
        {
          "internalType": "string",
          "name": "_medicineFormula",
          "type": "string"
        },
        {
          "internalType": "string",
          "name": "_medicineDescription",
          "type": "string"
        },
        {
          "internalType": "uint256",
          "name": "_quantity",
          "type": "uint256"
        },
        {
          "internalType": "uint256",
          "name": "_price",
          "type": "uint256"
        },
        {
          "internalType": "string",
          "name": "_manufacturerData",
          "type": "string"
        },
        {
          "internalType": "string",
          "name": "_expiryDate",
          "type": "string"
        },
        {
          "internalType": "string",
          "name": "_status",
          "type": "string"
        }
      ],
      "name": "addMedicineInventory",
      "outputs": [],
      "stateMutability": "nonpayable",
      "type": "function"
    },
    {
      "inputs": [],
      "name": "getInventoryCounter",
      "outputs": [
        {
          "internalType": "uint256",
          "name": "count",
          "type": "uint256"
        }
      ],
      "stateMutability": "view",
      "type": "function"
    },
    {
      "inputs": [
        {
          "internalType": "uint256",
          "name": "_medicineID",
          "type": "uint256"
        },
        {
          "internalType": "string",
          "name": "_medicineName",
          "type": "string"
        },
        {
          "internalType": "string",
          "name": "_medicineFormula",
          "type": "string"
        },
        {
          "internalType": "string",
          "name": "_medicineDescription",
          "type": "string"
        },
        {
          "internalType": "uint256",
          "name": "_quantity",
          "type": "uint256"
        },
        {
          "internalType": "uint256",
          "name": "_price",
          "type": "uint256"
        },
        {
          "internalType": "string",
          "name": "_manufacturerData",
          "type": "string"
        },
        {
          "internalType": "string",
          "name": "_expiryDate",
          "type": "string"
        },
        {
          "internalType": "string",
          "name": "_status",
          "type": "string"
        }
      ],
      "name": "updateMedicineInventory",
      "outputs": [],
      "stateMutability": "nonpayable",
      "type": "function"
    },
    {
      "inputs": [
        {
          "internalType": "address",
          "name": "manufacturerAddress",
          "type": "address"
        }
      ],
      "name": "getAllMedicineInventory",
      "outputs": [
        {
          "components": [
            {
              "internalType": "uint256",
              "name": "medicineID",
              "type": "uint256"
            },
            {
              "internalType": "string",
              "name": "medicineName",
              "type": "string"
            },
            {
              "internalType": "string",
              "name": "medicineFormula",
              "type": "string"
            },
            {
              "internalType": "string",
              "name": "medicineDescription",
              "type": "string"
            },
            {
              "internalType": "uint256",
              "name": "quantity",
              "type": "uint256"
            },
            {
              "internalType": "uint256",
              "name": "price",
              "type": "uint256"
            },
            {
              "internalType": "string",
              "name": "manufacturerData",
              "type": "string"
            },
            {
              "internalType": "string",
              "name": "expiryDate",
              "type": "string"
            },
            {
              "internalType": "string",
              "name": "status",
              "type": "string"
            },
            {
              "internalType": "address",
              "name": "manufacturer",
              "type": "address"
            }
          ],
          "internalType": "struct MedicineContract.MedicineInventory[]",
          "name": "",
          "type": "tuple[]"
        }
      ],
      "stateMutability": "view",
      "type": "function"
    },
    {
      "inputs": [
        {
          "components": [
            {
              "internalType": "uint256",
              "name": "medicineID",
              "type": "uint256"
            },
            {
              "internalType": "string",
              "name": "uniqueIdentifier",
              "type": "string"
            },
            {
              "internalType": "string",
              "name": "medicineName",
              "type": "string"
            },
            {
              "internalType": "string",
              "name": "medicineFormula",
              "type": "string"
            },
            {
              "internalType": "string",
              "name": "medicineDescription",
              "type": "string"
            },
            {
              "internalType": "uint256",
              "name": "price",
              "type": "uint256"
            },
            {
              "internalType": "string",
              "name": "manufacturerDate",
              "type": "string"
            },
            {
              "internalType": "string",
              "name": "expiryDate",
              "type": "string"
            },
            {
              "internalType": "string",
              "name": "orderDate",
              "type": "string"
            },
            {
              "internalType": "address",
              "name": "distributorAddress",
              "type": "address"
            },
            {
              "internalType": "string",
              "name": "status",
              "type": "string"
            },
            {
              "internalType": "address",
              "name": "manufacturerAddress",
              "type": "address"
            }
          ],
          "internalType": "struct MedicineContract.Medicine[]",
          "name": "_medicines",
          "type": "tuple[]"
        }
      ],
      "name": "addMedicine",
      "outputs": [],
      "stateMutability": "nonpayable",
      "type": "function"
    },
    {
      "inputs": [],
      "name": "getMedicineCount",
      "outputs": [
        {
          "internalType": "uint256",
          "name": "",
          "type": "uint256"
        }
      ],
      "stateMutability": "view",
      "type": "function"
    },
    {
      "inputs": [
        {
          "internalType": "uint256",
          "name": "_medicineID",
          "type": "uint256"
        }
      ],
      "name": "getMedicinesByID",
      "outputs": [
        {
          "components": [
            {
              "internalType": "uint256",
              "name": "medicineID",
              "type": "uint256"
            },
            {
              "internalType": "string",
              "name": "uniqueIdentifier",
              "type": "string"
            },
            {
              "internalType": "string",
              "name": "medicineName",
              "type": "string"
            },
            {
              "internalType": "string",
              "name": "medicineFormula",
              "type": "string"
            },
            {
              "internalType": "string",
              "name": "medicineDescription",
              "type": "string"
            },
            {
              "internalType": "uint256",
              "name": "price",
              "type": "uint256"
            },
            {
              "internalType": "string",
              "name": "manufacturerDate",
              "type": "string"
            },
            {
              "internalType": "string",
              "name": "expiryDate",
              "type": "string"
            },
            {
              "internalType": "string",
              "name": "orderDate",
              "type": "string"
            },
            {
              "internalType": "address",
              "name": "distributorAddress",
              "type": "address"
            },
            {
              "internalType": "string",
              "name": "status",
              "type": "string"
            },
            {
              "internalType": "address",
              "name": "manufacturerAddress",
              "type": "address"
            }
          ],
          "internalType": "struct MedicineContract.Medicine[]",
          "name": "",
          "type": "tuple[]"
        }
      ],
      "stateMutability": "view",
      "type": "function"
    },
    {
      "inputs": [
        {
          "internalType": "string",
          "name": "_uniqueIdentifier",
          "type": "string"
        }
      ],
      "name": "findMedicine",
      "outputs": [
        {
          "components": [
            {
              "internalType": "uint256",
              "name": "medicineID",
              "type": "uint256"
            },
            {
              "internalType": "string",
              "name": "uniqueIdentifier",
              "type": "string"
            },
            {
              "internalType": "string",
              "name": "medicineName",
              "type": "string"
            },
            {
              "internalType": "string",
              "name": "medicineFormula",
              "type": "string"
            },
            {
              "internalType": "string",
              "name": "medicineDescription",
              "type": "string"
            },
            {
              "internalType": "uint256",
              "name": "price",
              "type": "uint256"
            },
            {
              "internalType": "string",
              "name": "manufacturerDate",
              "type": "string"
            },
            {
              "internalType": "string",
              "name": "expiryDate",
              "type": "string"
            },
            {
              "internalType": "string",
              "name": "orderDate",
              "type": "string"
            },
            {
              "internalType": "address",
              "name": "distributorAddress",
              "type": "address"
            },
            {
              "internalType": "string",
              "name": "status",
              "type": "string"
            },
            {
              "internalType": "address",
              "name": "manufacturerAddress",
              "type": "address"
            }
          ],
          "internalType": "struct MedicineContract.Medicine",
          "name": "",
          "type": "tuple"
        }
      ],
      "stateMutability": "view",
      "type": "function"
    },
    {
      "inputs": [
        {
          "components": [
            {
              "internalType": "uint256",
              "name": "medicineID",
              "type": "uint256"
            },
            {
              "internalType": "string",
              "name": "uniqueIdentifier",
              "type": "string"
            },
            {
              "internalType": "string",
              "name": "medicineName",
              "type": "string"
            },
            {
              "internalType": "string",
              "name": "medicineFormula",
              "type": "string"
            },
            {
              "internalType": "string",
              "name": "medicineDescription",
              "type": "string"
            },
            {
              "internalType": "uint256",
              "name": "price",
              "type": "uint256"
            },
            {
              "internalType": "string",
              "name": "manufacturerDate",
              "type": "string"
            },
            {
              "internalType": "string",
              "name": "expiryDate",
              "type": "string"
            },
            {
              "internalType": "string",
              "name": "orderDate",
              "type": "string"
            },
            {
              "internalType": "address",
              "name": "distributorAddress",
              "type": "address"
            },
            {
              "internalType": "string",
              "name": "status",
              "type": "string"
            },
            {
              "internalType": "address",
              "name": "manufacturerAddress",
              "type": "address"
            }
          ],
          "internalType": "struct MedicineContract.Medicine[]",
          "name": "_medicines",
          "type": "tuple[]"
        }
      ],
      "name": "UpdateMedicine",
      "outputs": [],
      "stateMutability": "nonpayable",
      "type": "function"
    },
    {
      "inputs": [
        {
          "internalType": "string",
          "name": "_uniqueIdentifier",
          "type": "string"
        }
      ],
      "name": "deleteMedicine",
      "outputs": [],
      "stateMutability": "nonpayable",
      "type": "function"
    },
    {
      "inputs": [
        {
          "internalType": "address",
          "name": "_distributorAddress",
          "type": "address"
        }
      ],
      "name": "getAllDistributorMedicine",
      "outputs": [
        {
          "components": [
            {
              "internalType": "uint256",
              "name": "medicineID",
              "type": "uint256"
            },
            {
              "internalType": "string",
              "name": "uniqueIdentifier",
              "type": "string"
            },
            {
              "internalType": "string",
              "name": "medicineName",
              "type": "string"
            },
            {
              "internalType": "string",
              "name": "medicineFormula",
              "type": "string"
            },
            {
              "internalType": "string",
              "name": "medicineDescription",
              "type": "string"
            },
            {
              "internalType": "uint256",
              "name": "price",
              "type": "uint256"
            },
            {
              "internalType": "string",
              "name": "manufacturerDate",
              "type": "string"
            },
            {
              "internalType": "string",
              "name": "expiryDate",
              "type": "string"
            },
            {
              "internalType": "string",
              "name": "orderDate",
              "type": "string"
            },
            {
              "internalType": "address",
              "name": "distributorAddress",
              "type": "address"
            },
            {
              "internalType": "string",
              "name": "status",
              "type": "string"
            },
            {
              "internalType": "address",
              "name": "manufacturerAddress",
              "type": "address"
            }
          ],
          "internalType": "struct MedicineContract.Medicine[]",
          "name": "",
          "type": "tuple[]"
        }
      ],
      "stateMutability": "view",
      "type": "function"
    }
  ],
  "bytecode": "0x608060405234801561001057600080fd5b50614a98806100206000396000f3fe608060405234801561001057600080fd5b50600436106101005760003560e01c80639ad9f0ba11610097578063dc2a79af11610066578063dc2a79af146102d3578063e9e608eb14610303578063eadeb84c14610333578063f64436231461035157610100565b80639ad9f0ba1461024b578063ac859a4b14610267578063c366271314610285578063d744cd33146102b557610100565b80634dafd490116100d35780634dafd490146101a857806362e9f4a2146101c65780637762856e146101e257806380ce065f1461021b57610100565b806319372eb61461010557806321b9da99146101355780633a1d6f05146101705780634875dfdd1461018c575b600080fd5b61011f600480360381019061011a91906132df565b61036d565b60405161012c9190613583565b60405180910390f35b61014f600480360381019061014a91906136da565b610926565b6040516101679c9b9a9998979695949392919061378b565b60405180910390f35b61018a60048036038101906101859190613b9b565b610e1c565b005b6101a660048036038101906101a19190613b9b565b61105a565b005b6101b0611274565b6040516101bd9190613be4565b60405180910390f35b6101e060048036038101906101db91906136da565b61127a565b005b6101fc60048036038101906101f79190613bff565b61151b565b6040516102129a99989796959493929190613c2c565b60405180910390f35b610235600480360381019061023091906132df565b6118bf565b6040516102429190613ee9565b60405180910390f35b61026560048036038101906102609190613f0b565b61201d565b005b61026f6121d8565b60405161027c9190613be4565b60405180910390f35b61029f600480360381019061029a9190613bff565b6121de565b6040516102ac9190613ee9565b60405180910390f35b6102bd6128d0565b6040516102ca9190613be4565b60405180910390f35b6102ed60048036038101906102e891906136da565b6128da565b6040516102fa919061419e565b60405180910390f35b61031d60048036038101906103189190613bff565b612eb0565b60405161032a91906141c0565b60405180910390f35b61033b612f5c565b6040516103489190613be4565b60405180910390f35b61036b600480360381019061036691906141e2565b612f66565b005b6060600080600190505b600154811161040a578373ffffffffffffffffffffffffffffffffffffffff1660008083815260200190815260200160002060090160009054906101000a900473ffffffffffffffffffffffffffffffffffffffff1673ffffffffffffffffffffffffffffffffffffffff16036103f75781806103f390614383565b9250505b808061040290614383565b915050610377565b5060008167ffffffffffffffff811115610427576104266135af565b5b60405190808252806020026020018201604052801561046057816020015b61044d61311a565b8152602001906001900390816104455790505b509050600080600190505b600154811161091a578573ffffffffffffffffffffffffffffffffffffffff1660008083815260200190815260200160002060090160009054906101000a900473ffffffffffffffffffffffffffffffffffffffff1673ffffffffffffffffffffffffffffffffffffffff1603610907576000808281526020019081526020016000206040518061014001604052908160008201548152602001600182018054610514906143fa565b80601f0160208091040260200160405190810160405280929190818152602001828054610540906143fa565b801561058d5780601f106105625761010080835404028352916020019161058d565b820191906000526020600020905b81548152906001019060200180831161057057829003601f168201915b505050505081526020016002820180546105a6906143fa565b80601f01602080910402602001604051908101604052809291908181526020018280546105d2906143fa565b801561061f5780601f106105f45761010080835404028352916020019161061f565b820191906000526020600020905b81548152906001019060200180831161060257829003601f168201915b50505050508152602001600382018054610638906143fa565b80601f0160208091040260200160405190810160405280929190818152602001828054610664906143fa565b80156106b15780601f10610686576101008083540402835291602001916106b1565b820191906000526020600020905b81548152906001019060200180831161069457829003601f168201915b5050505050815260200160048201548152602001600582015481526020016006820180546106de906143fa565b80601f016020809104026020016040519081016040528092919081815260200182805461070a906143fa565b80156107575780601f1061072c57610100808354040283529160200191610757565b820191906000526020600020905b81548152906001019060200180831161073a57829003601f168201915b50505050508152602001600782018054610770906143fa565b80601f016020809104026020016040519081016040528092919081815260200182805461079c906143fa565b80156107e95780601f106107be576101008083540402835291602001916107e9565b820191906000526020600020905b8154815290600101906020018083116107cc57829003601f168201915b50505050508152602001600882018054610802906143fa565b80601f016020809104026020016040519081016040528092919081815260200182805461082e906143fa565b801561087b5780601f106108505761010080835404028352916020019161087b565b820191906000526020600020905b81548152906001019060200180831161085e57829003601f168201915b505050505081526020016009820160009054906101000a900473ffffffffffffffffffffffffffffffffffffffff1673ffffffffffffffffffffffffffffffffffffffff1673ffffffffffffffffffffffffffffffffffffffff16815250508383815181106108ed576108ec61442b565b5b6020026020010181905250818061090390614383565b9250505b808061091290614383565b91505061046b565b50819350505050919050565b600281805160208101820180518482526020830160208501208183528095505050505050600091509050806000015490806001018054610965906143fa565b80601f0160208091040260200160405190810160405280929190818152602001828054610991906143fa565b80156109de5780601f106109b3576101008083540402835291602001916109de565b820191906000526020600020905b8154815290600101906020018083116109c157829003601f168201915b5050505050908060020180546109f3906143fa565b80601f0160208091040260200160405190810160405280929190818152602001828054610a1f906143fa565b8015610a6c5780601f10610a4157610100808354040283529160200191610a6c565b820191906000526020600020905b815481529060010190602001808311610a4f57829003601f168201915b505050505090806003018054610a81906143fa565b80601f0160208091040260200160405190810160405280929190818152602001828054610aad906143fa565b8015610afa5780601f10610acf57610100808354040283529160200191610afa565b820191906000526020600020905b815481529060010190602001808311610add57829003601f168201915b505050505090806004018054610b0f906143fa565b80601f0160208091040260200160405190810160405280929190818152602001828054610b3b906143fa565b8015610b885780601f10610b5d57610100808354040283529160200191610b88565b820191906000526020600020905b815481529060010190602001808311610b6b57829003601f168201915b505050505090806005015490806006018054610ba3906143fa565b80601f0160208091040260200160405190810160405280929190818152602001828054610bcf906143fa565b8015610c1c5780601f10610bf157610100808354040283529160200191610c1c565b820191906000526020600020905b815481529060010190602001808311610bff57829003601f168201915b505050505090806007018054610c31906143fa565b80601f0160208091040260200160405190810160405280929190818152602001828054610c5d906143fa565b8015610caa5780601f10610c7f57610100808354040283529160200191610caa565b820191906000526020600020905b815481529060010190602001808311610c8d57829003601f168201915b505050505090806008018054610cbf906143fa565b80601f0160208091040260200160405190810160405280929190818152602001828054610ceb906143fa565b8015610d385780601f10610d0d57610100808354040283529160200191610d38565b820191906000526020600020905b815481529060010190602001808311610d1b57829003601f168201915b5050505050908060090160009054906101000a900473ffffffffffffffffffffffffffffffffffffffff169080600a018054610d73906143fa565b80601f0160208091040260200160405190810160405280929190818152602001828054610d9f906143fa565b8015610dec5780601f10610dc157610100808354040283529160200191610dec565b820191906000526020600020905b815481529060010190602001808311610dcf57829003601f168201915b50505050509080600b0160009054906101000a900473ffffffffffffffffffffffffffffffffffffffff1690508c565b60005b815181101561105657818181518110610e3b57610e3a61442b565b5b60200260200101516002838381518110610e5857610e5761442b565b5b602002602001015160200151604051610e719190614496565b9081526020016040518091039020600082015181600001556020820151816001019081610e9e9190614659565b506040820151816002019081610eb49190614659565b506060820151816003019081610eca9190614659565b506080820151816004019081610ee09190614659565b5060a0820151816005015560c0820151816006019081610f009190614659565b5060e0820151816007019081610f169190614659565b50610100820151816008019081610f2d9190614659565b506101208201518160090160006101000a81548173ffffffffffffffffffffffffffffffffffffffff021916908373ffffffffffffffffffffffffffffffffffffffff16021790555061014082015181600a019081610f8c9190614659565b5061016082015181600b0160006101000a81548173ffffffffffffffffffffffffffffffffffffffff021916908373ffffffffffffffffffffffffffffffffffffffff1602179055509050506003828281518110610fed57610fec61442b565b5b60200260200101516020015190806001815401808255809150506001900390600052602060002001600090919091909150908161102a9190614659565b506004600081548092919061103e90614383565b9190505550808061104e90614383565b915050610e1f565b5050565b60005b8151811015611270576000600283838151811061107d5761107c61442b565b5b6020026020010151602001516040516110969190614496565b908152602001604051809103902060000154036110e8576040517f08c379a00000000000000000000000000000000000000000000000000000000081526004016110df90614777565b60405180910390fd5b8181815181106110fb576110fa61442b565b5b60200260200101516101000151600283838151811061111d5761111c61442b565b5b6020026020010151602001516040516111369190614496565b908152602001604051809103902060080190816111539190614659565b508181815181106111675761116661442b565b5b6020026020010151610120015160028383815181106111895761118861442b565b5b6020026020010151602001516040516111a29190614496565b908152602001604051809103902060090160006101000a81548173ffffffffffffffffffffffffffffffffffffffff021916908373ffffffffffffffffffffffffffffffffffffffff1602179055508181815181106112045761120361442b565b5b6020026020010151610140015160028383815181106112265761122561442b565b5b60200260200101516020015160405161123f9190614496565b9081526020016040518091039020600a01908161125c9190614659565b50808061126890614383565b91505061105d565b5050565b60045481565b600060028260405161128c9190614496565b908152602001604051809103902060000154036112de576040517f08c379a00000000000000000000000000000000000000000000000000000000081526004016112d590614777565b60405180910390fd5b6002816040516112ee9190614496565b90815260200160405180910390206000808201600090556001820160006113159190613183565b6002820160006113259190613183565b6003820160006113359190613183565b6004820160006113459190613183565b600582016000905560068201600061135d9190613183565b60078201600061136d9190613183565b60088201600061137d9190613183565b6009820160006101000a81549073ffffffffffffffffffffffffffffffffffffffff0219169055600a820160006113b49190613183565b600b820160006101000a81549073ffffffffffffffffffffffffffffffffffffffff0219169055505060005b6003805490508110156114ff57816040516020016113fe9190614496565b60405160208183030381529060405280519060200120600382815481106114285761142761442b565b5b90600052602060002001604051602001611442919061481a565b60405160208183030381529060405280519060200120036114ec57600360016003805490506114719190614831565b815481106114825761148161442b565b5b90600052602060002001600382815481106114a05761149f61442b565b5b9060005260206000200190816114b69190614890565b5060038054806114c9576114c8614978565b5b6001900381819060005260206000200160006114e59190613183565b90556114ff565b80806114f790614383565b9150506113e0565b5060046000815480929190611513906149a7565b919050555050565b6000602052806000526040600020600091509050806000015490806001018054611544906143fa565b80601f0160208091040260200160405190810160405280929190818152602001828054611570906143fa565b80156115bd5780601f10611592576101008083540402835291602001916115bd565b820191906000526020600020905b8154815290600101906020018083116115a057829003601f168201915b5050505050908060020180546115d2906143fa565b80601f01602080910402602001604051908101604052809291908181526020018280546115fe906143fa565b801561164b5780601f106116205761010080835404028352916020019161164b565b820191906000526020600020905b81548152906001019060200180831161162e57829003601f168201915b505050505090806003018054611660906143fa565b80601f016020809104026020016040519081016040528092919081815260200182805461168c906143fa565b80156116d95780601f106116ae576101008083540402835291602001916116d9565b820191906000526020600020905b8154815290600101906020018083116116bc57829003601f168201915b5050505050908060040154908060050154908060060180546116fa906143fa565b80601f0160208091040260200160405190810160405280929190818152602001828054611726906143fa565b80156117735780601f1061174857610100808354040283529160200191611773565b820191906000526020600020905b81548152906001019060200180831161175657829003601f168201915b505050505090806007018054611788906143fa565b80601f01602080910402602001604051908101604052809291908181526020018280546117b4906143fa565b80156118015780601f106117d657610100808354040283529160200191611801565b820191906000526020600020905b8154815290600101906020018083116117e457829003601f168201915b505050505090806008018054611816906143fa565b80601f0160208091040260200160405190810160405280929190818152602001828054611842906143fa565b801561188f5780601f106118645761010080835404028352916020019161188f565b820191906000526020600020905b81548152906001019060200180831161187257829003601f168201915b5050505050908060090160009054906101000a900473ffffffffffffffffffffffffffffffffffffffff1690508a565b6060600060045467ffffffffffffffff8111156118df576118de6135af565b5b60405190808252806020026020018201604052801561191857816020015b6119056131c3565b8152602001906001900390816118fd5790505b5090506000805b60038054905081101561200f576000600382815481106119425761194161442b565b5b906000526020600020018054611957906143fa565b80601f0160208091040260200160405190810160405280929190818152602001828054611983906143fa565b80156119d05780601f106119a5576101008083540402835291602001916119d0565b820191906000526020600020905b8154815290600101906020018083116119b357829003601f168201915b5050505050905060006002826040516119e99190614496565b90815260200160405180910390206040518061018001604052908160008201548152602001600182018054611a1d906143fa565b80601f0160208091040260200160405190810160405280929190818152602001828054611a49906143fa565b8015611a965780601f10611a6b57610100808354040283529160200191611a96565b820191906000526020600020905b815481529060010190602001808311611a7957829003601f168201915b50505050508152602001600282018054611aaf906143fa565b80601f0160208091040260200160405190810160405280929190818152602001828054611adb906143fa565b8015611b285780601f10611afd57610100808354040283529160200191611b28565b820191906000526020600020905b815481529060010190602001808311611b0b57829003601f168201915b50505050508152602001600382018054611b41906143fa565b80601f0160208091040260200160405190810160405280929190818152602001828054611b6d906143fa565b8015611bba5780601f10611b8f57610100808354040283529160200191611bba565b820191906000526020600020905b815481529060010190602001808311611b9d57829003601f168201915b50505050508152602001600482018054611bd3906143fa565b80601f0160208091040260200160405190810160405280929190818152602001828054611bff906143fa565b8015611c4c5780601f10611c2157610100808354040283529160200191611c4c565b820191906000526020600020905b815481529060010190602001808311611c2f57829003601f168201915b5050505050815260200160058201548152602001600682018054611c6f906143fa565b80601f0160208091040260200160405190810160405280929190818152602001828054611c9b906143fa565b8015611ce85780601f10611cbd57610100808354040283529160200191611ce8565b820191906000526020600020905b815481529060010190602001808311611ccb57829003601f168201915b50505050508152602001600782018054611d01906143fa565b80601f0160208091040260200160405190810160405280929190818152602001828054611d2d906143fa565b8015611d7a5780601f10611d4f57610100808354040283529160200191611d7a565b820191906000526020600020905b815481529060010190602001808311611d5d57829003601f168201915b50505050508152602001600882018054611d93906143fa565b80601f0160208091040260200160405190810160405280929190818152602001828054611dbf906143fa565b8015611e0c5780601f10611de157610100808354040283529160200191611e0c565b820191906000526020600020905b815481529060010190602001808311611def57829003601f168201915b505050505081526020016009820160009054906101000a900473ffffffffffffffffffffffffffffffffffffffff1673ffffffffffffffffffffffffffffffffffffffff1673ffffffffffffffffffffffffffffffffffffffff168152602001600a82018054611e7b906143fa565b80601f0160208091040260200160405190810160405280929190818152602001828054611ea7906143fa565b8015611ef45780601f10611ec957610100808354040283529160200191611ef4565b820191906000526020600020905b815481529060010190602001808311611ed757829003601f168201915b50505050508152602001600b820160009054906101000a900473ffffffffffffffffffffffffffffffffffffffff1673ffffffffffffffffffffffffffffffffffffffff1673ffffffffffffffffffffffffffffffffffffffff168152505090508673ffffffffffffffffffffffffffffffffffffffff1681610120015173ffffffffffffffffffffffffffffffffffffffff16148015611fc75750600073ffffffffffffffffffffffffffffffffffffffff1681610160015173ffffffffffffffffffffffffffffffffffffffff1614155b15611ffa5780858581518110611fe057611fdf61442b565b5b60200260200101819052508380611ff690614383565b9450505b5050808061200790614383565b91505061191f565b508082528192505050919050565b6001600081548092919061203090614383565b919050555060405180610140016040528060015481526020018981526020018881526020018781526020018681526020018581526020018481526020018381526020018281526020013373ffffffffffffffffffffffffffffffffffffffff1681525060008060015481526020019081526020016000206000820151816000015560208201518160010190816120c69190614659565b5060408201518160020190816120dc9190614659565b5060608201518160030190816120f29190614659565b506080820151816004015560a0820151816005015560c082015181600601908161211c9190614659565b5060e08201518160070190816121329190614659565b506101008201518160080190816121499190614659565b506101208201518160090160006101000a81548173ffffffffffffffffffffffffffffffffffffffff021916908373ffffffffffffffffffffffffffffffffffffffff1602179055509050507f511473a8b15b86f1492210a23d1ca9781536639fd7d462db4c2f736d1bd801256001546040516121c69190613be4565b60405180910390a15050505050505050565b60015481565b6060600060045467ffffffffffffffff8111156121fe576121fd6135af565b5b60405190808252806020026020018201604052801561223757816020015b6122246131c3565b81526020019060019003908161221c5790505b5090506000805b6003805490508110156128c2576000600382815481106122615761226061442b565b5b906000526020600020018054612276906143fa565b80601f01602080910402602001604051908101604052809291908181526020018280546122a2906143fa565b80156122ef5780601f106122c4576101008083540402835291602001916122ef565b820191906000526020600020905b8154815290600101906020018083116122d257829003601f168201915b5050505050905060006002826040516123089190614496565b9081526020016040518091039020604051806101800160405290816000820154815260200160018201805461233c906143fa565b80601f0160208091040260200160405190810160405280929190818152602001828054612368906143fa565b80156123b55780601f1061238a576101008083540402835291602001916123b5565b820191906000526020600020905b81548152906001019060200180831161239857829003601f168201915b505050505081526020016002820180546123ce906143fa565b80601f01602080910402602001604051908101604052809291908181526020018280546123fa906143fa565b80156124475780601f1061241c57610100808354040283529160200191612447565b820191906000526020600020905b81548152906001019060200180831161242a57829003601f168201915b50505050508152602001600382018054612460906143fa565b80601f016020809104026020016040519081016040528092919081815260200182805461248c906143fa565b80156124d95780601f106124ae576101008083540402835291602001916124d9565b820191906000526020600020905b8154815290600101906020018083116124bc57829003601f168201915b505050505081526020016004820180546124f2906143fa565b80601f016020809104026020016040519081016040528092919081815260200182805461251e906143fa565b801561256b5780601f106125405761010080835404028352916020019161256b565b820191906000526020600020905b81548152906001019060200180831161254e57829003601f168201915b505050505081526020016005820154815260200160068201805461258e906143fa565b80601f01602080910402602001604051908101604052809291908181526020018280546125ba906143fa565b80156126075780601f106125dc57610100808354040283529160200191612607565b820191906000526020600020905b8154815290600101906020018083116125ea57829003601f168201915b50505050508152602001600782018054612620906143fa565b80601f016020809104026020016040519081016040528092919081815260200182805461264c906143fa565b80156126995780601f1061266e57610100808354040283529160200191612699565b820191906000526020600020905b81548152906001019060200180831161267c57829003601f168201915b505050505081526020016008820180546126b2906143fa565b80601f01602080910402602001604051908101604052809291908181526020018280546126de906143fa565b801561272b5780601f106127005761010080835404028352916020019161272b565b820191906000526020600020905b81548152906001019060200180831161270e57829003601f168201915b505050505081526020016009820160009054906101000a900473ffffffffffffffffffffffffffffffffffffffff1673ffffffffffffffffffffffffffffffffffffffff1673ffffffffffffffffffffffffffffffffffffffff168152602001600a8201805461279a906143fa565b80601f01602080910402602001604051908101604052809291908181526020018280546127c6906143fa565b80156128135780601f106127e857610100808354040283529160200191612813565b820191906000526020600020905b8154815290600101906020018083116127f657829003601f168201915b50505050508152602001600b820160009054906101000a900473ffffffffffffffffffffffffffffffffffffffff1673ffffffffffffffffffffffffffffffffffffffff1673ffffffffffffffffffffffffffffffffffffffff16815250509050868160000151036128ad57808585815181106128935761289261442b565b5b602002602001018190525083806128a990614383565b9450505b505080806128ba90614383565b91505061223e565b508082528192505050919050565b6000600154905090565b6128e26131c3565b60006002836040516128f49190614496565b90815260200160405180910390206040518061018001604052908160008201548152602001600182018054612928906143fa565b80601f0160208091040260200160405190810160405280929190818152602001828054612954906143fa565b80156129a15780601f10612976576101008083540402835291602001916129a1565b820191906000526020600020905b81548152906001019060200180831161298457829003601f168201915b505050505081526020016002820180546129ba906143fa565b80601f01602080910402602001604051908101604052809291908181526020018280546129e6906143fa565b8015612a335780601f10612a0857610100808354040283529160200191612a33565b820191906000526020600020905b815481529060010190602001808311612a1657829003601f168201915b50505050508152602001600382018054612a4c906143fa565b80601f0160208091040260200160405190810160405280929190818152602001828054612a78906143fa565b8015612ac55780601f10612a9a57610100808354040283529160200191612ac5565b820191906000526020600020905b815481529060010190602001808311612aa857829003601f168201915b50505050508152602001600482018054612ade906143fa565b80601f0160208091040260200160405190810160405280929190818152602001828054612b0a906143fa565b8015612b575780601f10612b2c57610100808354040283529160200191612b57565b820191906000526020600020905b815481529060010190602001808311612b3a57829003601f168201915b5050505050815260200160058201548152602001600682018054612b7a906143fa565b80601f0160208091040260200160405190810160405280929190818152602001828054612ba6906143fa565b8015612bf35780601f10612bc857610100808354040283529160200191612bf3565b820191906000526020600020905b815481529060010190602001808311612bd657829003601f168201915b50505050508152602001600782018054612c0c906143fa565b80601f0160208091040260200160405190810160405280929190818152602001828054612c38906143fa565b8015612c855780601f10612c5a57610100808354040283529160200191612c85565b820191906000526020600020905b815481529060010190602001808311612c6857829003601f168201915b50505050508152602001600882018054612c9e906143fa565b80601f0160208091040260200160405190810160405280929190818152602001828054612cca906143fa565b8015612d175780601f10612cec57610100808354040283529160200191612d17565b820191906000526020600020905b815481529060010190602001808311612cfa57829003601f168201915b505050505081526020016009820160009054906101000a900473ffffffffffffffffffffffffffffffffffffffff1673ffffffffffffffffffffffffffffffffffffffff1673ffffffffffffffffffffffffffffffffffffffff168152602001600a82018054612d86906143fa565b80601f0160208091040260200160405190810160405280929190818152602001828054612db2906143fa565b8015612dff5780601f10612dd457610100808354040283529160200191612dff565b820191906000526020600020905b815481529060010190602001808311612de257829003601f168201915b50505050508152602001600b820160009054906101000a900473ffffffffffffffffffffffffffffffffffffffff1673ffffffffffffffffffffffffffffffffffffffff1673ffffffffffffffffffffffffffffffffffffffff168152505090506000816000015103612ea7576040517f08c379a0000000000000000000000000000000000000000000000000000000008152600401612e9e90614777565b60405180910390fd5b80915050919050565b60038181548110612ec057600080fd5b906000526020600020016000915090508054612edb906143fa565b80601f0160208091040260200160405190810160405280929190818152602001828054612f07906143fa565b8015612f545780601f10612f2957610100808354040283529160200191612f54565b820191906000526020600020905b815481529060010190602001808311612f3757829003601f168201915b505050505081565b6000600454905090565b6000808a815260200190815260200160002060090160009054906101000a900473ffffffffffffffffffffffffffffffffffffffff1673ffffffffffffffffffffffffffffffffffffffff163373ffffffffffffffffffffffffffffffffffffffff1614613009576040517f08c379a000000000000000000000000000000000000000000000000000000000815260040161300090614a42565b60405180910390fd5b876000808b8152602001908152602001600020600101908161302b9190614659565b50866000808b8152602001908152602001600020600201908161304e9190614659565b50856000808b815260200190815260200160002060030190816130719190614659565b50846000808b815260200190815260200160002060040181905550836000808b815260200190815260200160002060050181905550826000808b815260200190815260200160002060060190816130c89190614659565b50816000808b815260200190815260200160002060070190816130eb9190614659565b50806000808b8152602001908152602001600020600801908161310e9190614659565b50505050505050505050565b604051806101400160405280600081526020016060815260200160608152602001606081526020016000815260200160008152602001606081526020016060815260200160608152602001600073ffffffffffffffffffffffffffffffffffffffff1681525090565b50805461318f906143fa565b6000825580601f106131a157506131c0565b601f0160209004906000526020600020908101906131bf9190613250565b5b50565b604051806101800160405280600081526020016060815260200160608152602001606081526020016060815260200160008152602001606081526020016060815260200160608152602001600073ffffffffffffffffffffffffffffffffffffffff16815260200160608152602001600073ffffffffffffffffffffffffffffffffffffffff1681525090565b5b80821115613269576000816000905550600101613251565b5090565b6000604051905090565b600080fd5b600080fd5b600073ffffffffffffffffffffffffffffffffffffffff82169050919050565b60006132ac82613281565b9050919050565b6132bc816132a1565b81146132c757600080fd5b50565b6000813590506132d9816132b3565b92915050565b6000602082840312156132f5576132f4613277565b5b6000613303848285016132ca565b91505092915050565b600081519050919050565b600082825260208201905092915050565b6000819050602082019050919050565b6000819050919050565b61334b81613338565b82525050565b600081519050919050565b600082825260208201905092915050565b60005b8381101561338b578082015181840152602081019050613370565b60008484015250505050565b6000601f19601f8301169050919050565b60006133b382613351565b6133bd818561335c565b93506133cd81856020860161336d565b6133d681613397565b840191505092915050565b6133ea816132a1565b82525050565b6000610140830160008301516134096000860182613342565b506020830151848203602086015261342182826133a8565b9150506040830151848203604086015261343b82826133a8565b9150506060830151848203606086015261345582826133a8565b915050608083015161346a6080860182613342565b5060a083015161347d60a0860182613342565b5060c083015184820360c086015261349582826133a8565b91505060e083015184820360e08601526134af82826133a8565b9150506101008301518482036101008601526134cb82826133a8565b9150506101208301516134e26101208601826133e1565b508091505092915050565b60006134f983836133f0565b905092915050565b6000602082019050919050565b60006135198261330c565b6135238185613317565b93508360208202850161353585613328565b8060005b85811015613571578484038952815161355285826134ed565b945061355d83613501565b925060208a01995050600181019050613539565b50829750879550505050505092915050565b6000602082019050818103600083015261359d818461350e565b905092915050565b600080fd5b600080fd5b7f4e487b7100000000000000000000000000000000000000000000000000000000600052604160045260246000fd5b6135e782613397565b810181811067ffffffffffffffff82111715613606576136056135af565b5b80604052505050565b600061361961326d565b905061362582826135de565b919050565b600067ffffffffffffffff821115613645576136446135af565b5b61364e82613397565b9050602081019050919050565b82818337600083830152505050565b600061367d6136788461362a565b61360f565b905082815260208101848484011115613699576136986135aa565b5b6136a484828561365b565b509392505050565b600082601f8301126136c1576136c06135a5565b5b81356136d184826020860161366a565b91505092915050565b6000602082840312156136f0576136ef613277565b5b600082013567ffffffffffffffff81111561370e5761370d61327c565b5b61371a848285016136ac565b91505092915050565b61372c81613338565b82525050565b600082825260208201905092915050565b600061374e82613351565b6137588185613732565b935061376881856020860161336d565b61377181613397565b840191505092915050565b613785816132a1565b82525050565b6000610180820190506137a1600083018f613723565b81810360208301526137b3818e613743565b905081810360408301526137c7818d613743565b905081810360608301526137db818c613743565b905081810360808301526137ef818b613743565b90506137fe60a083018a613723565b81810360c08301526138108189613743565b905081810360e08301526138248188613743565b90508181036101008301526138398187613743565b905061384961012083018661377c565b81810361014083015261385c8185613743565b905061386c61016083018461377c565b9d9c50505050505050505050505050565b600067ffffffffffffffff821115613898576138976135af565b5b602082029050602081019050919050565b600080fd5b600080fd5b600080fd5b6138c181613338565b81146138cc57600080fd5b50565b6000813590506138de816138b8565b92915050565b600061018082840312156138fb576138fa6138ae565b5b61390661018061360f565b90506000613916848285016138cf565b600083015250602082013567ffffffffffffffff81111561393a576139396138b3565b5b613946848285016136ac565b602083015250604082013567ffffffffffffffff81111561396a576139696138b3565b5b613976848285016136ac565b604083015250606082013567ffffffffffffffff81111561399a576139996138b3565b5b6139a6848285016136ac565b606083015250608082013567ffffffffffffffff8111156139ca576139c96138b3565b5b6139d6848285016136ac565b60808301525060a06139ea848285016138cf565b60a08301525060c082013567ffffffffffffffff811115613a0e57613a0d6138b3565b5b613a1a848285016136ac565b60c08301525060e082013567ffffffffffffffff811115613a3e57613a3d6138b3565b5b613a4a848285016136ac565b60e08301525061010082013567ffffffffffffffff811115613a6f57613a6e6138b3565b5b613a7b848285016136ac565b61010083015250610120613a91848285016132ca565b6101208301525061014082013567ffffffffffffffff811115613ab757613ab66138b3565b5b613ac3848285016136ac565b61014083015250610160613ad9848285016132ca565b6101608301525092915050565b6000613af9613af48461387d565b61360f565b90508083825260208201905060208402830185811115613b1c57613b1b6138a9565b5b835b81811015613b6357803567ffffffffffffffff811115613b4157613b406135a5565b5b808601613b4e89826138e4565b85526020850194505050602081019050613b1e565b5050509392505050565b600082601f830112613b8257613b816135a5565b5b8135613b92848260208601613ae6565b91505092915050565b600060208284031215613bb157613bb0613277565b5b600082013567ffffffffffffffff811115613bcf57613bce61327c565b5b613bdb84828501613b6d565b91505092915050565b6000602082019050613bf96000830184613723565b92915050565b600060208284031215613c1557613c14613277565b5b6000613c23848285016138cf565b91505092915050565b600061014082019050613c42600083018d613723565b8181036020830152613c54818c613743565b90508181036040830152613c68818b613743565b90508181036060830152613c7c818a613743565b9050613c8b6080830189613723565b613c9860a0830188613723565b81810360c0830152613caa8187613743565b905081810360e0830152613cbe8186613743565b9050818103610100830152613cd38185613743565b9050613ce361012083018461377c565b9b9a5050505050505050505050565b600081519050919050565b600082825260208201905092915050565b6000819050602082019050919050565b600061018083016000830151613d376000860182613342565b5060208301518482036020860152613d4f82826133a8565b91505060408301518482036040860152613d6982826133a8565b91505060608301518482036060860152613d8382826133a8565b91505060808301518482036080860152613d9d82826133a8565b91505060a0830151613db260a0860182613342565b5060c083015184820360c0860152613dca82826133a8565b91505060e083015184820360e0860152613de482826133a8565b915050610100830151848203610100860152613e0082826133a8565b915050610120830151613e176101208601826133e1565b50610140830151848203610140860152613e3182826133a8565b915050610160830151613e486101608601826133e1565b508091505092915050565b6000613e5f8383613d1e565b905092915050565b6000602082019050919050565b6000613e7f82613cf2565b613e898185613cfd565b935083602082028501613e9b85613d0e565b8060005b85811015613ed75784840389528151613eb88582613e53565b9450613ec383613e67565b925060208a01995050600181019050613e9f565b50829750879550505050505092915050565b60006020820190508181036000830152613f038184613e74565b905092915050565b600080600080600080600080610100898b031215613f2c57613f2b613277565b5b600089013567ffffffffffffffff811115613f4a57613f4961327c565b5b613f568b828c016136ac565b985050602089013567ffffffffffffffff811115613f7757613f7661327c565b5b613f838b828c016136ac565b975050604089013567ffffffffffffffff811115613fa457613fa361327c565b5b613fb08b828c016136ac565b9650506060613fc18b828c016138cf565b9550506080613fd28b828c016138cf565b94505060a089013567ffffffffffffffff811115613ff357613ff261327c565b5b613fff8b828c016136ac565b93505060c089013567ffffffffffffffff8111156140205761401f61327c565b5b61402c8b828c016136ac565b92505060e089013567ffffffffffffffff81111561404d5761404c61327c565b5b6140598b828c016136ac565b9150509295985092959890939650565b6000610180830160008301516140826000860182613342565b506020830151848203602086015261409a82826133a8565b915050604083015184820360408601526140b482826133a8565b915050606083015184820360608601526140ce82826133a8565b915050608083015184820360808601526140e882826133a8565b91505060a08301516140fd60a0860182613342565b5060c083015184820360c086015261411582826133a8565b91505060e083015184820360e086015261412f82826133a8565b91505061010083015184820361010086015261414b82826133a8565b9150506101208301516141626101208601826133e1565b5061014083015184820361014086015261417c82826133a8565b9150506101608301516141936101608601826133e1565b508091505092915050565b600060208201905081810360008301526141b88184614069565b905092915050565b600060208201905081810360008301526141da8184613743565b905092915050565b60008060008060008060008060006101208a8c03121561420557614204613277565b5b60006142138c828d016138cf565b99505060208a013567ffffffffffffffff8111156142345761423361327c565b5b6142408c828d016136ac565b98505060408a013567ffffffffffffffff8111156142615761426061327c565b5b61426d8c828d016136ac565b97505060608a013567ffffffffffffffff81111561428e5761428d61327c565b5b61429a8c828d016136ac565b96505060806142ab8c828d016138cf565b95505060a06142bc8c828d016138cf565b94505060c08a013567ffffffffffffffff8111156142dd576142dc61327c565b5b6142e98c828d016136ac565b93505060e08a013567ffffffffffffffff81111561430a5761430961327c565b5b6143168c828d016136ac565b9250506101008a013567ffffffffffffffff8111156143385761433761327c565b5b6143448c828d016136ac565b9150509295985092959850929598565b7f4e487b7100000000000000000000000000000000000000000000000000000000600052601160045260246000fd5b600061438e82613338565b91507fffffffffffffffffffffffffffffffffffffffffffffffffffffffffffffffff82036143c0576143bf614354565b5b600182019050919050565b7f4e487b7100000000000000000000000000000000000000000000000000000000600052602260045260246000fd5b6000600282049050600182168061441257607f821691505b602082108103614425576144246143cb565b5b50919050565b7f4e487b7100000000000000000000000000000000000000000000000000000000600052603260045260246000fd5b600081905092915050565b600061447082613351565b61447a818561445a565b935061448a81856020860161336d565b80840191505092915050565b60006144a28284614465565b915081905092915050565b60008190508160005260206000209050919050565b60006020601f8301049050919050565b600082821b905092915050565b60006008830261450f7fffffffffffffffffffffffffffffffffffffffffffffffffffffffffffffffff826144d2565b61451986836144d2565b95508019841693508086168417925050509392505050565b6000819050919050565b600061455661455161454c84613338565b614531565b613338565b9050919050565b6000819050919050565b6145708361453b565b61458461457c8261455d565b8484546144df565b825550505050565b600090565b61459961458c565b6145a4818484614567565b505050565b5b818110156145c8576145bd600082614591565b6001810190506145aa565b5050565b601f82111561460d576145de816144ad565b6145e7846144c2565b810160208510156145f6578190505b61460a614602856144c2565b8301826145a9565b50505b505050565b600082821c905092915050565b600061463060001984600802614612565b1980831691505092915050565b6000614649838361461f565b9150826002028217905092915050565b61466282613351565b67ffffffffffffffff81111561467b5761467a6135af565b5b61468582546143fa565b6146908282856145cc565b600060209050601f8311600181146146c357600084156146b1578287015190505b6146bb858261463d565b865550614723565b601f1984166146d1866144ad565b60005b828110156146f9578489015182556001820191506020850194506020810190506146d4565b868310156147165784890151614712601f89168261461f565b8355505b6001600288020188555050505b505050505050565b7f4d65646963696e65206e6f7420666f756e640000000000000000000000000000600082015250565b6000614761601283613732565b915061476c8261472b565b602082019050919050565b6000602082019050818103600083015261479081614754565b9050919050565b600081546147a4816143fa565b6147ae818661445a565b945060018216600081146147c957600181146147de57614811565b60ff1983168652811515820286019350614811565b6147e7856144ad565b60005b83811015614809578154818901526001820191506020810190506147ea565b838801955050505b50505092915050565b60006148268284614797565b915081905092915050565b600061483c82613338565b915061484783613338565b925082820390508181111561485f5761485e614354565b5b92915050565b600081549050614874816143fa565b9050919050565b60008190508160005260206000209050919050565b81810361489e575050614976565b6148a782614865565b67ffffffffffffffff8111156148c0576148bf6135af565b5b6148ca82546143fa565b6148d58282856145cc565b6000601f83116001811461490457600084156148f2578287015490505b6148fc858261463d565b86555061496f565b601f1984166149128761487b565b965061491d866144ad565b60005b8281101561494557848901548255600182019150600185019450602081019050614920565b86831015614962578489015461495e601f89168261461f565b8355505b6001600288020188555050505b5050505050505b565b7f4e487b7100000000000000000000000000000000000000000000000000000000600052603160045260246000fd5b60006149b282613338565b9150600082036149c5576149c4614354565b5b600182039050919050565b7f4f6e6c7920746865206d616e7566616374757265722063616e2075706461746560008201527f2074686973206d65646963696e65000000000000000000000000000000000000602082015250565b6000614a2c602e83613732565b9150614a37826149d0565b604082019050919050565b60006020820190508181036000830152614a5b81614a1f565b905091905056fea2646970667358221220f9bef79fc8b4fba70f57e3f9b2323d3aea59f8a4e73075163fc99f1ebd5c240564736f6c63430008120033",
  "immutableReferences": {},
  "source": "// SPDX-License-Identifier: MIT\r\npragma solidity ^0.8.0;\r\n\r\ncontract MedicineContract {\r\n \r\nstruct MedicineInventory {\r\n    uint medicineID; // A unique ID for each medicine\r\n    string medicineName; // The name of the medicine\r\n    string medicineFormula; // The formula of the medicine\r\n    string medicineDescription; // The description of the medicine\r\n    uint quantity; // The quantity of the medicine\r\n    uint price; // The price of the medicine\r\n    string manufacturerData; // The date of manufacture of the medicine\r\n    string expiryDate; // The expiry date of the medicine\r\n    string status; // The status of the medicine (available/out-of-stock)\r\n    address manufacturer; // The address of the manufacturer who added the medicine\r\n}\r\n// Define a mapping to store medicines by their unique identifiers\r\nmapping (uint => MedicineInventory) public manufacturerInventory;\r\nuint public medicineCounter;\r\n\r\n// Define a function to add a new medicine\r\nfunction addMedicineInventory(\r\n    string memory _medicineName,\r\n    string memory _medicineFormula,\r\n    string memory _medicineDescription,\r\n    uint _quantity,\r\n    uint _price,\r\n    string memory _manufacturerData,\r\n    string memory _expiryDate,\r\n    string memory _status\r\n    ) public {\r\n    // Increment medicine counter\r\n    medicineCounter++;\r\n\r\n    // Create a new medicine struct and store it in the mapping\r\n    manufacturerInventory[medicineCounter] = MedicineInventory(\r\n        medicineCounter,\r\n        _medicineName,\r\n        _medicineFormula,\r\n        _medicineDescription,\r\n        _quantity,\r\n        _price,\r\n        _manufacturerData,\r\n        _expiryDate,\r\n        _status,\r\n        msg.sender\r\n    );\r\n    \r\n// Emit a MedicineAdded event\r\nemit MedicineAdded(medicineCounter);\r\n}\r\n\r\n// Define a MedicineAdded event\r\nevent MedicineAdded(uint medicineID);\r\n\r\nfunction getInventoryCounter() public view returns(uint count){\r\n    return medicineCounter;\r\n}\r\n\r\n// Define a function to update a medicine\r\nfunction updateMedicineInventory(\r\n    uint _medicineID,\r\n    string memory _medicineName,\r\n    string memory _medicineFormula,\r\n    string memory _medicineDescription,\r\n    uint _quantity,\r\n    uint _price,\r\n    string memory _manufacturerData,\r\n    string memory _expiryDate,\r\n    string memory _status\r\n    ) public {\r\n    // Check if the caller is the manufacturer who added the medicine\r\n    require(msg.sender == manufacturerInventory[_medicineID].manufacturer, \"Only the manufacturer can update this medicine\");\r\n    // Update the medicine in the mapping\r\n    manufacturerInventory[_medicineID].medicineName = _medicineName;\r\n    manufacturerInventory[_medicineID].medicineFormula = _medicineFormula;\r\n    manufacturerInventory[_medicineID].medicineDescription = _medicineDescription;\r\n    manufacturerInventory[_medicineID].quantity = _quantity;\r\n    manufacturerInventory[_medicineID].price = _price;\r\n    manufacturerInventory[_medicineID].manufacturerData = _manufacturerData;\r\n    manufacturerInventory[_medicineID].expiryDate = _expiryDate;\r\n    manufacturerInventory[_medicineID].status = _status;\r\n}\r\n\r\n\r\n\r\nfunction getAllMedicineInventory(address manufacturerAddress) public view returns (MedicineInventory[] memory) {\r\n    uint matchingCount = 0;\r\n    // Count the number of medicines that belong to the specified manufacturer\r\n    for (uint i = 1; i <= medicineCounter; i++) {\r\n        if (manufacturerInventory[i].manufacturer == manufacturerAddress) {\r\n            matchingCount++;\r\n        }\r\n    }\r\n    // Create a new array to store the matching medicines\r\n    MedicineInventory[] memory matchingMedicines = new MedicineInventory[](matchingCount);\r\n    uint j = 0;\r\n    // Populate the new array with the matching medicines\r\n    for (uint i = 1; i <= medicineCounter; i++) {\r\n        if (manufacturerInventory[i].manufacturer == manufacturerAddress) {\r\n            matchingMedicines[j] = manufacturerInventory[i];\r\n            j++;\r\n        }\r\n    }\r\n    return matchingMedicines;\r\n}\r\n\r\n\r\n\r\n\r\n  struct Medicine {\r\n        uint medicineID;\r\n        string uniqueIdentifier;\r\n        string medicineName;\r\n        string medicineFormula;\r\n        string medicineDescription;\r\n        uint price;\r\n        string manufacturerDate;\r\n        string expiryDate;\r\n        string orderDate;\r\n        address distributorAddress;\r\n        string status;\r\n        address manufacturerAddress;\r\n    } \r\n    \r\n    mapping (string => Medicine) public medicines;\r\n    string[] public medicineList; // Array of all medicine unique identifiers\r\n\r\n    uint public medicineCount;\r\n\r\n    function addMedicine(Medicine[] memory _medicines) public {\r\n        for (uint i = 0; i < _medicines.length; i++) {\r\n            medicines[_medicines[i].uniqueIdentifier] = _medicines[i];\r\n            medicineList.push(_medicines[i].uniqueIdentifier); // Add unique identifier to list\r\n            medicineCount++;\r\n        }\r\n    } \r\n\r\n    function getMedicineCount() public view returns (uint) {\r\n        return medicineCount;\r\n    }\r\n\r\n\r\nfunction getMedicinesByID(uint _medicineID) public view returns (Medicine[] memory) {\r\n    Medicine[] memory matchingMedicines = new Medicine[](medicineCount);\r\n    uint count = 0;\r\n    for (uint i = 0; i < medicineList.length; i++) {\r\n        string memory uniqueIdentifier = medicineList[i];\r\n        Medicine memory medicine = medicines[uniqueIdentifier];\r\n        if (medicine.medicineID == _medicineID) {\r\n            matchingMedicines[count] = medicine;\r\n            count++;\r\n        }\r\n    }\r\n    // Resize the array to remove empty elements\r\n    assembly {\r\n        mstore(matchingMedicines, count)\r\n    }\r\n    return matchingMedicines;\r\n}\r\n\r\n\r\nfunction findMedicine(string memory _uniqueIdentifier) public view returns (Medicine memory) {\r\n    Medicine memory medicine = medicines[_uniqueIdentifier];\r\n    require(medicine.medicineID != 0, \"Medicine not found\");\r\n    return medicine;\r\n}\r\n\r\n\r\n\r\nfunction UpdateMedicine(Medicine[] memory _medicines) public {\r\n    for (uint i = 0; i < _medicines.length; i++) {\r\n        // Check if the medicine exists in the mapping\r\n        require(medicines[_medicines[i].uniqueIdentifier].medicineID != 0, \"Medicine not found\");\r\n        // Update the orderDate, distributorAddress and status fields\r\n        medicines[_medicines[i].uniqueIdentifier].orderDate = _medicines[i].orderDate;\r\n        medicines[_medicines[i].uniqueIdentifier].distributorAddress = _medicines[i].distributorAddress;\r\n        medicines[_medicines[i].uniqueIdentifier].status = _medicines[i].status;\r\n    }\r\n}\r\n\r\nfunction deleteMedicine(string memory _uniqueIdentifier) public {\r\n    require(medicines[_uniqueIdentifier].medicineID != 0, \"Medicine not found\");\r\n    delete medicines[_uniqueIdentifier];\r\n    for (uint i = 0; i < medicineList.length; i++) {\r\n        if (keccak256(abi.encodePacked(medicineList[i])) == keccak256(abi.encodePacked(_uniqueIdentifier))) {\r\n            medicineList[i] = medicineList[medicineList.length - 1];\r\n            medicineList.pop();\r\n            break;\r\n        }\r\n    }\r\n    medicineCount--;\r\n}\r\n\r\n\r\nfunction getAllDistributorMedicine(address _distributorAddress) public view returns (Medicine[] memory) {\r\n    Medicine[] memory matchingMedicines = new Medicine[](medicineCount);\r\n    uint count = 0;\r\n    for (uint i = 0; i < medicineList.length; i++) {\r\n        string memory uniqueIdentifier = medicineList[i];\r\n        Medicine memory medicine = medicines[uniqueIdentifier];\r\n        if (medicine.distributorAddress == _distributorAddress && medicine.manufacturerAddress != address(0)) {\r\n            matchingMedicines[count] = medicine;\r\n            count++;\r\n        }\r\n    }\r\n    // Resize the array to remove empty elements\r\n    assembly {\r\n        mstore(matchingMedicines, count)\r\n    }\r\n    return matchingMedicines;\r\n}\r\n\r\n\r\n\r\n\r\n}",
  "sourcePath": "E:\\Solidity\\mscm\\blockchain\\contracts\\MedicineContract.sol",
  "compiler": {
    "name": "solc",
    "version": "0.8.18+commit.87f61d96.Emscripten.clang"
  },
  "schemaVersion": "3.4.13",
  "updatedAt": "2023-05-13T17:55:15.108Z",
  "devdoc": {
    "kind": "dev",
    "methods": {},
    "version": 1
  },
  "userdoc": {
    "kind": "user",
    "methods": {},
    "version": 1
  }
}