{
  "contractName": "RawMaterial",
  "abi": [
    {
      "inputs": [],
      "name": "materialCount",
      "outputs": [
        {
          "internalType": "uint256",
          "name": "",
          "type": "uint256"
        }
      ],
      "stateMutability": "view",
      "type": "function"
    },
    {
      "inputs": [
        {
          "internalType": "string",
          "name": "_materialName",
          "type": "string"
        },
        {
          "internalType": "string",
          "name": "_materialDesc",
          "type": "string"
        },
        {
          "internalType": "uint256",
          "name": "_unitprice",
          "type": "uint256"
        },
        {
          "internalType": "uint256",
          "name": "_quantity",
          "type": "uint256"
        },
        {
          "internalType": "string",
          "name": "_createdDate",
          "type": "string"
        },
        {
          "internalType": "string",
          "name": "_stock",
          "type": "string"
        }
      ],
      "name": "addMaterial",
      "outputs": [],
      "stateMutability": "nonpayable",
      "type": "function"
    },
    {
      "inputs": [
        {
          "internalType": "uint256",
          "name": "_materialID",
          "type": "uint256"
        },
        {
          "internalType": "string",
          "name": "_materialName",
          "type": "string"
        },
        {
          "internalType": "string",
          "name": "_materialDesc",
          "type": "string"
        },
        {
          "internalType": "uint256",
          "name": "_unitprice",
          "type": "uint256"
        },
        {
          "internalType": "uint256",
          "name": "_quantity",
          "type": "uint256"
        },
        {
          "internalType": "string",
          "name": "_createdDate",
          "type": "string"
        },
        {
          "internalType": "string",
          "name": "_stock",
          "type": "string"
        }
      ],
      "name": "updateMaterial",
      "outputs": [],
      "stateMutability": "nonpayable",
      "type": "function"
    },
    {
      "inputs": [],
      "name": "getAllMaterials",
      "outputs": [
        {
          "components": [
            {
              "internalType": "uint256",
              "name": "materialID",
              "type": "uint256"
            },
            {
              "internalType": "string",
              "name": "materialName",
              "type": "string"
            },
            {
              "internalType": "string",
              "name": "materialDesc",
              "type": "string"
            },
            {
              "internalType": "uint256",
              "name": "unitprice",
              "type": "uint256"
            },
            {
              "internalType": "uint256",
              "name": "quantity",
              "type": "uint256"
            },
            {
              "internalType": "string",
              "name": "createdDate",
              "type": "string"
            },
            {
              "internalType": "address",
              "name": "supplierID",
              "type": "address"
            },
            {
              "internalType": "string",
              "name": "stock",
              "type": "string"
            }
          ],
          "internalType": "struct RawMaterial.Material[]",
          "name": "",
          "type": "tuple[]"
        }
      ],
      "stateMutability": "view",
      "type": "function"
    }
  ],
  "bytecode": "0x608060405234801561001057600080fd5b5061141e806100206000396000f3fe608060405234801561001057600080fd5b506004361061004c5760003560e01c8063146864a614610051578063765a521b1461006d578063791c77281461008b578063d472f038146100a7575b600080fd5b61006b60048036038101906100669190610aa4565b6100c5565b005b6100756102da565b6040516100829190610e0c565b60405180910390f35b6100a560048036038101906100a09190610e2e565b61076d565b005b6100af6108b3565b6040516100bc9190610f3a565b60405180910390f35b60015487111561010a576040517f08c379a000000000000000000000000000000000000000000000000000000000815260040161010190610fb2565b60405180910390fd5b3373ffffffffffffffffffffffffffffffffffffffff1660008089815260200190815260200160002060060160009054906101000a900473ffffffffffffffffffffffffffffffffffffffff1673ffffffffffffffffffffffffffffffffffffffff16146101ad576040517f08c379a00000000000000000000000000000000000000000000000000000000081526004016101a490611044565b60405180910390fd5b60405180610100016040528060015481526020018781526020018681526020018581526020018481526020018381526020013373ffffffffffffffffffffffffffffffffffffffff168152602001828152506000808981526020019081526020016000206000820151816000015560208201518160010190816102309190611270565b5060408201518160020190816102469190611270565b50606082015181600301556080820151816004015560a08201518160050190816102709190611270565b5060c08201518160060160006101000a81548173ffffffffffffffffffffffffffffffffffffffff021916908373ffffffffffffffffffffffffffffffffffffffff16021790555060e08201518160070190816102cd9190611270565b5090505050505050505050565b6060600080600190505b6001548111610377573373ffffffffffffffffffffffffffffffffffffffff1660008083815260200190815260200160002060060160009054906101000a900473ffffffffffffffffffffffffffffffffffffffff1673ffffffffffffffffffffffffffffffffffffffff160361036457818061036090611371565b9250505b808061036f90611371565b9150506102e4565b5060008167ffffffffffffffff81111561039457610393610979565b5b6040519080825280602002602001820160405280156103cd57816020015b6103ba6108b9565b8152602001906001900390816103b25790505b509050600080600190505b6001548111610763573373ffffffffffffffffffffffffffffffffffffffff1660008083815260200190815260200160002060060160009054906101000a900473ffffffffffffffffffffffffffffffffffffffff1673ffffffffffffffffffffffffffffffffffffffff160361075057600080828152602001908152602001600020604051806101000160405290816000820154815260200160018201805461048190611093565b80601f01602080910402602001604051908101604052809291908181526020018280546104ad90611093565b80156104fa5780601f106104cf576101008083540402835291602001916104fa565b820191906000526020600020905b8154815290600101906020018083116104dd57829003601f168201915b5050505050815260200160028201805461051390611093565b80601f016020809104026020016040519081016040528092919081815260200182805461053f90611093565b801561058c5780601f106105615761010080835404028352916020019161058c565b820191906000526020600020905b81548152906001019060200180831161056f57829003601f168201915b5050505050815260200160038201548152602001600482015481526020016005820180546105b990611093565b80601f01602080910402602001604051908101604052809291908181526020018280546105e590611093565b80156106325780601f1061060757610100808354040283529160200191610632565b820191906000526020600020905b81548152906001019060200180831161061557829003601f168201915b505050505081526020016006820160009054906101000a900473ffffffffffffffffffffffffffffffffffffffff1673ffffffffffffffffffffffffffffffffffffffff1673ffffffffffffffffffffffffffffffffffffffff1681526020016007820180546106a190611093565b80601f01602080910402602001604051908101604052809291908181526020018280546106cd90611093565b801561071a5780601f106106ef5761010080835404028352916020019161071a565b820191906000526020600020905b8154815290600101906020018083116106fd57829003601f168201915b505050505081525050838381518110610736576107356113b9565b5b6020026020010181905250818061074c90611371565b9250505b808061075b90611371565b9150506103d8565b5081935050505090565b6001600081548092919061078090611371565b919050555060405180610100016040528060015481526020018781526020018681526020018581526020018481526020018381526020013373ffffffffffffffffffffffffffffffffffffffff16815260200182815250600080600154815260200190815260200160002060008201518160000155602082015181600101908161080a9190611270565b5060408201518160020190816108209190611270565b50606082015181600301556080820151816004015560a082015181600501908161084a9190611270565b5060c08201518160060160006101000a81548173ffffffffffffffffffffffffffffffffffffffff021916908373ffffffffffffffffffffffffffffffffffffffff16021790555060e08201518160070190816108a79190611270565b50905050505050505050565b60015481565b604051806101000160405280600081526020016060815260200160608152602001600081526020016000815260200160608152602001600073ffffffffffffffffffffffffffffffffffffffff168152602001606081525090565b6000604051905090565b600080fd5b600080fd5b6000819050919050565b61093b81610928565b811461094657600080fd5b50565b60008135905061095881610932565b92915050565b600080fd5b600080fd5b6000601f19601f8301169050919050565b7f4e487b7100000000000000000000000000000000000000000000000000000000600052604160045260246000fd5b6109b182610968565b810181811067ffffffffffffffff821117156109d0576109cf610979565b5b80604052505050565b60006109e3610914565b90506109ef82826109a8565b919050565b600067ffffffffffffffff821115610a0f57610a0e610979565b5b610a1882610968565b9050602081019050919050565b82818337600083830152505050565b6000610a47610a42846109f4565b6109d9565b905082815260208101848484011115610a6357610a62610963565b5b610a6e848285610a25565b509392505050565b600082601f830112610a8b57610a8a61095e565b5b8135610a9b848260208601610a34565b91505092915050565b600080600080600080600060e0888a031215610ac357610ac261091e565b5b6000610ad18a828b01610949565b975050602088013567ffffffffffffffff811115610af257610af1610923565b5b610afe8a828b01610a76565b965050604088013567ffffffffffffffff811115610b1f57610b1e610923565b5b610b2b8a828b01610a76565b9550506060610b3c8a828b01610949565b9450506080610b4d8a828b01610949565b93505060a088013567ffffffffffffffff811115610b6e57610b6d610923565b5b610b7a8a828b01610a76565b92505060c088013567ffffffffffffffff811115610b9b57610b9a610923565b5b610ba78a828b01610a76565b91505092959891949750929550565b600081519050919050565b600082825260208201905092915050565b6000819050602082019050919050565b610beb81610928565b82525050565b600081519050919050565b600082825260208201905092915050565b60005b83811015610c2b578082015181840152602081019050610c10565b60008484015250505050565b6000610c4282610bf1565b610c4c8185610bfc565b9350610c5c818560208601610c0d565b610c6581610968565b840191505092915050565b600073ffffffffffffffffffffffffffffffffffffffff82169050919050565b6000610c9b82610c70565b9050919050565b610cab81610c90565b82525050565b600061010083016000830151610cca6000860182610be2565b5060208301518482036020860152610ce28282610c37565b91505060408301518482036040860152610cfc8282610c37565b9150506060830151610d116060860182610be2565b506080830151610d246080860182610be2565b5060a083015184820360a0860152610d3c8282610c37565b91505060c0830151610d5160c0860182610ca2565b5060e083015184820360e0860152610d698282610c37565b9150508091505092915050565b6000610d828383610cb1565b905092915050565b6000602082019050919050565b6000610da282610bb6565b610dac8185610bc1565b935083602082028501610dbe85610bd2565b8060005b85811015610dfa5784840389528151610ddb8582610d76565b9450610de683610d8a565b925060208a01995050600181019050610dc2565b50829750879550505050505092915050565b60006020820190508181036000830152610e268184610d97565b905092915050565b60008060008060008060c08789031215610e4b57610e4a61091e565b5b600087013567ffffffffffffffff811115610e6957610e68610923565b5b610e7589828a01610a76565b965050602087013567ffffffffffffffff811115610e9657610e95610923565b5b610ea289828a01610a76565b9550506040610eb389828a01610949565b9450506060610ec489828a01610949565b935050608087013567ffffffffffffffff811115610ee557610ee4610923565b5b610ef189828a01610a76565b92505060a087013567ffffffffffffffff811115610f1257610f11610923565b5b610f1e89828a01610a76565b9150509295509295509295565b610f3481610928565b82525050565b6000602082019050610f4f6000830184610f2b565b92915050565b600082825260208201905092915050565b7f4d6174657269616c20646f6573206e6f74206578697374000000000000000000600082015250565b6000610f9c601783610f55565b9150610fa782610f66565b602082019050919050565b60006020820190508181036000830152610fcb81610f8f565b9050919050565b7f596f7520617265204e6f74205065726d697373696f6e206f72204d617465726960008201527f616c204e6f742045786973740000000000000000000000000000000000000000602082015250565b600061102e602c83610f55565b915061103982610fd2565b604082019050919050565b6000602082019050818103600083015261105d81611021565b9050919050565b7f4e487b7100000000000000000000000000000000000000000000000000000000600052602260045260246000fd5b600060028204905060018216806110ab57607f821691505b6020821081036110be576110bd611064565b5b50919050565b60008190508160005260206000209050919050565b60006020601f8301049050919050565b600082821b905092915050565b6000600883026111267fffffffffffffffffffffffffffffffffffffffffffffffffffffffffffffffff826110e9565b61113086836110e9565b95508019841693508086168417925050509392505050565b6000819050919050565b600061116d61116861116384610928565b611148565b610928565b9050919050565b6000819050919050565b61118783611152565b61119b61119382611174565b8484546110f6565b825550505050565b600090565b6111b06111a3565b6111bb81848461117e565b505050565b5b818110156111df576111d46000826111a8565b6001810190506111c1565b5050565b601f821115611224576111f5816110c4565b6111fe846110d9565b8101602085101561120d578190505b611221611219856110d9565b8301826111c0565b50505b505050565b600082821c905092915050565b600061124760001984600802611229565b1980831691505092915050565b60006112608383611236565b9150826002028217905092915050565b61127982610bf1565b67ffffffffffffffff81111561129257611291610979565b5b61129c8254611093565b6112a78282856111e3565b600060209050601f8311600181146112da57600084156112c8578287015190505b6112d28582611254565b86555061133a565b601f1984166112e8866110c4565b60005b82811015611310578489015182556001820191506020850194506020810190506112eb565b8683101561132d5784890151611329601f891682611236565b8355505b6001600288020188555050505b505050505050565b7f4e487b7100000000000000000000000000000000000000000000000000000000600052601160045260246000fd5b600061137c82610928565b91507fffffffffffffffffffffffffffffffffffffffffffffffffffffffffffffffff82036113ae576113ad611342565b5b600182019050919050565b7f4e487b7100000000000000000000000000000000000000000000000000000000600052603260045260246000fdfea2646970667358221220c2b3cad37feef29761b424f419d3a5f9c171f81ae6cdd02ceb7e67495e55207764736f6c63430008120033",
  "immutableReferences": {},
  "source": "// SPDX-License-Identifier: GPL-3.0\r\npragma solidity >=0.8.0 <0.9.0;\r\n\r\ncontract RawMaterial {\r\n    struct Material {\r\n        uint materialID;\r\n        string materialName;\r\n        string materialDesc;\r\n        uint unitprice;\r\n        uint quantity;\r\n        string createdDate;\r\n        address supplierID;\r\n        string stock;\r\n    }\r\n\r\n    mapping (uint => Material) materials;\r\n    uint public materialCount;\r\n\r\n    function addMaterial(string memory _materialName, string memory _materialDesc, uint _unitprice, uint _quantity,string memory _createdDate, string memory _stock) public {\r\n        materialCount++;\r\n        materials[materialCount] = Material({\r\n         materialID : materialCount,\r\n         materialName : _materialName,\r\n         materialDesc : _materialDesc,\r\n         unitprice : _unitprice,\r\n         quantity : _quantity,\r\n         createdDate : _createdDate,\r\n         supplierID : msg.sender,\r\n         stock : _stock\r\n        });\r\n    }\r\n\r\n \r\n    function updateMaterial(uint _materialID, string memory _materialName, string memory _materialDesc, uint _unitprice, uint _quantity,string memory _createdDate, string memory _stock) public {\r\n        require(_materialID <= materialCount, \"Material does not exist\");\r\n        require(materials[_materialID].supplierID == msg.sender,\"You are Not Permission or Material Not Exist\");\r\n        materials[_materialID] = Material({\r\n         materialID : materialCount,\r\n         materialName : _materialName,\r\n         materialDesc : _materialDesc,\r\n         unitprice : _unitprice,\r\n         quantity : _quantity,\r\n         createdDate : _createdDate,\r\n         supplierID : msg.sender,\r\n         stock : _stock\r\n        });\r\n    }\r\n\r\n\r\n    function getAllMaterials() public view returns (Material[] memory) {\r\n    uint matchingCount = 0;\r\n    for (uint i = 1; i <= materialCount; i++) {\r\n        if (materials[i].supplierID == msg.sender) {\r\n            matchingCount++;\r\n        }\r\n    }\r\n    Material[] memory materialList = new Material[](matchingCount);\r\n    uint j = 0;\r\n    for (uint i = 1; i <= materialCount; i++) {\r\n        if (materials[i].supplierID == msg.sender) {\r\n            materialList[j] = materials[i];\r\n            j++;\r\n        }\r\n    }\r\n    return materialList;\r\n}\r\n}\r\n\r\n",
  "sourcePath": "E:\\Solidity\\mscm\\blockchain\\contracts\\RawMaterial.sol",
  "compiler": {
    "name": "solc",
    "version": "0.8.18+commit.87f61d96.Emscripten.clang"
  },
  "schemaVersion": "3.4.13",
  "updatedAt": "2023-05-13T17:55:15.248Z",
  "devdoc": {
    "kind": "dev",
    "methods": {},
    "version": 1
  },
  "userdoc": {
    "kind": "user",
    "methods": {},
    "version": 1
  }
}