{
  "contractName": "RawMaterialOrder",
  "abi": [
    {
      "inputs": [
        {
          "internalType": "address",
          "name": "_manufacturerID",
          "type": "address"
        },
        {
          "internalType": "address",
          "name": "_supplierID",
          "type": "address"
        },
        {
          "internalType": "string",
          "name": "_manufacturerName",
          "type": "string"
        },
        {
          "internalType": "string",
          "name": "_orderDetails",
          "type": "string"
        },
        {
          "internalType": "uint256",
          "name": "_totalPrice",
          "type": "uint256"
        },
        {
          "internalType": "string",
          "name": "_orderTime",
          "type": "string"
        }
      ],
      "name": "placeOrderRawMaterial",
      "outputs": [
        {
          "internalType": "uint256",
          "name": "",
          "type": "uint256"
        }
      ],
      "stateMutability": "nonpayable",
      "type": "function"
    },
    {
      "inputs": [
        {
          "internalType": "uint256",
          "name": "_orderID",
          "type": "uint256"
        },
        {
          "internalType": "string",
          "name": "_orderStatus",
          "type": "string"
        }
      ],
      "name": "updateOrderStatus",
      "outputs": [],
      "stateMutability": "nonpayable",
      "type": "function"
    },
    {
      "inputs": [
        {
          "internalType": "uint256",
          "name": "_orderID",
          "type": "uint256"
        }
      ],
      "name": "getOrderRawMaterialDetails",
      "outputs": [
        {
          "components": [
            {
              "internalType": "uint256",
              "name": "orderID",
              "type": "uint256"
            },
            {
              "internalType": "address",
              "name": "manufacturerID",
              "type": "address"
            },
            {
              "internalType": "address",
              "name": "supplierID",
              "type": "address"
            },
            {
              "internalType": "string",
              "name": "manufacturerName",
              "type": "string"
            },
            {
              "internalType": "string",
              "name": "orderDetails",
              "type": "string"
            },
            {
              "internalType": "uint256",
              "name": "totalPrice",
              "type": "uint256"
            },
            {
              "internalType": "string",
              "name": "orderTime",
              "type": "string"
            },
            {
              "internalType": "string",
              "name": "orderStatus",
              "type": "string"
            },
            {
              "internalType": "uint256",
              "name": "orderStatusUpdateTime",
              "type": "uint256"
            }
          ],
          "internalType": "struct RawMaterialOrder.OrderRawMaterial",
          "name": "",
          "type": "tuple"
        }
      ],
      "stateMutability": "view",
      "type": "function"
    },
    {
      "inputs": [],
      "name": "getAllOrderRawMaterialDetails",
      "outputs": [
        {
          "components": [
            {
              "internalType": "uint256",
              "name": "orderID",
              "type": "uint256"
            },
            {
              "internalType": "address",
              "name": "manufacturerID",
              "type": "address"
            },
            {
              "internalType": "address",
              "name": "supplierID",
              "type": "address"
            },
            {
              "internalType": "string",
              "name": "manufacturerName",
              "type": "string"
            },
            {
              "internalType": "string",
              "name": "orderDetails",
              "type": "string"
            },
            {
              "internalType": "uint256",
              "name": "totalPrice",
              "type": "uint256"
            },
            {
              "internalType": "string",
              "name": "orderTime",
              "type": "string"
            },
            {
              "internalType": "string",
              "name": "orderStatus",
              "type": "string"
            },
            {
              "internalType": "uint256",
              "name": "orderStatusUpdateTime",
              "type": "uint256"
            }
          ],
          "internalType": "struct RawMaterialOrder.OrderRawMaterial[]",
          "name": "",
          "type": "tuple[]"
        }
      ],
      "stateMutability": "view",
      "type": "function"
    }
  ],
  "bytecode": "0x608060405234801561001057600080fd5b5061156e806100206000396000f3fe608060405234801561001057600080fd5b506004361061004c5760003560e01c80631b8bb212146100515780631da495bc14610081578063205fdde61461009f5780636b7ef11c146100bb575b600080fd5b61006b60048036038101906100669190610af1565b6100eb565b6040516100789190610cd8565b60405180910390f35b61008961042a565b6040516100969190610e96565b60405180910390f35b6100b960048036038101906100b49190610fed565b61080b565b005b6100d560048036038101906100d09190611075565b610841565b6040516100e29190611165565b60405180910390f35b6100f3610a2f565b60008083815260200190815260200160002060405180610120016040529081600082015481526020016001820160009054906101000a900473ffffffffffffffffffffffffffffffffffffffff1673ffffffffffffffffffffffffffffffffffffffff1673ffffffffffffffffffffffffffffffffffffffff1681526020016002820160009054906101000a900473ffffffffffffffffffffffffffffffffffffffff1673ffffffffffffffffffffffffffffffffffffffff1673ffffffffffffffffffffffffffffffffffffffff1681526020016003820180546101d7906111af565b80601f0160208091040260200160405190810160405280929190818152602001828054610203906111af565b80156102505780601f1061022557610100808354040283529160200191610250565b820191906000526020600020905b81548152906001019060200180831161023357829003601f168201915b50505050508152602001600482018054610269906111af565b80601f0160208091040260200160405190810160405280929190818152602001828054610295906111af565b80156102e25780601f106102b7576101008083540402835291602001916102e2565b820191906000526020600020905b8154815290600101906020018083116102c557829003601f168201915b5050505050815260200160058201548152602001600682018054610305906111af565b80601f0160208091040260200160405190810160405280929190818152602001828054610331906111af565b801561037e5780601f106103535761010080835404028352916020019161037e565b820191906000526020600020905b81548152906001019060200180831161036157829003601f168201915b50505050508152602001600782018054610397906111af565b80601f01602080910402602001604051908101604052809291908181526020018280546103c3906111af565b80156104105780601f106103e557610100808354040283529160200191610410565b820191906000526020600020905b8154815290600101906020018083116103f357829003601f168201915b505050505081526020016008820154815250509050919050565b6060600060015467ffffffffffffffff81111561044a57610449610ec2565b5b60405190808252806020026020018201604052801561048357816020015b610470610a2f565b8152602001906001900390816104685790505b5090506000600190505b60015481116108035760008082815260200190815260200160002060405180610120016040529081600082015481526020016001820160009054906101000a900473ffffffffffffffffffffffffffffffffffffffff1673ffffffffffffffffffffffffffffffffffffffff1673ffffffffffffffffffffffffffffffffffffffff1681526020016002820160009054906101000a900473ffffffffffffffffffffffffffffffffffffffff1673ffffffffffffffffffffffffffffffffffffffff1673ffffffffffffffffffffffffffffffffffffffff16815260200160038201805461057a906111af565b80601f01602080910402602001604051908101604052809291908181526020018280546105a6906111af565b80156105f35780601f106105c8576101008083540402835291602001916105f3565b820191906000526020600020905b8154815290600101906020018083116105d657829003601f168201915b5050505050815260200160048201805461060c906111af565b80601f0160208091040260200160405190810160405280929190818152602001828054610638906111af565b80156106855780601f1061065a57610100808354040283529160200191610685565b820191906000526020600020905b81548152906001019060200180831161066857829003601f168201915b50505050508152602001600582015481526020016006820180546106a8906111af565b80601f01602080910402602001604051908101604052809291908181526020018280546106d4906111af565b80156107215780601f106106f657610100808354040283529160200191610721565b820191906000526020600020905b81548152906001019060200180831161070457829003601f168201915b5050505050815260200160078201805461073a906111af565b80601f0160208091040260200160405190810160405280929190818152602001828054610766906111af565b80156107b35780601f10610788576101008083540402835291602001916107b3565b820191906000526020600020905b81548152906001019060200180831161079657829003601f168201915b50505050508152602001600882015481525050826001836107d4919061120f565b815181106107e5576107e4611243565b5b602002602001018190525080806107fb90611272565b91505061048d565b508091505090565b60008060008481526020019081526020016000209050818160070190816108329190611466565b50428160080181905550505050565b60006001600081548092919061085690611272565b9190505550600060405180610120016040528060015481526020018973ffffffffffffffffffffffffffffffffffffffff1681526020018873ffffffffffffffffffffffffffffffffffffffff1681526020018781526020018681526020018581526020018481526020016040518060400160405280600781526020017f50656e64696e670000000000000000000000000000000000000000000000000081525081526020014281525090508060008060015481526020019081526020016000206000820151816000015560208201518160010160006101000a81548173ffffffffffffffffffffffffffffffffffffffff021916908373ffffffffffffffffffffffffffffffffffffffff16021790555060408201518160020160006101000a81548173ffffffffffffffffffffffffffffffffffffffff021916908373ffffffffffffffffffffffffffffffffffffffff16021790555060608201518160030190816109c49190611466565b5060808201518160040190816109da9190611466565b5060a0820151816005015560c08201518160060190816109fa9190611466565b5060e0820151816007019081610a109190611466565b5061010082015181600801559050506001549150509695505050505050565b60405180610120016040528060008152602001600073ffffffffffffffffffffffffffffffffffffffff168152602001600073ffffffffffffffffffffffffffffffffffffffff1681526020016060815260200160608152602001600081526020016060815260200160608152602001600081525090565b6000604051905090565b600080fd5b600080fd5b6000819050919050565b610ace81610abb565b8114610ad957600080fd5b50565b600081359050610aeb81610ac5565b92915050565b600060208284031215610b0757610b06610ab1565b5b6000610b1584828501610adc565b91505092915050565b610b2781610abb565b82525050565b600073ffffffffffffffffffffffffffffffffffffffff82169050919050565b6000610b5882610b2d565b9050919050565b610b6881610b4d565b82525050565b600081519050919050565b600082825260208201905092915050565b60005b83811015610ba8578082015181840152602081019050610b8d565b60008484015250505050565b6000601f19601f8301169050919050565b6000610bd082610b6e565b610bda8185610b79565b9350610bea818560208601610b8a565b610bf381610bb4565b840191505092915050565b600061012083016000830151610c176000860182610b1e565b506020830151610c2a6020860182610b5f565b506040830151610c3d6040860182610b5f565b5060608301518482036060860152610c558282610bc5565b91505060808301518482036080860152610c6f8282610bc5565b91505060a0830151610c8460a0860182610b1e565b5060c083015184820360c0860152610c9c8282610bc5565b91505060e083015184820360e0860152610cb68282610bc5565b915050610100830151610ccd610100860182610b1e565b508091505092915050565b60006020820190508181036000830152610cf28184610bfe565b905092915050565b600081519050919050565b600082825260208201905092915050565b6000819050602082019050919050565b600061012083016000830151610d3f6000860182610b1e565b506020830151610d526020860182610b5f565b506040830151610d656040860182610b5f565b5060608301518482036060860152610d7d8282610bc5565b91505060808301518482036080860152610d978282610bc5565b91505060a0830151610dac60a0860182610b1e565b5060c083015184820360c0860152610dc48282610bc5565b91505060e083015184820360e0860152610dde8282610bc5565b915050610100830151610df5610100860182610b1e565b508091505092915050565b6000610e0c8383610d26565b905092915050565b6000602082019050919050565b6000610e2c82610cfa565b610e368185610d05565b935083602082028501610e4885610d16565b8060005b85811015610e845784840389528151610e658582610e00565b9450610e7083610e14565b925060208a01995050600181019050610e4c565b50829750879550505050505092915050565b60006020820190508181036000830152610eb08184610e21565b905092915050565b600080fd5b600080fd5b7f4e487b7100000000000000000000000000000000000000000000000000000000600052604160045260246000fd5b610efa82610bb4565b810181811067ffffffffffffffff82111715610f1957610f18610ec2565b5b80604052505050565b6000610f2c610aa7565b9050610f388282610ef1565b919050565b600067ffffffffffffffff821115610f5857610f57610ec2565b5b610f6182610bb4565b9050602081019050919050565b82818337600083830152505050565b6000610f90610f8b84610f3d565b610f22565b905082815260208101848484011115610fac57610fab610ebd565b5b610fb7848285610f6e565b509392505050565b600082601f830112610fd457610fd3610eb8565b5b8135610fe4848260208601610f7d565b91505092915050565b6000806040838503121561100457611003610ab1565b5b600061101285828601610adc565b925050602083013567ffffffffffffffff81111561103357611032610ab6565b5b61103f85828601610fbf565b9150509250929050565b61105281610b4d565b811461105d57600080fd5b50565b60008135905061106f81611049565b92915050565b60008060008060008060c0878903121561109257611091610ab1565b5b60006110a089828a01611060565b96505060206110b189828a01611060565b955050604087013567ffffffffffffffff8111156110d2576110d1610ab6565b5b6110de89828a01610fbf565b945050606087013567ffffffffffffffff8111156110ff576110fe610ab6565b5b61110b89828a01610fbf565b935050608061111c89828a01610adc565b92505060a087013567ffffffffffffffff81111561113d5761113c610ab6565b5b61114989828a01610fbf565b9150509295509295509295565b61115f81610abb565b82525050565b600060208201905061117a6000830184611156565b92915050565b7f4e487b7100000000000000000000000000000000000000000000000000000000600052602260045260246000fd5b600060028204905060018216806111c757607f821691505b6020821081036111da576111d9611180565b5b50919050565b7f4e487b7100000000000000000000000000000000000000000000000000000000600052601160045260246000fd5b600061121a82610abb565b915061122583610abb565b925082820390508181111561123d5761123c6111e0565b5b92915050565b7f4e487b7100000000000000000000000000000000000000000000000000000000600052603260045260246000fd5b600061127d82610abb565b91507fffffffffffffffffffffffffffffffffffffffffffffffffffffffffffffffff82036112af576112ae6111e0565b5b600182019050919050565b60008190508160005260206000209050919050565b60006020601f8301049050919050565b600082821b905092915050565b60006008830261131c7fffffffffffffffffffffffffffffffffffffffffffffffffffffffffffffffff826112df565b61132686836112df565b95508019841693508086168417925050509392505050565b6000819050919050565b600061136361135e61135984610abb565b61133e565b610abb565b9050919050565b6000819050919050565b61137d83611348565b6113916113898261136a565b8484546112ec565b825550505050565b600090565b6113a6611399565b6113b1818484611374565b505050565b5b818110156113d5576113ca60008261139e565b6001810190506113b7565b5050565b601f82111561141a576113eb816112ba565b6113f4846112cf565b81016020851015611403578190505b61141761140f856112cf565b8301826113b6565b50505b505050565b600082821c905092915050565b600061143d6000198460080261141f565b1980831691505092915050565b6000611456838361142c565b9150826002028217905092915050565b61146f82610b6e565b67ffffffffffffffff81111561148857611487610ec2565b5b61149282546111af565b61149d8282856113d9565b600060209050601f8311600181146114d057600084156114be578287015190505b6114c8858261144a565b865550611530565b601f1984166114de866112ba565b60005b82811015611506578489015182556001820191506020850194506020810190506114e1565b86831015611523578489015161151f601f89168261142c565b8355505b6001600288020188555050505b50505050505056fea264697066735822122067818ce14fdf9c5af8d35deb26f6cf06228a5b5a476cbd895048aeaa75c77dc264736f6c63430008120033",
  "immutableReferences": {},
  "source": "// SPDX-License-Identifier: GPL-3.0\r\npragma solidity ^0.8.0;\r\n\r\ncontract RawMaterialOrder {\r\n    struct OrderRawMaterial {\r\n        uint orderID;\r\n        address manufacturerID;\r\n        address supplierID;\r\n        string manufacturerName;\r\n        string orderDetails;\r\n        uint totalPrice;\r\n        string orderTime;\r\n        string orderStatus;\r\n        uint orderStatusUpdateTime;\r\n    }\r\n\r\n    mapping(uint => OrderRawMaterial) orderRawMaterials;\r\n    uint orderRawMaterialCounter;\r\n\r\nfunction placeOrderRawMaterial(\r\n        address _manufacturerID,\r\n        address _supplierID,\r\n        string memory _manufacturerName,\r\n        string memory _orderDetails,\r\n        uint _totalPrice,\r\n        string memory _orderTime\r\n    ) public returns (uint) {\r\n        orderRawMaterialCounter++;\r\n        OrderRawMaterial memory order = OrderRawMaterial(\r\n            orderRawMaterialCounter,\r\n            _manufacturerID,\r\n            _supplierID,\r\n            _manufacturerName,\r\n            _orderDetails,\r\n            _totalPrice,\r\n            _orderTime,\r\n            \"Pending\",\r\n            block.timestamp\r\n        );\r\n        orderRawMaterials[orderRawMaterialCounter] = order;\r\n        return orderRawMaterialCounter;\r\n    }\r\n\r\n\r\n    function updateOrderStatus(uint _orderID, string memory _orderStatus) public {\r\n        OrderRawMaterial storage order = orderRawMaterials[_orderID];\r\n        order.orderStatus = _orderStatus;\r\n        order.orderStatusUpdateTime = block.timestamp;\r\n    }\r\n\r\n    function getOrderRawMaterialDetails(uint _orderID) public view returns (OrderRawMaterial memory) {\r\n        return orderRawMaterials[_orderID];\r\n    }\r\n\r\n    function getAllOrderRawMaterialDetails() public view returns (OrderRawMaterial[] memory) {\r\n        OrderRawMaterial[] memory allOrders = new OrderRawMaterial[](orderRawMaterialCounter);\r\n        for (uint i = 1; i <= orderRawMaterialCounter; i++) {\r\n            allOrders[i-1] = orderRawMaterials[i];\r\n        }\r\n        return allOrders;\r\n    }\r\n}\r\n",
  "sourcePath": "E:\\Solidity\\mscm\\blockchain\\contracts\\RawMaterialOrder.sol",
  "compiler": {
    "name": "solc",
    "version": "0.8.18+commit.87f61d96.Emscripten.clang"
  },
  "schemaVersion": "3.4.13",
  "updatedAt": "2023-05-13T17:55:15.284Z",
  "devdoc": {
    "kind": "dev",
    "methods": {},
    "version": 1
  },
  "userdoc": {
    "kind": "user",
    "methods": {},
    "version": 1
  }
}