{
  "contractName": "Retailor",
  "abi": [
    {
      "anonymous": false,
      "inputs": [
        {
          "indexed": true,
          "internalType": "uint256",
          "name": "retailOrderID",
          "type": "uint256"
        },
        {
          "indexed": false,
          "internalType": "string",
          "name": "message",
          "type": "string"
        }
      ],
      "name": "RetailOrderPlaced",
      "type": "event"
    },
    {
      "inputs": [],
      "name": "retailorCounter",
      "outputs": [
        {
          "internalType": "uint256",
          "name": "",
          "type": "uint256"
        }
      ],
      "stateMutability": "view",
      "type": "function",
      "constant": true
    },
    {
      "inputs": [
        {
          "internalType": "uint256",
          "name": "",
          "type": "uint256"
        }
      ],
      "name": "retailorOrderStruct",
      "outputs": [
        {
          "internalType": "uint256",
          "name": "retailorOrderID",
          "type": "uint256"
        },
        {
          "internalType": "address",
          "name": "retailorAddress",
          "type": "address"
        },
        {
          "internalType": "string",
          "name": "retailorName",
          "type": "string"
        },
        {
          "internalType": "string",
          "name": "retailorLocation",
          "type": "string"
        },
        {
          "internalType": "address",
          "name": "distributorAddress",
          "type": "address"
        },
        {
          "internalType": "string",
          "name": "uniqueIdentifier",
          "type": "string"
        },
        {
          "internalType": "string",
          "name": "medicineDetails",
          "type": "string"
        },
        {
          "internalType": "string",
          "name": "retailorOrderDateTime",
          "type": "string"
        },
        {
          "internalType": "string",
          "name": "retailorOrderStatus",
          "type": "string"
        },
        {
          "internalType": "string",
          "name": "OrderAcceptRejectDate",
          "type": "string"
        },
        {
          "internalType": "string",
          "name": "retailorPurchasetotalPrice",
          "type": "string"
        },
        {
          "internalType": "string",
          "name": "orderHistory",
          "type": "string"
        }
      ],
      "stateMutability": "view",
      "type": "function",
      "constant": true
    },
    {
      "inputs": [
        {
          "internalType": "uint256",
          "name": "",
          "type": "uint256"
        }
      ],
      "name": "sellMedicines",
      "outputs": [
        {
          "internalType": "uint256",
          "name": "sellID",
          "type": "uint256"
        },
        {
          "internalType": "string",
          "name": "medicineOrderHistory",
          "type": "string"
        },
        {
          "internalType": "string",
          "name": "medicineDetails",
          "type": "string"
        },
        {
          "internalType": "address",
          "name": "retailorAddress",
          "type": "address"
        },
        {
          "internalType": "address",
          "name": "customerAddress",
          "type": "address"
        },
        {
          "internalType": "string",
          "name": "customerEmailAddress",
          "type": "string"
        },
        {
          "internalType": "string",
          "name": "customerName",
          "type": "string"
        },
        {
          "internalType": "string",
          "name": "sellStatus",
          "type": "string"
        },
        {
          "internalType": "uint256",
          "name": "medicinePrice",
          "type": "uint256"
        },
        {
          "internalType": "string",
          "name": "customerOrderDate",
          "type": "string"
        },
        {
          "internalType": "string",
          "name": "uniqueIdentifier",
          "type": "string"
        }
      ],
      "stateMutability": "view",
      "type": "function",
      "constant": true
    },
    {
      "inputs": [
        {
          "components": [
            {
              "internalType": "uint256",
              "name": "retailorOrderID",
              "type": "uint256"
            },
            {
              "internalType": "address",
              "name": "retailorAddress",
              "type": "address"
            },
            {
              "internalType": "string",
              "name": "retailorName",
              "type": "string"
            },
            {
              "internalType": "string",
              "name": "retailorLocation",
              "type": "string"
            },
            {
              "internalType": "address",
              "name": "distributorAddress",
              "type": "address"
            },
            {
              "internalType": "string",
              "name": "uniqueIdentifier",
              "type": "string"
            },
            {
              "internalType": "string",
              "name": "medicineDetails",
              "type": "string"
            },
            {
              "internalType": "string",
              "name": "retailorOrderDateTime",
              "type": "string"
            },
            {
              "internalType": "string",
              "name": "retailorOrderStatus",
              "type": "string"
            },
            {
              "internalType": "string",
              "name": "OrderAcceptRejectDate",
              "type": "string"
            },
            {
              "internalType": "string",
              "name": "retailorPurchasetotalPrice",
              "type": "string"
            },
            {
              "internalType": "string",
              "name": "orderHistory",
              "type": "string"
            }
          ],
          "internalType": "struct Retailor.retailorMedicine[]",
          "name": "_retailorMedicines",
          "type": "tuple[]"
        }
      ],
      "name": "placeRetailorOrder",
      "outputs": [],
      "stateMutability": "nonpayable",
      "type": "function"
    },
    {
      "inputs": [
        {
          "internalType": "string",
          "name": "_uniqueIdentifier",
          "type": "string"
        },
        {
          "internalType": "string",
          "name": "_medicineDetails",
          "type": "string"
        }
      ],
      "name": "updateMedicinePrice",
      "outputs": [],
      "stateMutability": "nonpayable",
      "type": "function"
    },
    {
      "inputs": [
        {
          "internalType": "uint256",
          "name": "_retailorOrderID",
          "type": "uint256"
        },
        {
          "internalType": "string",
          "name": "_retailorOrderStatus",
          "type": "string"
        },
        {
          "internalType": "string",
          "name": "_OrderAcceptRejectDate",
          "type": "string"
        }
      ],
      "name": "AcceptRejectOrder",
      "outputs": [],
      "stateMutability": "nonpayable",
      "type": "function"
    },
    {
      "inputs": [],
      "name": "getAllOrder",
      "outputs": [
        {
          "components": [
            {
              "internalType": "uint256",
              "name": "retailorOrderID",
              "type": "uint256"
            },
            {
              "internalType": "address",
              "name": "retailorAddress",
              "type": "address"
            },
            {
              "internalType": "string",
              "name": "retailorName",
              "type": "string"
            },
            {
              "internalType": "string",
              "name": "retailorLocation",
              "type": "string"
            },
            {
              "internalType": "address",
              "name": "distributorAddress",
              "type": "address"
            },
            {
              "internalType": "string",
              "name": "uniqueIdentifier",
              "type": "string"
            },
            {
              "internalType": "string",
              "name": "medicineDetails",
              "type": "string"
            },
            {
              "internalType": "string",
              "name": "retailorOrderDateTime",
              "type": "string"
            },
            {
              "internalType": "string",
              "name": "retailorOrderStatus",
              "type": "string"
            },
            {
              "internalType": "string",
              "name": "OrderAcceptRejectDate",
              "type": "string"
            },
            {
              "internalType": "string",
              "name": "retailorPurchasetotalPrice",
              "type": "string"
            },
            {
              "internalType": "string",
              "name": "orderHistory",
              "type": "string"
            }
          ],
          "internalType": "struct Retailor.retailorMedicine[]",
          "name": "",
          "type": "tuple[]"
        }
      ],
      "stateMutability": "view",
      "type": "function",
      "constant": true
    },
    {
      "inputs": [
        {
          "internalType": "string",
          "name": "_uniqueIdentifier",
          "type": "string"
        }
      ],
      "name": "findMedicine",
      "outputs": [
        {
          "components": [
            {
              "internalType": "uint256",
              "name": "retailorOrderID",
              "type": "uint256"
            },
            {
              "internalType": "address",
              "name": "retailorAddress",
              "type": "address"
            },
            {
              "internalType": "string",
              "name": "retailorName",
              "type": "string"
            },
            {
              "internalType": "string",
              "name": "retailorLocation",
              "type": "string"
            },
            {
              "internalType": "address",
              "name": "distributorAddress",
              "type": "address"
            },
            {
              "internalType": "string",
              "name": "uniqueIdentifier",
              "type": "string"
            },
            {
              "internalType": "string",
              "name": "medicineDetails",
              "type": "string"
            },
            {
              "internalType": "string",
              "name": "retailorOrderDateTime",
              "type": "string"
            },
            {
              "internalType": "string",
              "name": "retailorOrderStatus",
              "type": "string"
            },
            {
              "internalType": "string",
              "name": "OrderAcceptRejectDate",
              "type": "string"
            },
            {
              "internalType": "string",
              "name": "retailorPurchasetotalPrice",
              "type": "string"
            },
            {
              "internalType": "string",
              "name": "orderHistory",
              "type": "string"
            }
          ],
          "internalType": "struct Retailor.retailorMedicine",
          "name": "",
          "type": "tuple"
        }
      ],
      "stateMutability": "view",
      "type": "function",
      "constant": true
    },
    {
      "inputs": [
        {
          "components": [
            {
              "internalType": "uint256",
              "name": "sellID",
              "type": "uint256"
            },
            {
              "internalType": "string",
              "name": "medicineOrderHistory",
              "type": "string"
            },
            {
              "internalType": "string",
              "name": "medicineDetails",
              "type": "string"
            },
            {
              "internalType": "address",
              "name": "retailorAddress",
              "type": "address"
            },
            {
              "internalType": "address",
              "name": "customerAddress",
              "type": "address"
            },
            {
              "internalType": "string",
              "name": "customerEmailAddress",
              "type": "string"
            },
            {
              "internalType": "string",
              "name": "customerName",
              "type": "string"
            },
            {
              "internalType": "string",
              "name": "sellStatus",
              "type": "string"
            },
            {
              "internalType": "uint256",
              "name": "medicinePrice",
              "type": "uint256"
            },
            {
              "internalType": "string",
              "name": "customerOrderDate",
              "type": "string"
            },
            {
              "internalType": "string",
              "name": "uniqueIdentifier",
              "type": "string"
            }
          ],
          "internalType": "struct Retailor.SellMedicine[]",
          "name": "_sellMedicines",
          "type": "tuple[]"
        }
      ],
      "name": "sellInventoryMedicine",
      "outputs": [],
      "stateMutability": "nonpayable",
      "type": "function"
    },
    {
      "inputs": [
        {
          "internalType": "address",
          "name": "_customerAddress",
          "type": "address"
        }
      ],
      "name": "getCustomerMedicine",
      "outputs": [
        {
          "components": [
            {
              "internalType": "uint256",
              "name": "sellID",
              "type": "uint256"
            },
            {
              "internalType": "string",
              "name": "medicineOrderHistory",
              "type": "string"
            },
            {
              "internalType": "string",
              "name": "medicineDetails",
              "type": "string"
            },
            {
              "internalType": "address",
              "name": "retailorAddress",
              "type": "address"
            },
            {
              "internalType": "address",
              "name": "customerAddress",
              "type": "address"
            },
            {
              "internalType": "string",
              "name": "customerEmailAddress",
              "type": "string"
            },
            {
              "internalType": "string",
              "name": "customerName",
              "type": "string"
            },
            {
              "internalType": "string",
              "name": "sellStatus",
              "type": "string"
            },
            {
              "internalType": "uint256",
              "name": "medicinePrice",
              "type": "uint256"
            },
            {
              "internalType": "string",
              "name": "customerOrderDate",
              "type": "string"
            },
            {
              "internalType": "string",
              "name": "uniqueIdentifier",
              "type": "string"
            }
          ],
          "internalType": "struct Retailor.SellMedicine[]",
          "name": "",
          "type": "tuple[]"
        }
      ],
      "stateMutability": "view",
      "type": "function",
      "constant": true
    },
    {
      "inputs": [],
      "name": "getAllSellMedicine",
      "outputs": [
        {
          "components": [
            {
              "internalType": "uint256",
              "name": "sellID",
              "type": "uint256"
            },
            {
              "internalType": "string",
              "name": "medicineOrderHistory",
              "type": "string"
            },
            {
              "internalType": "string",
              "name": "medicineDetails",
              "type": "string"
            },
            {
              "internalType": "address",
              "name": "retailorAddress",
              "type": "address"
            },
            {
              "internalType": "address",
              "name": "customerAddress",
              "type": "address"
            },
            {
              "internalType": "string",
              "name": "customerEmailAddress",
              "type": "string"
            },
            {
              "internalType": "string",
              "name": "customerName",
              "type": "string"
            },
            {
              "internalType": "string",
              "name": "sellStatus",
              "type": "string"
            },
            {
              "internalType": "uint256",
              "name": "medicinePrice",
              "type": "uint256"
            },
            {
              "internalType": "string",
              "name": "customerOrderDate",
              "type": "string"
            },
            {
              "internalType": "string",
              "name": "uniqueIdentifier",
              "type": "string"
            }
          ],
          "internalType": "struct Retailor.SellMedicine[]",
          "name": "",
          "type": "tuple[]"
        }
      ],
      "stateMutability": "view",
      "type": "function",
      "constant": true
    },
    {
      "inputs": [
        {
          "internalType": "string",
          "name": "_uniqueIdentifier",
          "type": "string"
        }
      ],
      "name": "customerFindMedicine",
      "outputs": [
        {
          "components": [
            {
              "internalType": "uint256",
              "name": "sellID",
              "type": "uint256"
            },
            {
              "internalType": "string",
              "name": "medicineOrderHistory",
              "type": "string"
            },
            {
              "internalType": "string",
              "name": "medicineDetails",
              "type": "string"
            },
            {
              "internalType": "address",
              "name": "retailorAddress",
              "type": "address"
            },
            {
              "internalType": "address",
              "name": "customerAddress",
              "type": "address"
            },
            {
              "internalType": "string",
              "name": "customerEmailAddress",
              "type": "string"
            },
            {
              "internalType": "string",
              "name": "customerName",
              "type": "string"
            },
            {
              "internalType": "string",
              "name": "sellStatus",
              "type": "string"
            },
            {
              "internalType": "uint256",
              "name": "medicinePrice",
              "type": "uint256"
            },
            {
              "internalType": "string",
              "name": "customerOrderDate",
              "type": "string"
            },
            {
              "internalType": "string",
              "name": "uniqueIdentifier",
              "type": "string"
            }
          ],
          "internalType": "struct Retailor.SellMedicine",
          "name": "",
          "type": "tuple"
        }
      ],
      "stateMutability": "view",
      "type": "function",
      "constant": true
    }
  ],
  "bytecode": "0x608060405260018055600160025534801561001957600080fd5b5061511d806100296000396000f3fe608060405234801561001057600080fd5b50600436106100b45760003560e01c80639ca68729116100715780639ca6872914610184578063b805aa86146101b4578063bf5b524d146101d0578063c40a7fe4146101ee578063ce5132f414610228578063dc2a79af14610258576100b4565b8063261ad671146100b95780632caeb91a146100f45780633087e9ce146101105780633dfbbad41461012e5780636d9878cf1461014c578063776ebf0a14610168575b600080fd5b6100d360048036038101906100ce9190613655565b610288565b6040516100eb9c9b9a99989796959493929190613762565b60405180910390f35b61010e60048036038101906101099190613990565b6107f0565b005b61011861092b565b6040516101259190613a08565b60405180910390f35b610136610931565b6040516101439190613c89565b60405180910390f35b61016660048036038101906101619190613fe5565b610fe4565b005b610182600480360381019061017d91906142df565b6113ba565b005b61019e60048036038101906101999190614328565b6116fb565b6040516101ab9190614530565b60405180910390f35b6101ce60048036038101906101c99190614552565b611d99565b005b6101d8611edf565b6040516101e59190614530565b60405180910390f35b61020860048036038101906102039190613655565b61247a565b60405161021f9b9a999897969594939291906145dd565b60405180910390f35b610242600480360381019061023d91906146b9565b6128cc565b60405161024f919061481b565b60405180910390f35b610272600480360381019061026d91906146b9565b612e56565b60405161027f9190614979565b60405180910390f35b60006020528060005260406000206000915090508060000154908060010160009054906101000a900473ffffffffffffffffffffffffffffffffffffffff16908060020180546102d7906149ca565b80601f0160208091040260200160405190810160405280929190818152602001828054610303906149ca565b80156103505780601f1061032557610100808354040283529160200191610350565b820191906000526020600020905b81548152906001019060200180831161033357829003601f168201915b505050505090806003018054610365906149ca565b80601f0160208091040260200160405190810160405280929190818152602001828054610391906149ca565b80156103de5780601f106103b3576101008083540402835291602001916103de565b820191906000526020600020905b8154815290600101906020018083116103c157829003601f168201915b5050505050908060040160009054906101000a900473ffffffffffffffffffffffffffffffffffffffff1690806005018054610419906149ca565b80601f0160208091040260200160405190810160405280929190818152602001828054610445906149ca565b80156104925780601f1061046757610100808354040283529160200191610492565b820191906000526020600020905b81548152906001019060200180831161047557829003601f168201915b5050505050908060060180546104a7906149ca565b80601f01602080910402602001604051908101604052809291908181526020018280546104d3906149ca565b80156105205780601f106104f557610100808354040283529160200191610520565b820191906000526020600020905b81548152906001019060200180831161050357829003601f168201915b505050505090806007018054610535906149ca565b80601f0160208091040260200160405190810160405280929190818152602001828054610561906149ca565b80156105ae5780601f10610583576101008083540402835291602001916105ae565b820191906000526020600020905b81548152906001019060200180831161059157829003601f168201915b5050505050908060080180546105c3906149ca565b80601f01602080910402602001604051908101604052809291908181526020018280546105ef906149ca565b801561063c5780601f106106115761010080835404028352916020019161063c565b820191906000526020600020905b81548152906001019060200180831161061f57829003601f168201915b505050505090806009018054610651906149ca565b80601f016020809104026020016040519081016040528092919081815260200182805461067d906149ca565b80156106ca5780601f1061069f576101008083540402835291602001916106ca565b820191906000526020600020905b8154815290600101906020018083116106ad57829003601f168201915b50505050509080600a0180546106df906149ca565b80601f016020809104026020016040519081016040528092919081815260200182805461070b906149ca565b80156107585780601f1061072d57610100808354040283529160200191610758565b820191906000526020600020905b81548152906001019060200180831161073b57829003601f168201915b50505050509080600b01805461076d906149ca565b80601f0160208091040260200160405190810160405280929190818152602001828054610799906149ca565b80156107e65780601f106107bb576101008083540402835291602001916107e6565b820191906000526020600020905b8154815290600101906020018083116107c957829003601f168201915b505050505090508c565b600080600190505b6001548110156108e557838051906020012060008083815260200190815260200160002060050160405161082c9190614a9e565b60405180910390201480156108a157503373ffffffffffffffffffffffffffffffffffffffff1660008083815260200190815260200160002060010160009054906101000a900473ffffffffffffffffffffffffffffffffffffffff1673ffffffffffffffffffffffffffffffffffffffff16145b156108d257600191508260008083815260200190815260200160002060060190816108cc9190614c61565b506108e5565b80806108dd90614d62565b9150506107f8565b5080610926576040517f08c379a000000000000000000000000000000000000000000000000000000000815260040161091d90614e42565b60405180910390fd5b505050565b60015481565b60606000600180546109439190614e62565b67ffffffffffffffff81111561095c5761095b613865565b5b60405190808252806020026020018201604052801561099557816020015b6109826134f8565b81526020019060019003908161097a5790505b5090506000600190505b600154811015610fdc5760008082815260200190815260200160002060405180610180016040529081600082015481526020016001820160009054906101000a900473ffffffffffffffffffffffffffffffffffffffff1673ffffffffffffffffffffffffffffffffffffffff1673ffffffffffffffffffffffffffffffffffffffff168152602001600282018054610a37906149ca565b80601f0160208091040260200160405190810160405280929190818152602001828054610a63906149ca565b8015610ab05780601f10610a8557610100808354040283529160200191610ab0565b820191906000526020600020905b815481529060010190602001808311610a9357829003601f168201915b50505050508152602001600382018054610ac9906149ca565b80601f0160208091040260200160405190810160405280929190818152602001828054610af5906149ca565b8015610b425780601f10610b1757610100808354040283529160200191610b42565b820191906000526020600020905b815481529060010190602001808311610b2557829003601f168201915b505050505081526020016004820160009054906101000a900473ffffffffffffffffffffffffffffffffffffffff1673ffffffffffffffffffffffffffffffffffffffff1673ffffffffffffffffffffffffffffffffffffffff168152602001600582018054610bb1906149ca565b80601f0160208091040260200160405190810160405280929190818152602001828054610bdd906149ca565b8015610c2a5780601f10610bff57610100808354040283529160200191610c2a565b820191906000526020600020905b815481529060010190602001808311610c0d57829003601f168201915b50505050508152602001600682018054610c43906149ca565b80601f0160208091040260200160405190810160405280929190818152602001828054610c6f906149ca565b8015610cbc5780601f10610c9157610100808354040283529160200191610cbc565b820191906000526020600020905b815481529060010190602001808311610c9f57829003601f168201915b50505050508152602001600782018054610cd5906149ca565b80601f0160208091040260200160405190810160405280929190818152602001828054610d01906149ca565b8015610d4e5780601f10610d2357610100808354040283529160200191610d4e565b820191906000526020600020905b815481529060010190602001808311610d3157829003601f168201915b50505050508152602001600882018054610d67906149ca565b80601f0160208091040260200160405190810160405280929190818152602001828054610d93906149ca565b8015610de05780601f10610db557610100808354040283529160200191610de0565b820191906000526020600020905b815481529060010190602001808311610dc357829003601f168201915b50505050508152602001600982018054610df9906149ca565b80601f0160208091040260200160405190810160405280929190818152602001828054610e25906149ca565b8015610e725780601f10610e4757610100808354040283529160200191610e72565b820191906000526020600020905b815481529060010190602001808311610e5557829003601f168201915b50505050508152602001600a82018054610e8b906149ca565b80601f0160208091040260200160405190810160405280929190818152602001828054610eb7906149ca565b8015610f045780601f10610ed957610100808354040283529160200191610f04565b820191906000526020600020905b815481529060010190602001808311610ee757829003601f168201915b50505050508152602001600b82018054610f1d906149ca565b80601f0160208091040260200160405190810160405280929190818152602001828054610f49906149ca565b8015610f965780601f10610f6b57610100808354040283529160200191610f96565b820191906000526020600020905b815481529060010190602001808311610f7957829003601f168201915b50505050508152505082600183610fad9190614e62565b81518110610fbe57610fbd614e96565b5b60200260200101819052508080610fd490614d62565b91505061099f565b508091505090565b60005b81518110156113b6576000604051806101800160405280600154815260200184848151811061101957611018614e96565b5b60200260200101516020015173ffffffffffffffffffffffffffffffffffffffff16815260200184848151811061105357611052614e96565b5b602002602001015160400151815260200184848151811061107757611076614e96565b5b602002602001015160600151815260200184848151811061109b5761109a614e96565b5b60200260200101516080015173ffffffffffffffffffffffffffffffffffffffff1681526020018484815181106110d5576110d4614e96565b5b602002602001015160a0015181526020018484815181106110f9576110f8614e96565b5b602002602001015160c00151815260200184848151811061111d5761111c614e96565b5b602002602001015160e0015181526020016040518060400160405280600781526020017f50656e64696e6700000000000000000000000000000000000000000000000000815250815260200184848151811061117c5761117b614e96565b5b6020026020010151610120015181526020018484815181106111a1576111a0614e96565b5b6020026020010151610140015181526020018484815181106111c6576111c5614e96565b5b6020026020010151610160015181525090508060008060015481526020019081526020016000206000820151816000015560208201518160010160006101000a81548173ffffffffffffffffffffffffffffffffffffffff021916908373ffffffffffffffffffffffffffffffffffffffff16021790555060408201518160020190816112539190614c61565b5060608201518160030190816112699190614c61565b5060808201518160040160006101000a81548173ffffffffffffffffffffffffffffffffffffffff021916908373ffffffffffffffffffffffffffffffffffffffff16021790555060a08201518160050190816112c69190614c61565b5060c08201518160060190816112dc9190614c61565b5060e08201518160070190816112f29190614c61565b506101008201518160080190816113099190614c61565b506101208201518160090190816113209190614c61565b5061014082015181600a0190816113379190614c61565b5061016082015181600b01908161134e9190614c61565b509050506001547f2f604f9accfcdf258a68984e7cb1474c1f0b202d051caf696111364254578abb60405161138290614f11565b60405180910390a26001600081548092919061139d90614d62565b91905055505080806113ae90614d62565b915050610fe7565b5050565b60005b81518110156116f757600060405180610160016040528060025481526020018484815181106113ef576113ee614e96565b5b602002602001015160200151815260200184848151811061141357611412614e96565b5b602002602001015160400151815260200184848151811061143757611436614e96565b5b60200260200101516060015173ffffffffffffffffffffffffffffffffffffffff16815260200184848151811061147157611470614e96565b5b60200260200101516080015173ffffffffffffffffffffffffffffffffffffffff1681526020018484815181106114ab576114aa614e96565b5b602002602001015160a0015181526020018484815181106114cf576114ce614e96565b5b602002602001015160c0015181526020018484815181106114f3576114f2614e96565b5b602002602001015160e00151815260200184848151811061151757611516614e96565b5b60200260200101516101000151815260200184848151811061153c5761153b614e96565b5b60200260200101516101200151815260200184848151811061156157611560614e96565b5b602002602001015161014001518152509050806003600060025481526020019081526020016000206000820151816000015560208201518160010190816115a89190614c61565b5060408201518160020190816115be9190614c61565b5060608201518160030160006101000a81548173ffffffffffffffffffffffffffffffffffffffff021916908373ffffffffffffffffffffffffffffffffffffffff16021790555060808201518160040160006101000a81548173ffffffffffffffffffffffffffffffffffffffff021916908373ffffffffffffffffffffffffffffffffffffffff16021790555060a08201518160050190816116629190614c61565b5060c08201518160060190816116789190614c61565b5060e082015181600701908161168e9190614c61565b5061010082015181600801556101208201518160090190816116b09190614c61565b5061014082015181600a0190816116c79190614c61565b50905050600260008154809291906116de90614d62565b91905055505080806116ef90614d62565b9150506113bd565b5050565b6060600080600190505b60025481101561179a578373ffffffffffffffffffffffffffffffffffffffff166003600083815260200190815260200160002060040160009054906101000a900473ffffffffffffffffffffffffffffffffffffffff1673ffffffffffffffffffffffffffffffffffffffff160361178757818061178390614d62565b9250505b808061179290614d62565b915050611705565b5060008167ffffffffffffffff8111156117b7576117b6613865565b5b6040519080825280602002602001820160405280156117f057816020015b6117dd613585565b8152602001906001900390816117d55790505b509050600091506000600190505b600254811015611d8e578473ffffffffffffffffffffffffffffffffffffffff166003600083815260200190815260200160002060040160009054906101000a900473ffffffffffffffffffffffffffffffffffffffff1673ffffffffffffffffffffffffffffffffffffffff1603611d7b576003600082815260200190815260200160002060405180610160016040529081600082015481526020016001820180546118aa906149ca565b80601f01602080910402602001604051908101604052809291908181526020018280546118d6906149ca565b80156119235780601f106118f857610100808354040283529160200191611923565b820191906000526020600020905b81548152906001019060200180831161190657829003601f168201915b5050505050815260200160028201805461193c906149ca565b80601f0160208091040260200160405190810160405280929190818152602001828054611968906149ca565b80156119b55780601f1061198a576101008083540402835291602001916119b5565b820191906000526020600020905b81548152906001019060200180831161199857829003601f168201915b505050505081526020016003820160009054906101000a900473ffffffffffffffffffffffffffffffffffffffff1673ffffffffffffffffffffffffffffffffffffffff1673ffffffffffffffffffffffffffffffffffffffff1681526020016004820160009054906101000a900473ffffffffffffffffffffffffffffffffffffffff1673ffffffffffffffffffffffffffffffffffffffff1673ffffffffffffffffffffffffffffffffffffffff168152602001600582018054611a7a906149ca565b80601f0160208091040260200160405190810160405280929190818152602001828054611aa6906149ca565b8015611af35780601f10611ac857610100808354040283529160200191611af3565b820191906000526020600020905b815481529060010190602001808311611ad657829003601f168201915b50505050508152602001600682018054611b0c906149ca565b80601f0160208091040260200160405190810160405280929190818152602001828054611b38906149ca565b8015611b855780601f10611b5a57610100808354040283529160200191611b85565b820191906000526020600020905b815481529060010190602001808311611b6857829003601f168201915b50505050508152602001600782018054611b9e906149ca565b80601f0160208091040260200160405190810160405280929190818152602001828054611bca906149ca565b8015611c175780601f10611bec57610100808354040283529160200191611c17565b820191906000526020600020905b815481529060010190602001808311611bfa57829003601f168201915b5050505050815260200160088201548152602001600982018054611c3a906149ca565b80601f0160208091040260200160405190810160405280929190818152602001828054611c66906149ca565b8015611cb35780601f10611c8857610100808354040283529160200191611cb3565b820191906000526020600020905b815481529060010190602001808311611c9657829003601f168201915b50505050508152602001600a82018054611ccc906149ca565b80601f0160208091040260200160405190810160405280929190818152602001828054611cf8906149ca565b8015611d455780601f10611d1a57610100808354040283529160200191611d45565b820191906000526020600020905b815481529060010190602001808311611d2857829003601f168201915b505050505081525050828481518110611d6157611d60614e96565b5b60200260200101819052508280611d7790614d62565b9350505b8080611d8690614d62565b9150506117fe565b508092505050919050565b60008060008581526020019081526020016000206000015403611df1576040517f08c379a0000000000000000000000000000000000000000000000000000000008152600401611de890614f7d565b60405180910390fd5b60008084815260200190815260200160002060040160009054906101000a900473ffffffffffffffffffffffffffffffffffffffff1673ffffffffffffffffffffffffffffffffffffffff163373ffffffffffffffffffffffffffffffffffffffff1614611e94576040517f08c379a0000000000000000000000000000000000000000000000000000000008152600401611e8b90615035565b60405180910390fd5b816000808581526020019081526020016000206008019081611eb69190614c61565b50806000808581526020019081526020016000206009019081611ed99190614c61565b50505050565b606060006001600254611ef29190614e62565b67ffffffffffffffff811115611f0b57611f0a613865565b5b604051908082528060200260200182016040528015611f4457816020015b611f31613585565b815260200190600190039081611f295790505b5090506000600190505b60025481101561247257600360008281526020019081526020016000206040518061016001604052908160008201548152602001600182018054611f91906149ca565b80601f0160208091040260200160405190810160405280929190818152602001828054611fbd906149ca565b801561200a5780601f10611fdf5761010080835404028352916020019161200a565b820191906000526020600020905b815481529060010190602001808311611fed57829003601f168201915b50505050508152602001600282018054612023906149ca565b80601f016020809104026020016040519081016040528092919081815260200182805461204f906149ca565b801561209c5780601f106120715761010080835404028352916020019161209c565b820191906000526020600020905b81548152906001019060200180831161207f57829003601f168201915b505050505081526020016003820160009054906101000a900473ffffffffffffffffffffffffffffffffffffffff1673ffffffffffffffffffffffffffffffffffffffff1673ffffffffffffffffffffffffffffffffffffffff1681526020016004820160009054906101000a900473ffffffffffffffffffffffffffffffffffffffff1673ffffffffffffffffffffffffffffffffffffffff1673ffffffffffffffffffffffffffffffffffffffff168152602001600582018054612161906149ca565b80601f016020809104026020016040519081016040528092919081815260200182805461218d906149ca565b80156121da5780601f106121af576101008083540402835291602001916121da565b820191906000526020600020905b8154815290600101906020018083116121bd57829003601f168201915b505050505081526020016006820180546121f3906149ca565b80601f016020809104026020016040519081016040528092919081815260200182805461221f906149ca565b801561226c5780601f106122415761010080835404028352916020019161226c565b820191906000526020600020905b81548152906001019060200180831161224f57829003601f168201915b50505050508152602001600782018054612285906149ca565b80601f01602080910402602001604051908101604052809291908181526020018280546122b1906149ca565b80156122fe5780601f106122d3576101008083540402835291602001916122fe565b820191906000526020600020905b8154815290600101906020018083116122e157829003601f168201915b5050505050815260200160088201548152602001600982018054612321906149ca565b80601f016020809104026020016040519081016040528092919081815260200182805461234d906149ca565b801561239a5780601f1061236f5761010080835404028352916020019161239a565b820191906000526020600020905b81548152906001019060200180831161237d57829003601f168201915b50505050508152602001600a820180546123b3906149ca565b80601f01602080910402602001604051908101604052809291908181526020018280546123df906149ca565b801561242c5780601f106124015761010080835404028352916020019161242c565b820191906000526020600020905b81548152906001019060200180831161240f57829003601f168201915b505050505081525050826001836124439190614e62565b8151811061245457612453614e96565b5b6020026020010181905250808061246a90614d62565b915050611f4e565b508091505090565b60036020528060005260406000206000915090508060000154908060010180546124a3906149ca565b80601f01602080910402602001604051908101604052809291908181526020018280546124cf906149ca565b801561251c5780601f106124f15761010080835404028352916020019161251c565b820191906000526020600020905b8154815290600101906020018083116124ff57829003601f168201915b505050505090806002018054612531906149ca565b80601f016020809104026020016040519081016040528092919081815260200182805461255d906149ca565b80156125aa5780601f1061257f576101008083540402835291602001916125aa565b820191906000526020600020905b81548152906001019060200180831161258d57829003601f168201915b5050505050908060030160009054906101000a900473ffffffffffffffffffffffffffffffffffffffff16908060040160009054906101000a900473ffffffffffffffffffffffffffffffffffffffff169080600501805461260b906149ca565b80601f0160208091040260200160405190810160405280929190818152602001828054612637906149ca565b80156126845780601f1061265957610100808354040283529160200191612684565b820191906000526020600020905b81548152906001019060200180831161266757829003601f168201915b505050505090806006018054612699906149ca565b80601f01602080910402602001604051908101604052809291908181526020018280546126c5906149ca565b80156127125780601f106126e757610100808354040283529160200191612712565b820191906000526020600020905b8154815290600101906020018083116126f557829003601f168201915b505050505090806007018054612727906149ca565b80601f0160208091040260200160405190810160405280929190818152602001828054612753906149ca565b80156127a05780601f10612775576101008083540402835291602001916127a0565b820191906000526020600020905b81548152906001019060200180831161278357829003601f168201915b5050505050908060080154908060090180546127bb906149ca565b80601f01602080910402602001604051908101604052809291908181526020018280546127e7906149ca565b80156128345780601f1061280957610100808354040283529160200191612834565b820191906000526020600020905b81548152906001019060200180831161281757829003601f168201915b50505050509080600a018054612849906149ca565b80601f0160208091040260200160405190810160405280929190818152602001828054612875906149ca565b80156128c25780601f10612897576101008083540402835291602001916128c2565b820191906000526020600020905b8154815290600101906020018083116128a557829003601f168201915b505050505090508b565b6128d4613585565b6000600190505b600254811015612e1557828051906020012060036000838152602001908152602001600020600a016040516129109190614a9e565b604051809103902003612e0257600360008281526020019081526020016000206040518061016001604052908160008201548152602001600182018054612956906149ca565b80601f0160208091040260200160405190810160405280929190818152602001828054612982906149ca565b80156129cf5780601f106129a4576101008083540402835291602001916129cf565b820191906000526020600020905b8154815290600101906020018083116129b257829003601f168201915b505050505081526020016002820180546129e8906149ca565b80601f0160208091040260200160405190810160405280929190818152602001828054612a14906149ca565b8015612a615780601f10612a3657610100808354040283529160200191612a61565b820191906000526020600020905b815481529060010190602001808311612a4457829003601f168201915b505050505081526020016003820160009054906101000a900473ffffffffffffffffffffffffffffffffffffffff1673ffffffffffffffffffffffffffffffffffffffff1673ffffffffffffffffffffffffffffffffffffffff1681526020016004820160009054906101000a900473ffffffffffffffffffffffffffffffffffffffff1673ffffffffffffffffffffffffffffffffffffffff1673ffffffffffffffffffffffffffffffffffffffff168152602001600582018054612b26906149ca565b80601f0160208091040260200160405190810160405280929190818152602001828054612b52906149ca565b8015612b9f5780601f10612b7457610100808354040283529160200191612b9f565b820191906000526020600020905b815481529060010190602001808311612b8257829003601f168201915b50505050508152602001600682018054612bb8906149ca565b80601f0160208091040260200160405190810160405280929190818152602001828054612be4906149ca565b8015612c315780601f10612c0657610100808354040283529160200191612c31565b820191906000526020600020905b815481529060010190602001808311612c1457829003601f168201915b50505050508152602001600782018054612c4a906149ca565b80601f0160208091040260200160405190810160405280929190818152602001828054612c76906149ca565b8015612cc35780601f10612c9857610100808354040283529160200191612cc3565b820191906000526020600020905b815481529060010190602001808311612ca657829003601f168201915b5050505050815260200160088201548152602001600982018054612ce6906149ca565b80601f0160208091040260200160405190810160405280929190818152602001828054612d12906149ca565b8015612d5f5780601f10612d3457610100808354040283529160200191612d5f565b820191906000526020600020905b815481529060010190602001808311612d4257829003601f168201915b50505050508152602001600a82018054612d78906149ca565b80601f0160208091040260200160405190810160405280929190818152602001828054612da4906149ca565b8015612df15780601f10612dc657610100808354040283529160200191612df1565b820191906000526020600020905b815481529060010190602001808311612dd457829003601f168201915b505050505081525050915050612e51565b8080612e0d90614d62565b9150506128db565b506040517f08c379a0000000000000000000000000000000000000000000000000000000008152600401612e48906150c7565b60405180910390fd5b919050565b612e5e6134f8565b6000600190505b6001548110156134b7578280519060200120600080838152602001908152602001600020600501604051612e999190614a9e565b6040518091039020036134a45760008082815260200190815260200160002060405180610180016040529081600082015481526020016001820160009054906101000a900473ffffffffffffffffffffffffffffffffffffffff1673ffffffffffffffffffffffffffffffffffffffff1673ffffffffffffffffffffffffffffffffffffffff168152602001600282018054612f34906149ca565b80601f0160208091040260200160405190810160405280929190818152602001828054612f60906149ca565b8015612fad5780601f10612f8257610100808354040283529160200191612fad565b820191906000526020600020905b815481529060010190602001808311612f9057829003601f168201915b50505050508152602001600382018054612fc6906149ca565b80601f0160208091040260200160405190810160405280929190818152602001828054612ff2906149ca565b801561303f5780601f106130145761010080835404028352916020019161303f565b820191906000526020600020905b81548152906001019060200180831161302257829003601f168201915b505050505081526020016004820160009054906101000a900473ffffffffffffffffffffffffffffffffffffffff1673ffffffffffffffffffffffffffffffffffffffff1673ffffffffffffffffffffffffffffffffffffffff1681526020016005820180546130ae906149ca565b80601f01602080910402602001604051908101604052809291908181526020018280546130da906149ca565b80156131275780601f106130fc57610100808354040283529160200191613127565b820191906000526020600020905b81548152906001019060200180831161310a57829003601f168201915b50505050508152602001600682018054613140906149ca565b80601f016020809104026020016040519081016040528092919081815260200182805461316c906149ca565b80156131b95780601f1061318e576101008083540402835291602001916131b9565b820191906000526020600020905b81548152906001019060200180831161319c57829003601f168201915b505050505081526020016007820180546131d2906149ca565b80601f01602080910402602001604051908101604052809291908181526020018280546131fe906149ca565b801561324b5780601f106132205761010080835404028352916020019161324b565b820191906000526020600020905b81548152906001019060200180831161322e57829003601f168201915b50505050508152602001600882018054613264906149ca565b80601f0160208091040260200160405190810160405280929190818152602001828054613290906149ca565b80156132dd5780601f106132b2576101008083540402835291602001916132dd565b820191906000526020600020905b8154815290600101906020018083116132c057829003601f168201915b505050505081526020016009820180546132f6906149ca565b80601f0160208091040260200160405190810160405280929190818152602001828054613322906149ca565b801561336f5780601f106133445761010080835404028352916020019161336f565b820191906000526020600020905b81548152906001019060200180831161335257829003601f168201915b50505050508152602001600a82018054613388906149ca565b80601f01602080910402602001604051908101604052809291908181526020018280546133b4906149ca565b80156134015780601f106133d657610100808354040283529160200191613401565b820191906000526020600020905b8154815290600101906020018083116133e457829003601f168201915b50505050508152602001600b8201805461341a906149ca565b80601f0160208091040260200160405190810160405280929190818152602001828054613446906149ca565b80156134935780601f1061346857610100808354040283529160200191613493565b820191906000526020600020905b81548152906001019060200180831161347657829003601f168201915b5050505050815250509150506134f3565b80806134af90614d62565b915050612e65565b506040517f08c379a00000000000000000000000000000000000000000000000000000000081526004016134ea906150c7565b60405180910390fd5b919050565b60405180610180016040528060008152602001600073ffffffffffffffffffffffffffffffffffffffff1681526020016060815260200160608152602001600073ffffffffffffffffffffffffffffffffffffffff168152602001606081526020016060815260200160608152602001606081526020016060815260200160608152602001606081525090565b604051806101600160405280600081526020016060815260200160608152602001600073ffffffffffffffffffffffffffffffffffffffff168152602001600073ffffffffffffffffffffffffffffffffffffffff1681526020016060815260200160608152602001606081526020016000815260200160608152602001606081525090565b6000604051905090565b600080fd5b600080fd5b6000819050919050565b6136328161361f565b811461363d57600080fd5b50565b60008135905061364f81613629565b92915050565b60006020828403121561366b5761366a613615565b5b600061367984828501613640565b91505092915050565b61368b8161361f565b82525050565b600073ffffffffffffffffffffffffffffffffffffffff82169050919050565b60006136bc82613691565b9050919050565b6136cc816136b1565b82525050565b600081519050919050565b600082825260208201905092915050565b60005b8381101561370c5780820151818401526020810190506136f1565b60008484015250505050565b6000601f19601f8301169050919050565b6000613734826136d2565b61373e81856136dd565b935061374e8185602086016136ee565b61375781613718565b840191505092915050565b600061018082019050613778600083018f613682565b613785602083018e6136c3565b8181036040830152613797818d613729565b905081810360608301526137ab818c613729565b90506137ba608083018b6136c3565b81810360a08301526137cc818a613729565b905081810360c08301526137e08189613729565b905081810360e08301526137f48188613729565b90508181036101008301526138098187613729565b905081810361012083015261381e8186613729565b90508181036101408301526138338185613729565b90508181036101608301526138488184613729565b90509d9c50505050505050505050505050565b600080fd5b600080fd5b7f4e487b7100000000000000000000000000000000000000000000000000000000600052604160045260246000fd5b61389d82613718565b810181811067ffffffffffffffff821117156138bc576138bb613865565b5b80604052505050565b60006138cf61360b565b90506138db8282613894565b919050565b600067ffffffffffffffff8211156138fb576138fa613865565b5b61390482613718565b9050602081019050919050565b82818337600083830152505050565b600061393361392e846138e0565b6138c5565b90508281526020810184848401111561394f5761394e613860565b5b61395a848285613911565b509392505050565b600082601f8301126139775761397661385b565b5b8135613987848260208601613920565b91505092915050565b600080604083850312156139a7576139a6613615565b5b600083013567ffffffffffffffff8111156139c5576139c461361a565b5b6139d185828601613962565b925050602083013567ffffffffffffffff8111156139f2576139f161361a565b5b6139fe85828601613962565b9150509250929050565b6000602082019050613a1d6000830184613682565b92915050565b600081519050919050565b600082825260208201905092915050565b6000819050602082019050919050565b613a588161361f565b82525050565b613a67816136b1565b82525050565b600082825260208201905092915050565b6000613a89826136d2565b613a938185613a6d565b9350613aa38185602086016136ee565b613aac81613718565b840191505092915050565b600061018083016000830151613ad06000860182613a4f565b506020830151613ae36020860182613a5e565b5060408301518482036040860152613afb8282613a7e565b91505060608301518482036060860152613b158282613a7e565b9150506080830151613b2a6080860182613a5e565b5060a083015184820360a0860152613b428282613a7e565b91505060c083015184820360c0860152613b5c8282613a7e565b91505060e083015184820360e0860152613b768282613a7e565b915050610100830151848203610100860152613b928282613a7e565b915050610120830151848203610120860152613bae8282613a7e565b915050610140830151848203610140860152613bca8282613a7e565b915050610160830151848203610160860152613be68282613a7e565b9150508091505092915050565b6000613bff8383613ab7565b905092915050565b6000602082019050919050565b6000613c1f82613a23565b613c298185613a2e565b935083602082028501613c3b85613a3f565b8060005b85811015613c775784840389528151613c588582613bf3565b9450613c6383613c07565b925060208a01995050600181019050613c3f565b50829750879550505050505092915050565b60006020820190508181036000830152613ca38184613c14565b905092915050565b600067ffffffffffffffff821115613cc657613cc5613865565b5b602082029050602081019050919050565b600080fd5b600080fd5b600080fd5b613cef816136b1565b8114613cfa57600080fd5b50565b600081359050613d0c81613ce6565b92915050565b60006101808284031215613d2957613d28613cdc565b5b613d346101806138c5565b90506000613d4484828501613640565b6000830152506020613d5884828501613cfd565b602083015250604082013567ffffffffffffffff811115613d7c57613d7b613ce1565b5b613d8884828501613962565b604083015250606082013567ffffffffffffffff811115613dac57613dab613ce1565b5b613db884828501613962565b6060830152506080613dcc84828501613cfd565b60808301525060a082013567ffffffffffffffff811115613df057613def613ce1565b5b613dfc84828501613962565b60a08301525060c082013567ffffffffffffffff811115613e2057613e1f613ce1565b5b613e2c84828501613962565b60c08301525060e082013567ffffffffffffffff811115613e5057613e4f613ce1565b5b613e5c84828501613962565b60e08301525061010082013567ffffffffffffffff811115613e8157613e80613ce1565b5b613e8d84828501613962565b6101008301525061012082013567ffffffffffffffff811115613eb357613eb2613ce1565b5b613ebf84828501613962565b6101208301525061014082013567ffffffffffffffff811115613ee557613ee4613ce1565b5b613ef184828501613962565b6101408301525061016082013567ffffffffffffffff811115613f1757613f16613ce1565b5b613f2384828501613962565b6101608301525092915050565b6000613f43613f3e84613cab565b6138c5565b90508083825260208201905060208402830185811115613f6657613f65613cd7565b5b835b81811015613fad57803567ffffffffffffffff811115613f8b57613f8a61385b565b5b808601613f988982613d12565b85526020850194505050602081019050613f68565b5050509392505050565b600082601f830112613fcc57613fcb61385b565b5b8135613fdc848260208601613f30565b91505092915050565b600060208284031215613ffb57613ffa613615565b5b600082013567ffffffffffffffff8111156140195761401861361a565b5b61402584828501613fb7565b91505092915050565b600067ffffffffffffffff82111561404957614048613865565b5b602082029050602081019050919050565b6000610160828403121561407157614070613cdc565b5b61407c6101606138c5565b9050600061408c84828501613640565b600083015250602082013567ffffffffffffffff8111156140b0576140af613ce1565b5b6140bc84828501613962565b602083015250604082013567ffffffffffffffff8111156140e0576140df613ce1565b5b6140ec84828501613962565b604083015250606061410084828501613cfd565b606083015250608061411484828501613cfd565b60808301525060a082013567ffffffffffffffff81111561413857614137613ce1565b5b61414484828501613962565b60a08301525060c082013567ffffffffffffffff81111561416857614167613ce1565b5b61417484828501613962565b60c08301525060e082013567ffffffffffffffff81111561419857614197613ce1565b5b6141a484828501613962565b60e0830152506101006141b984828501613640565b6101008301525061012082013567ffffffffffffffff8111156141df576141de613ce1565b5b6141eb84828501613962565b6101208301525061014082013567ffffffffffffffff81111561421157614210613ce1565b5b61421d84828501613962565b6101408301525092915050565b600061423d6142388461402e565b6138c5565b905080838252602082019050602084028301858111156142605761425f613cd7565b5b835b818110156142a757803567ffffffffffffffff8111156142855761428461385b565b5b808601614292898261405a565b85526020850194505050602081019050614262565b5050509392505050565b600082601f8301126142c6576142c561385b565b5b81356142d684826020860161422a565b91505092915050565b6000602082840312156142f5576142f4613615565b5b600082013567ffffffffffffffff8111156143135761431261361a565b5b61431f848285016142b1565b91505092915050565b60006020828403121561433e5761433d613615565b5b600061434c84828501613cfd565b91505092915050565b600081519050919050565b600082825260208201905092915050565b6000819050602082019050919050565b60006101608301600083015161439a6000860182613a4f565b50602083015184820360208601526143b28282613a7e565b915050604083015184820360408601526143cc8282613a7e565b91505060608301516143e16060860182613a5e565b5060808301516143f46080860182613a5e565b5060a083015184820360a086015261440c8282613a7e565b91505060c083015184820360c08601526144268282613a7e565b91505060e083015184820360e08601526144408282613a7e565b915050610100830151614457610100860182613a4f565b506101208301518482036101208601526144718282613a7e565b91505061014083015184820361014086015261448d8282613a7e565b9150508091505092915050565b60006144a68383614381565b905092915050565b6000602082019050919050565b60006144c682614355565b6144d08185614360565b9350836020820285016144e285614371565b8060005b8581101561451e57848403895281516144ff858261449a565b945061450a836144ae565b925060208a019950506001810190506144e6565b50829750879550505050505092915050565b6000602082019050818103600083015261454a81846144bb565b905092915050565b60008060006060848603121561456b5761456a613615565b5b600061457986828701613640565b935050602084013567ffffffffffffffff81111561459a5761459961361a565b5b6145a686828701613962565b925050604084013567ffffffffffffffff8111156145c7576145c661361a565b5b6145d386828701613962565b9150509250925092565b6000610160820190506145f3600083018e613682565b8181036020830152614605818d613729565b90508181036040830152614619818c613729565b9050614628606083018b6136c3565b614635608083018a6136c3565b81810360a08301526146478189613729565b905081810360c083015261465b8188613729565b905081810360e083015261466f8187613729565b905061467f610100830186613682565b8181036101208301526146928185613729565b90508181036101408301526146a78184613729565b90509c9b505050505050505050505050565b6000602082840312156146cf576146ce613615565b5b600082013567ffffffffffffffff8111156146ed576146ec61361a565b5b6146f984828501613962565b91505092915050565b60006101608301600083015161471b6000860182613a4f565b50602083015184820360208601526147338282613a7e565b9150506040830151848203604086015261474d8282613a7e565b91505060608301516147626060860182613a5e565b5060808301516147756080860182613a5e565b5060a083015184820360a086015261478d8282613a7e565b91505060c083015184820360c08601526147a78282613a7e565b91505060e083015184820360e08601526147c18282613a7e565b9150506101008301516147d8610100860182613a4f565b506101208301518482036101208601526147f28282613a7e565b91505061014083015184820361014086015261480e8282613a7e565b9150508091505092915050565b600060208201905081810360008301526148358184614702565b905092915050565b6000610180830160008301516148566000860182613a4f565b5060208301516148696020860182613a5e565b50604083015184820360408601526148818282613a7e565b9150506060830151848203606086015261489b8282613a7e565b91505060808301516148b06080860182613a5e565b5060a083015184820360a08601526148c88282613a7e565b91505060c083015184820360c08601526148e28282613a7e565b91505060e083015184820360e08601526148fc8282613a7e565b9150506101008301518482036101008601526149188282613a7e565b9150506101208301518482036101208601526149348282613a7e565b9150506101408301518482036101408601526149508282613a7e565b91505061016083015184820361016086015261496c8282613a7e565b9150508091505092915050565b60006020820190508181036000830152614993818461483d565b905092915050565b7f4e487b7100000000000000000000000000000000000000000000000000000000600052602260045260246000fd5b600060028204905060018216806149e257607f821691505b6020821081036149f5576149f461499b565b5b50919050565b600081905092915050565b60008190508160005260206000209050919050565b60008154614a28816149ca565b614a3281866149fb565b94506001821660008114614a4d5760018114614a6257614a95565b60ff1983168652811515820286019350614a95565b614a6b85614a06565b60005b83811015614a8d57815481890152600182019150602081019050614a6e565b838801955050505b50505092915050565b6000614aaa8284614a1b565b915081905092915050565b60008190508160005260206000209050919050565b60006020601f8301049050919050565b600082821b905092915050565b600060088302614b177fffffffffffffffffffffffffffffffffffffffffffffffffffffffffffffffff82614ada565b614b218683614ada565b95508019841693508086168417925050509392505050565b6000819050919050565b6000614b5e614b59614b548461361f565b614b39565b61361f565b9050919050565b6000819050919050565b614b7883614b43565b614b8c614b8482614b65565b848454614ae7565b825550505050565b600090565b614ba1614b94565b614bac818484614b6f565b505050565b5b81811015614bd057614bc5600082614b99565b600181019050614bb2565b5050565b601f821115614c1557614be681614ab5565b614bef84614aca565b81016020851015614bfe578190505b614c12614c0a85614aca565b830182614bb1565b50505b505050565b600082821c905092915050565b6000614c3860001984600802614c1a565b1980831691505092915050565b6000614c518383614c27565b9150826002028217905092915050565b614c6a826136d2565b67ffffffffffffffff811115614c8357614c82613865565b5b614c8d82546149ca565b614c98828285614bd4565b600060209050601f831160018114614ccb5760008415614cb9578287015190505b614cc38582614c45565b865550614d2b565b601f198416614cd986614ab5565b60005b82811015614d0157848901518255600182019150602085019450602081019050614cdc565b86831015614d1e5784890151614d1a601f891682614c27565b8355505b6001600288020188555050505b505050505050565b7f4e487b7100000000000000000000000000000000000000000000000000000000600052601160045260246000fd5b6000614d6d8261361f565b91507fffffffffffffffffffffffffffffffffffffffffffffffffffffffffffffffff8203614d9f57614d9e614d33565b5b600182019050919050565b7f4d65646963696e65206e6f7420666f756e6420666f722074686520676976656e60008201527f20756e69717565206964656e74696669657220616e642072657461696c6f722060208201527f6164647265737300000000000000000000000000000000000000000000000000604082015250565b6000614e2c6047836136dd565b9150614e3782614daa565b606082019050919050565b60006020820190508181036000830152614e5b81614e1f565b9050919050565b6000614e6d8261361f565b9150614e788361361f565b9250828203905081811115614e9057614e8f614d33565b5b92915050565b7f4e487b7100000000000000000000000000000000000000000000000000000000600052603260045260246000fd5b7f52657461696c206f7264657220706c61636564207375636365737366756c6c79600082015250565b6000614efb6020836136dd565b9150614f0682614ec5565b602082019050919050565b60006020820190508181036000830152614f2a81614eee565b9050919050565b7f52657461696c6f72206f72646572206e6f7420666f756e640000000000000000600082015250565b6000614f676018836136dd565b9150614f7282614f31565b602082019050919050565b60006020820190508181036000830152614f9681614f5a565b9050919050565b7f4f6e6c7920746865206469737472696275746f722077686f207761732061737360008201527f69676e656420746865206f726465722063616e2075706461746520697473207360208201527f7461747573000000000000000000000000000000000000000000000000000000604082015250565b600061501f6045836136dd565b915061502a82614f9d565b606082019050919050565b6000602082019050818103600083015261504e81615012565b9050919050565b7f4d65646963696e6520776974682074686520676976656e20756e69717565206960008201527f64656e746966696572206e6f7420666f756e6400000000000000000000000000602082015250565b60006150b16033836136dd565b91506150bc82615055565b604082019050919050565b600060208201905081810360008301526150e0816150a4565b905091905056fea2646970667358221220f78750b72662f2761798300937144bca2edc86b246742101f5c8e014c18d90ec64736f6c63430008120033",
  "immutableReferences": {},
  "source": "// SPDX-License-Identifier: MIT\r\npragma solidity ^0.8.0;\r\ncontract Retailor{\r\n\r\nstruct retailorMedicine{\r\n    uint retailorOrderID;\r\n    address retailorAddress;\r\n    string retailorName;\r\n    string retailorLocation;\r\n\r\n    address distributorAddress;\r\n    \r\n    string uniqueIdentifier;\r\n    string medicineDetails; // Accept Medicien JSON.stringify() Array\r\n    string retailorOrderDateTime;\r\n    string retailorOrderStatus; // Pending / Rejected / Accepted\r\n    string OrderAcceptRejectDate;\r\n    string retailorPurchasetotalPrice;\r\n    string orderHistory; // contain Manufacturer and distributor Details\r\n}\r\nmapping (uint => retailorMedicine) public retailorOrderStruct;\r\n\r\nuint public retailorCounter = 1;\r\nevent RetailOrderPlaced(uint indexed retailOrderID, string message); //creating Event\r\nfunction placeRetailorOrder(retailorMedicine[] memory _retailorMedicines) public {\r\n    for (uint i = 0; i < _retailorMedicines.length; i++) {\r\n        retailorMedicine memory newOrder = retailorMedicine({\r\n            retailorOrderID: retailorCounter,\r\n            retailorAddress: _retailorMedicines[i].retailorAddress,\r\n            retailorName: _retailorMedicines[i].retailorName,\r\n            retailorLocation: _retailorMedicines[i].retailorLocation,\r\n            \r\n            distributorAddress:_retailorMedicines[i].distributorAddress,\r\n            \r\n            uniqueIdentifier: _retailorMedicines[i].uniqueIdentifier,\r\n            medicineDetails: _retailorMedicines[i].medicineDetails,\r\n            retailorOrderDateTime: _retailorMedicines[i].retailorOrderDateTime,\r\n            retailorOrderStatus: \"Pending\",\r\n            OrderAcceptRejectDate: _retailorMedicines[i].OrderAcceptRejectDate,\r\n            retailorPurchasetotalPrice: _retailorMedicines[i].retailorPurchasetotalPrice,\r\n            orderHistory: _retailorMedicines[i].orderHistory\r\n        });\r\n        \r\n        retailorOrderStruct[retailorCounter] = newOrder;\r\n        emit RetailOrderPlaced(retailorCounter, \"Retail order placed successfully\");\r\n        retailorCounter++;\r\n    }\r\n}\r\n\r\nfunction updateMedicinePrice(string memory _uniqueIdentifier, string memory _medicineDetails) public {\r\n  bool found = false;\r\n  for (uint i = 1; i < retailorCounter; i++) {\r\n    if (keccak256(bytes(retailorOrderStruct[i].uniqueIdentifier)) == keccak256(bytes(_uniqueIdentifier)) &&\r\n        retailorOrderStruct[i].retailorAddress == msg.sender) {\r\n      found = true;\r\n      retailorOrderStruct[i].medicineDetails = _medicineDetails;\r\n      break;\r\n    }\r\n  }\r\n  require(found, \"Medicine not found for the given unique identifier and retailor address\");\r\n}\r\n\r\nfunction AcceptRejectOrder(uint _retailorOrderID, string memory _retailorOrderStatus, string memory _OrderAcceptRejectDate) public {\r\n    require(retailorOrderStruct[_retailorOrderID].retailorOrderID != 0, \"Retailor order not found\");\r\n    require(msg.sender == retailorOrderStruct[_retailorOrderID].distributorAddress, \"Only the distributor who was assigned the order can update its status\");\r\n    retailorOrderStruct[_retailorOrderID].retailorOrderStatus = _retailorOrderStatus;\r\n    retailorOrderStruct[_retailorOrderID].OrderAcceptRejectDate = _OrderAcceptRejectDate;\r\n}\r\n\r\nfunction getAllOrder() public view returns (retailorMedicine[] memory) {\r\n    retailorMedicine[] memory orders = new retailorMedicine[](retailorCounter - 1);\r\n\r\n    for (uint i = 1; i < retailorCounter; i++) {\r\n        orders[i - 1] = retailorOrderStruct[i];\r\n    }\r\n\r\n    return orders;\r\n}\r\n\r\nfunction findMedicine(string memory _uniqueIdentifier) public view returns (retailorMedicine memory) {\r\n        for (uint i = 1; i < retailorCounter; i++) {\r\n            if (keccak256(bytes(retailorOrderStruct[i].uniqueIdentifier)) == keccak256(bytes(_uniqueIdentifier))) {\r\n                return retailorOrderStruct[i];\r\n            }\r\n        }\r\n        revert(\"Medicine with the given unique identifier not found\");\r\n}\r\n\r\n\r\n\r\nstruct SellMedicine {\r\n    uint sellID;\r\n    string medicineOrderHistory;\r\n    string medicineDetails;\r\n    address retailorAddress;\r\n    address customerAddress;\r\n    string customerEmailAddress;\r\n    string customerName;\r\n    string sellStatus;\r\n    uint medicinePrice;\r\n    string customerOrderDate;\r\n    string uniqueIdentifier;\r\n}\r\n\r\nuint sellCounter = 1;\r\nmapping(uint => SellMedicine) public sellMedicines;\r\n\r\nfunction sellInventoryMedicine(SellMedicine[] memory _sellMedicines) public {\r\n    for (uint i = 0; i < _sellMedicines.length; i++) {\r\n        SellMedicine memory newSellMedicine = SellMedicine({\r\n            sellID: sellCounter,\r\n            medicineOrderHistory: _sellMedicines[i].medicineOrderHistory,\r\n            medicineDetails: _sellMedicines[i].medicineDetails,\r\n            retailorAddress: _sellMedicines[i].retailorAddress,\r\n            customerAddress: _sellMedicines[i].customerAddress,\r\n            customerEmailAddress: _sellMedicines[i].customerEmailAddress,\r\n            customerName: _sellMedicines[i].customerName,\r\n            sellStatus: _sellMedicines[i].sellStatus,\r\n            medicinePrice: _sellMedicines[i].medicinePrice,\r\n            customerOrderDate: _sellMedicines[i].customerOrderDate,\r\n            uniqueIdentifier:_sellMedicines[i].uniqueIdentifier\r\n        });\r\n\r\n        sellMedicines[sellCounter] = newSellMedicine;\r\n        sellCounter++;\r\n    }\r\n}\r\n// Getting Customer Medicine using Customer Address\r\n\r\nfunction getCustomerMedicine(address _customerAddress) public view returns (SellMedicine[] memory) {\r\n    uint count = 0;\r\n    for (uint i = 1; i < sellCounter; i++) {\r\n        if (sellMedicines[i].customerAddress == _customerAddress) {\r\n            count++;\r\n        }\r\n    }\r\n\r\n    SellMedicine[] memory customerMedicines = new SellMedicine[](count);\r\n    count = 0;\r\n    for (uint i = 1; i < sellCounter; i++) {\r\n        if (sellMedicines[i].customerAddress == _customerAddress) {\r\n            customerMedicines[count] = sellMedicines[i];\r\n            count++;\r\n        }\r\n    }\r\n\r\n    return customerMedicines;\r\n}\r\n\r\n\r\n\r\n// Getting All sell Medicine Data\r\nfunction getAllSellMedicine() public view returns (SellMedicine[] memory) {\r\n    SellMedicine[] memory allSellMedicine = new SellMedicine[](sellCounter - 1);\r\n    for (uint i = 1; i < sellCounter; i++) {\r\n        allSellMedicine[i - 1] = sellMedicines[i];\r\n    }\r\n    return allSellMedicine;\r\n}\r\n\r\nfunction customerFindMedicine(string memory _uniqueIdentifier) public view returns (SellMedicine memory) {\r\n    for (uint i = 1; i < sellCounter; i++) {\r\n        if (keccak256(bytes(sellMedicines[i].uniqueIdentifier)) == keccak256(bytes(_uniqueIdentifier))) {\r\n            return sellMedicines[i];\r\n        }\r\n    }\r\n    revert(\"Medicine with the given unique identifier not found\");\r\n}\r\n\r\n}",
  "sourcePath": "E:\\Solidity\\mscm\\blockchain\\contracts\\Retailor.sol",
  "compiler": {
    "name": "solc",
    "version": "0.8.18+commit.87f61d96.Emscripten.clang"
  },
  "schemaVersion": "3.4.13",
  "updatedAt": "2023-05-13T17:56:04.203Z",
  "networkType": "ethereum",
  "devdoc": {
    "kind": "dev",
    "methods": {},
    "version": 1
  },
  "userdoc": {
    "kind": "user",
    "methods": {},
    "version": 1
  }
}